:020000040800F2
:1000000050090020C5000008D5130008AD110008F4
:1000100000000000000000000000000000000000E0
:100020000000000000000000000000001F14000895
:1000300000000000000000001D140008211400084A
:10004000D700000800000000D7000008D700000813
:10005000D7000008D7000008D7000008D700000824
:1000600000000000D7000008D7000008D7000008F3
:10007000D7000008E1140008D700000800000000C5
:10008000F11400080000000000000000D700000884
:1000900000000000D7000008D7000008D7000008C3
:1000A00000000000D70000080000000065190008EB
:1000B0000348854600F03CF80048004795190008C1
:1000C000500900200448804704480047FEE7FEE747
:1000D000FEE7FEE7FEE7FEE785140008B100000832
:1000E00030B50B46014600202022012409E00D46D0
:1000F000D5409D4205D31D469540491B2546954058
:1001000040191546521E002DF1DC30BDD2B201E07F
:100110000270401C491EFBD270470022F6E710B562
:1001200013460A4604461946FFF7F0FF204610BD65
:10013000064C0125064E05E0E36807CC2B430C3C3A
:1001400098471034B442F7D3FFF7B6FF001C0008FD
:10015000201C000870470020704710B504000DD027
:10016000607F002803D12077204600F025F8022088
:1001700060772046FFF7EFFF002801D0012010BD77
:100180006079002814D02069216808612168886896
:1001900060229043626910438860216888688022E9
:1001A0009043A2691043886001206077002010BD51
:1001B0000020C043E8E7000008B500680549884210
:1001C00007D10548426940210A434261406908401D
:1001D000009008BD003002400010024070B50024BD
:1001E000014620314A78022A03D004218163012488
:1001F00016E0026813680E25AB43136002681368AB
:100200005B085B0013600122056C1346AB40C56BB5
:100210006B604A7000220A70416B002900D0884749
:10022000204670BDF8B500238DE001249C40A44613
:1002300022407DD04C68022C01D0122C0CD1DC085D
:10024000A40027183C6A5D07ED0E0F26AE40B443AC
:100250000E69AE4026433E6205685E000324B4404A
:100260000F79A543BF07BF0FB7402F4307604D6805
:10027000012D05D0022D03D0112D01D0122D0ED14C
:100280008568CF68A543B7402F43876047686546B8
:10029000AF430D79ED06ED0F9D403D434560C568C8
:1002A000A5438C68B4402C43C4604C68E40049D535
:1002B000284CA56901263543A561A4699D083440F1
:1002C0000094254CAD002F19BC689D072E0F0F25FB
:1002D000B540AC430925ED06A84201D100250FE049
:1002E0001E4DA84201D101250AE01D4DA84201D1B1
:1002F000022505E01B4DA84201D1032500E005259C
:10030000B5402543BD60184C25684E689543F603FB
:1003100000D51543256065684E689543B60300D542
:1003200015436560A5684E689543F60202D500E066
:1003300008E01543A560E5684E689543B60200D510
:100340001543E5605B1C0A681446DC4000D06CE78E
:10035000F8BD000000100240000001400004004809
:1003600000080048000C00480004014042694A406F
:1003700042617047002A01D08161704781627047F5
:100380000148006870470000300000200248016802
:10039000491C0160704700003000002010B506487D
:1003A0000168102211430160002000F007F800F0FE
:1003B00017F8002010BD00000020024010B50446D0
:1003C00000F03AF97D21C900FFF78AFE00F030FB0A
:1003D00000222146501E00F021F8002010BD000030
:1003E00008B5084881690122114381618169114082
:1003F0000091C26901040A43C261C06908400090CB
:1004000008BD000000100240C106C90E012088404E
:10041000014908607047000000E100E010B500F0FD
:10042000DBFF10BDF8B505460068354CC00352D55A
:10043000E0690026C00007D4E16920040143E161BE
:10044000E1690140012600912E480168C90510D4D8
:100450000168821511430160FFF792FF074604E02F
:10046000FFF78EFFC01B642824D826480068C0050B
:10047000F6D5206A03273F02384020D0696839400A
:1004800081421CD0206A226AB843012109040A4330
:100490002262226A8A4322622062C0070FD0FFF7DD
:1004A0006FFF009008E0FFF76BFF0099411A1648B4
:1004B000814201D90320F8BD206A8007F3D5206A64
:1004C0006968B84308432062002E04D0E169012026
:1004D00000078143E1612878C00705D0206BA96837
:1004E00080088000084320632878800605D5206BAB
:1004F00010218843E968084320630020F8BD00000C
:10050000001002400070004088130000F8B5054656
:1005100044480E460068C007C00FB0420AD24148A6
:10052000016849084900314301600068C007C00FF5
:10053000B0425CD128783C4C800705D56068F0213A
:100540008843A968084360602878C0073FD068687E
:10055000012813D02168022813D08907002946DA20
:1005600061688908890001436160FFF709FF6968D4
:10057000074601290DD0022917D024E021688903FC
:10058000ECE78901EAE7FFF7FBFEC11B2748814240
:1005900017D860680007800F0128F4D117E0FFF733
:1005A000EFFEC11B214881420BD860680007800F15
:1005B0000228F4D10BE0FFF7E3FEC11B1B48814288
:1005C00001D90320F8BD60680007800FF3D11548FA
:1005D0000168C907C90FB1420BD901684908490030
:1005E000314301600068C007C00FB04201D0012054
:1005F000F8BD2878400706D56068072109028843BE
:10060000E9680843606000F02DF86168084A09064F
:10061000090F515CC840074908600020FFF7CEFE73
:100620000020F8BD002002400010024088130000A6
:10063000E81B0008340000200148006870470000F3
:10064000340000200448054900684968044A490507
:10065000490F515CC8407047340000200010024030
:10066000F81B000810B512A30FCB88B06C460FC45E
:1006700013A30FCB0FC416494A680C20134603403E
:100680001448042B0FD0082B0DD193021B0F6C467E
:10069000E45CC96A04AB0907090F595CD20304D5AD
:1006A000FFF71EFD604308B010BD0B486043FAE73A
:1006B00002030405060708090A0B0C0D0E0F1010A3
:1006C0000102030405060708090A0B0C0D0E0F10A2
:1006D0000010024000127A0000093D00FEB50446F9
:1006E0000078D04DC00747D068680007800F012808
:1006F00007D068680007800F022809D16868C00326
:1007000006D52868800337D5606800287ED033E09E
:10071000012062680004012A11D08100002A01D062
:10072000052A10D02A6882432A60286888432860F6
:100730006068002814D0FFF723FE06460CE0296805
:1007400001432960F4E72A680A432A60F7E7FFF7C4
:1007500017FE801B64286FD828688003F7D50BE04C
:10076000FFF70EFE064604E0FFF70AFE801B642832
:10077000F1D828688003F7D4207801268007002864
:100780003BDA68680007800F07D068680007800FB1
:10079000022809D16868C00306D42868800715D5E7
:1007A000E068012832D111E0E0680028286815D0FF
:1007B00030432860FFF7E4FD074604E0FFF7E0FD63
:1007C000C01B0228C7D828688007F7D52868F821F9
:1007D00088432169C900084328600EE040084000B2
:1007E0002860FFF7CDFD074604E0FFF7C9FDC01BF9
:1007F0000228B0D828688007F7D42078000724D5CD
:10080000E0690028686A10D0304300E008E16862BF
:10081000FFF7B6FD074604E0FFF7B2FDC01B022854
:1008200099D8686A8007F7D50FE0400840006862F1
:10083000FFF7A6FD074605E09DE0FFF7A1FDC01B01
:10084000022888D8686A8007F7D4207804274007F0
:10085000002860DA00200190E869C00008D4E96946
:10086000B8060143E961E969014001200091019066
:100870006D480168C90511D40168821511430160F2
:10088000FFF77EFD009005E0FFF77AFD0099401A22
:10089000642870D864480068C005F5D5A0680128B0
:1008A0000AD0002801D0052810D0286A400840004E
:1008B0002862286AB84301E0286A30432862A068A9
:1008C000002812D0FFF75CFD00900AE0286A384348
:1008D0002862F1E7FFF754FD0099411A534881421D
:1008E00049D8286A8007F5D50DE0FFF749FD00904B
:1008F00006E0FFF745FD0099411A4C4881423AD87D
:10090000286A8007F5D40198002804D0E9690120FD
:1009100000078143E9612078C00635D56069012868
:100920000CD0401D686B23D038436863686B400867
:1009300040006863FFF724FD064622E0686B3843F9
:100940006863686B30436863FFF71AFD064604E08E
:10095000FFF716FD801B02285BD8686B8007F7D570
:10096000686BF8218843A169C900084368630BE0FC
:10097000B8436863F4E74CE0FFF702FD801B0228F0
:1009800047D8686B8007F7D4206A002846D069688A
:100990000907890F022943D0012636060228286854
:1009A00005D0B0432860FFF7EBFC044633E0B043CA
:1009B0002860FFF7E5FC074604E0FFF7E1FCC01BF9
:1009C000022826D828688001F7D4E86AE16A00097D
:1009D00000010843E862616AA06A084369683D2231
:1009E0001204914308436860286830432860FFF789
:1009F000C7FC044604E0FFF7C3FC001B022808D82C
:100A000028688001F7D509E0FFF7BAFC001B02282F
:100A100001D90320FEBD28688001F5D40020FEBD69
:100A20000120FEBD0010024000700040881300004D
:100A3000094910B5401E884201D9012010BD074C5C
:100A400060610321081F00F0C7FC0020A06107209F
:100A50002061002010BD0000FFFFFF0000E000E06B
:100A60007047704770B502462032137F012B1BD0B0
:100A70000123137702245477046865687026B54310
:100A80006560046865680E68354365600468A5683C
:100A90008026B543A5600068846849680C4384607B
:100AA00053770020107770BD022070BD70B5040030
:100AB00005D025462035687F002802D006E00120B9
:100AC00070BD00202877204600F00AF802206877E1
:100AD000211D206800F014FD01206877002070BD02
:100AE00008B5134A0168134891420DD18269C114B7
:100AF0000A438261806900220840009011460D205F
:100B0000FFF78CFC0D200FE00B4A91420ED1C26919
:100B100002210A43C261C0690022084000901146C8
:100B20001020FFF77BFC1020FFF76EFC08BD0000D3
:100B3000002C014000100240000400400268D3680D
:100B400001210B43D360006802680A430260002061
:100B50007047F8B5054604462035287F012817D090
:100B600001272F7702206877226890687726FF2375
:100B7000B0431B02984390600868502837D00EDCC1
:100B8000202857D006DC00284ED0102840D14EE057
:100B90000220F8BD302850D0402839D13CE06028F0
:100BA0002DD0702817D001221203801A0ED0904247
:100BB0002ED1CB684A688968206800F0DDFC206887
:100BC0008168012292031143816021E020688168DD
:100BD000C908C900F8E7CB684A688968206800F04E
:100BE000CBFC21688868B0433043886010E0CA6855
:100BF0004968206800F0D3FC5021206806E0CA68EC
:100C00004968206800F0DCFC6021206800F0BFFC2F
:100C10006F7700202877F8BDCA684968206800F01F
:100C2000BEFC40212068F1E700212068EEE710219A
:100C30002068EBE720212068E8E730212068E5E71D
:100C4000704770B50446006801690025C9438907EB
:100C5000002915DBC168C943890711D4E91E016168
:100C600001202077206880698007204602D0FFF7A6
:100C7000E7FF04E000F096F8204600F094F82577AE
:100C800020680169C943490717D4C168C9434907A6
:100C900013D40421C94301610220207720688069B0
:100CA0008005800F204602D0FFF7CAFF04E000F065
:100CB00079F8204600F077F8257720680169C94364
:100CC000090716D4C168C943090712D40821C943CA
:100CD0000161042020772068C0698007204602D087
:100CE000FFF7AEFF04E000F05DF8204600F05BF88F
:100CF000257720680169C943C90617D4C168C9436B
:100D0000C90613D41021C943016108202077206847
:100D1000C0698005800F204602D0FFF791FF04E0F4
:100D200000F040F8204600F03EF825772068016981
:100D3000C943C90708D1C168C943C90704D1891E7D
:100D40000161204600F030F820680169C9430906B6
:100D500009D4C168C943090605D48021C94301618A
:100D60002046FFF77DFE20680169C943490609D482
:100D7000C168C943490605D44021C94301612046E1
:100D800000F02AF820680169C943890609D4C168BE
:100D9000C943890605D42021C94301612046FFF7D4
:100DA00060FE70BD7047704710B50849084C884216
:100DB00001D1012161600749884205D1606801289D
:100DC00002D100F0E7FE606010BD00009C00002032
:100DD000000000205C00002070477047F8B50368F1
:100DE0000446D96918680D072D0F07D18A0605D565
:100DF000820603D5204600F08AFCF8BD9A68002DD3
:100E000064D0D507ED0FFF26213606402E435DD076
:100E1000CE0706D0C60504D501261E62E36E334315
:100E2000E3668F0702230426002F06DAD70704D0D3
:100E300027683B62E76E3743E7664F0706D5D20760
:100E400004D022681662E26E1A43E2660A0709D5E8
:100E5000202202402A4305D0236808221A62E36E4A
:100E60001343E366E26E002AC7D0890604D58006E4
:100E700002D5204600F04BFCE06E000703D420684A
:100E8000806840061CD5204600F025FC206881685B
:100E9000490611D58168402291438160606E002827
:100EA0000AD012494163606EFFF798F90028A4D078
:100EB000606E416B8847F8BD2046FFF78EFFF8BD96
:100EC0002046FFF78AFF0020E066F8BD0A0605D538
:100ED000020603D5204600F0E1FCF8BD4906FCD52A
:100EE0004006FAD5204600F005FCF8BDC316000800
:100EF00070B5040005D025466035687A002802D018
:100F000006E0012070BD00202872204600F026F87F
:100F10002420687220680168490849000160204661
:100F200000F032FC0128EDD0606A002802D0204693
:100F300000F059FB206841680122D20291434160D0
:100F4000206881680822914381602068016801223D
:100F500011430160204600F0ABFB70BD10B586B0B8
:100F6000044614216846FFF7D8F8174920688842DC
:100F700027D116488269012189030A438261826967
:100F80000A4005924269C9000A434261406908402B
:100F90000590032040020090022001900020029062
:100FA000032003900120049009206946C006FFF742
:100FB00039F9002211461B20FFF730FA1B20FFF7FA
:100FC00023FA06B010BD00000038014000100240B6
:100FD00070B5034660339C7A202C39D100290BD0A0
:100FE000002A09D0012584682D03AC4206D1066988
:100FF000002E03D1CE0701D0012070BD1E7A012E34
:1010000026D001261E724165014640310A834A837B
:10101000FF22AC4204D10469002C07D10D4A05E03F
:10102000002C04D10469002C00D07F228A83002187
:10103000C16622229A72197201688A6832438A60F4
:1010400000680168FF22213211430160002070BD59
:10105000022070BDFF01000070B5194988422DD1F2
:10106000184C194D6078012805D102212846FFF758
:101070007DF90020607002212846FFF777F91348B8
:10108000012201689202491C0160914201D3511A68
:1010900001600F480368994201D15B1C0360184648
:1010A0000C4B814201D3081A01E0101A4018186055
:1010B00009480A4A007850540120207070BD000091
:1010C000DC00002000000020000400481000002088
:1010D0000C000020080000201C0000204C01002013
:1010E000FFB5064604466036707A83B00D46202868
:1010F00058D1002D0CD00598002809D00120A168F6
:101100000003814207D12069002804D1E80702D0FA
:10111000012007B0F0BD307A012843D001203072A1
:101120000020E06621207072FFF72AF9019027461F
:101130004037059838820598788218E0788A401EF2
:10114000788206980090002280212046019B00F0C2
:10115000D8FB002818D10120A1680003814202D1E8
:101160002069002812D02168287808856D1C788AAB
:101170000028E3D106980090002240212046019BE0
:1011800000F0BFFB002808D00320C2E728882168B0
:10119000C005C00D0885AD1CE9E720207072002055
:1011A0003072B6E70220B4E770470000BFF34F8FFC
:1011B00004490348C860BFF34F8F00BFFDE700003C
:1011C0000400FA0500ED00E010B50D480B49016080
:1011D0000021017141714161816101210162FEF7CC
:1011E000BCFF002801D0FEF7B5FF0548FEF7B3FFAE
:1011F000002801D0FEF7AEFF10BD00000030024015
:1012000038000020F0B587B014216846FEF785FF4E
:1012100028484269012189050A43426142690A401E
:101220000592426949110A43426142690A400592A6
:10123000426949000A434261406909260840F606AE
:10124000059000220C213046FFF794F81A4F012236
:1012500002213846FFF78EF80325002400956946E1
:10126000164801950294FEF7DDFFE32000906946E1
:10127000019502943046FEF7D5FF0C200125009021
:1012800002946946019503943046FEF7CBFF102087
:1012900000900194694602943046FEF7C3FF022095
:1012A000009002946946019503943846FEF7BAFF10
:1012B00007B0F0BD001002400004004800140048D0
:1012C00010B586B00024009417480194029403944A
:1012D0000494144905940160FF21F4318460416055
:1012E000046144611D218461C160FFF7DFFB0028B8
:1012F00001D0FEF72FFF01200003009069460A4845
:10130000FFF727FC002801D0FEF724FF049404A96E
:1013100005480594FFF7A6FB002801D0FEF71AFF49
:1013200006B010BD002C01405C00002010B586B056
:1013300000240094174801940294039404941449DF
:10134000059401601449846041607D210461490174
:101350008461C160FFF7AAFB002801D0FEF7FAFE06
:1013600001200003009069460A48FFF7F2FB0028BD
:1013700001D0FEF7EFFE049404A906480594FFF798
:1013800071FB002801D0FEF7E5FE06B010BD00009D
:10139000000400409C0000204F46000010B50C489F
:1013A0000A4901604B21C901416000218160C1608F
:1013B00001618161C1610C22016242614162FFF7FA
:1013C00097FD002801D0FEF7C5FE10BD0038014092
:1013D000DC000020704700008307FF22DB0E9A40EC
:1013E0008907090E994000280BDA0007000F08381A
:1013F000830808489B001818C36993430B43C361D3
:101400007047830804489B001B18186890430843E2
:101410001860704700ED00E000E400E0704770479E
:1014200010B5FEF7B3FF10BD70B594B0302168461B
:10143000FEF773FE00240E941394102009940225E5
:1014400004900D940F9407201294012600958004B7
:101450000C94109403960A90119408950B94684686
:10146000FFF73CF907200C900E9401210D950F9485
:101470000CA8FFF74BF810A810961294FEF7D2FFB5
:1014800014B070BD13480168012211430160416826
:10149000114A114041600168104A11400160016821
:1014A000012292049143016041683F22120491435A
:1014B0004160C16A09090901C162016BFF2214324E
:1014C00091430163416B49084900416300218160F8
:1014D00070470000001002400CB8FF08FFFFF6FE46
:1014E00010B50248FFF7ADFB10BD00005C00002006
:1014F00010B50248FFF7A5FB10BD00009C000020BE
:1015000070B50268174B184E984201D0B04203D113
:101510007024A2434C682243144C154D984208D0C5
:10152000B04206D0134EB04203D0A04201D0A84230
:1015300004D103263602B243CE6832438026B2433A
:101540004E69324302608A68C2620A6882629842C7
:1015500003D0A04201D0A84201D109690163012151
:10156000416170BD002C0140000400400044014076
:10157000004801400020004030B58468FF252D025E
:101580001B021343AC430B432343836030BD82688B
:1015900070239A430A4307210A438260704730B59B
:1015A000036A046A6408640004628469F025AC4339
:1015B000120122430A24A3430B438261036230BD1C
:1015C00030B5036A1024A34303628469036A0F25BC
:1015D0002D031203AC432243A024A3430901194362
:1015E0008261016230BD10B5818CC90707D00168E6
:1015F0004A6801235B049A43836A1A434A60818CD8
:10160000890707D501684A6801231B049A43C36A06
:101610001A434A60818C490707D501684A6801234B
:101620009B049A43036B1A434A60818C090707D5D0
:1016300001684A680123DB039A43436B1A434A60FB
:10164000818CC90607D50268916801231B03994361
:10165000836B19439160818C890607D501688A687C
:1016600001235B039A43C36B1A438A60818C49064A
:1016700012D503685A6801210905046C8A43224384
:101680005A60026C8A4207D10268516803235B05E5
:101690009943436C19435160818C090607D5016851
:1016A0004A680123DB04806C9A4302434A6010BD00
:1016B0000021C166202260304272827201720846A7
:1016C000704710B5406A0022014640314A834A8281
:1016D000FFF783FB10BD01680A68FF2321339A439B
:1016E0000A6001688A68520852008A6020216030CE
:1016F0008172704710B501680A6840239A430A60F6
:10170000202269210A54FFF74FFD002010BD70B55B
:101710000246403203466033948B9D7A0168222D45
:1017200005D08869082210438861022070BD898C29
:10173000012685683603B54202D10569002D0BD01C
:101740002140446D651C45652170518B491E09047B
:10175000090C518307D015E0456D21402980416D6A
:10176000891C4165F1E701680A68FF242134A2431E
:101770000A6001688A68520852008A6020219972C2
:10178000FFF76AFC002070BDF8B504462369A26823
:10179000E6691A43636910213343002026681A431F
:1017A00033680546394F3B401343336023685A681A
:1017B00003263603B243E66832435A60236AA269BD
:1017C00026681A43B3680B273F02BB431343B36039
:1017D0002F4A126B9207920F06D0012A08D0022AD4
:1017E00008D0032A07D101E0002104E0022102E031
:1017F000042100E008210122E369D203934224D1AD
:1018000000290CD002290DD0042913D0082917D0A3
:101810000125010909010007400F084332E0FEF7E6
:1018200011FF09E061681B4A48088018FEF758FC60
:1018300080B2EEE7FEF716FF616840004A08F4E761
:101840006168012248081204EFE7002908D0022944
:1018500009D004290BD008290ED001252846F8BD4F
:10186000FEF7F0FE05E061680B4A480806E0FEF767
:10187000F9FE61684A0801E0616848088018FEF7CF
:101880002FFC80B22168C860E8E70000F369FFFF21
:10189000001002400024F40000127A006921095C63
:1018A000212901D00220704702464032518A002986
:1018B00012D0012381681B03994202D101690029DA
:1018C00015D0C16C4B1CC364006809780185508A2F
:1018D000401E50820020704701680A6880239A43A6
:1018E0000A6000680168402211430160F2E7C16CA0
:1018F00003680988C905C90D1985C16C891CC164B3
:10190000E5E7FFB581B017460E4604460A9D1DE087
:10191000681C1BD0002D05D0FEF732FD0499401A3B
:10192000A84213D920680168FF22A13291430160C7
:101930002068816849084900816020206034607215
:10194000A07200202072032005B0F0BD2068C1699C
:101950003046884304D00020B842D9D00020F3E7B5
:101960000120F9E710B50248FFF738FA10BD000072
:10197000DC00002002E008C8121F08C1002AFAD1CA
:1019800070477047002001E001C1121F002AFBD1FF
:101990007047000071490020086071490860714972
:1019A000486071490870FEF7F9FCFFF73DFDFFF74D
:1019B00029FCFFF7F3FCFFF783FCFFF7B7FCFFF709
:1019C00003FC6A48FFF7BAF86948FFF7B7F809203F
:1019D00001220421C006FEF7CDFC01220221654848
:1019E000FEF7C8FC644F0024012264496448FFF7F5
:1019F000EFFA38680D28F7D35A4D28780028F3D02D
:101A0000012202215B48FEF7B5FC29460020087040
:101A1000524D396801260C392A6864E059489319F7
:101A200018184378562B04D0322B38D0192B52D0AB
:101A300057E08378122B54D1C378542B51D151499C
:101A4000921951180979002927D14179002924D107
:101A50008179012921D1C179012905D1017AFF209C
:101A60004002091848480160002202214148FEF75F
:101A700081FC3C48012242704448002101714171BF
:101A80008271C17140490978017264230D223F4976
:101A90003B48FFF725FB0028F7D10D3425E083787C
:101AA000022B1ED1C07877281BD100220221314899
:101AB000FEF760FC2B490120487029688A193149DA
:101AC00051180A7AFF21490251182F4A11602F4AF2
:101AD000D0711172E1E78378B32B02D1C378EE2B7A
:101AE0000CD0641C761C8E4298D92968012260189B
:101AF000920290422BD3D143401829E021499219F8
:101B000051180979427909041202891882798918D1
:101B1000C2791F4800688842BFD389188142BCD36C
:101B2000002202211348FEF725FC0E4901204870CF
:101B30002868811913480818017AFF204002081804
:101B40001149002208601149CA710872A5E70819F5
:101B500028603868001B0024386045E70C0000202E
:101B60001000002000000020140000205C00002075
:101B70009C00002000040048080000201C000020F9
:101B8000DC0000204C010020180000201D00002077
:101B90002C00002010B5134C09202178C006222902
:101BA00007D3002121700A460821FEF7E3FB00203D
:101BB00010BDCA0707D00821FEF7D8FB2078401CCB
:101BC0002070012010BD49081022521A6168D140CE
:101BD000C90701D0012200E000220821FEF7CAFB5C
:101BE000ECE70000140000200000000000000000EE
:101BF00001020304060708090000000001020304B3
:101C0000201C0008000000203800000074190008A3
:101C1000581C00083800002018090000841900082A
:101C200000000000000000000000000000000000B4
:101C3000000000000000000001FE0100000C62AA8C
:101C400077000001000A0C2668680000010000000F
:081C50000000000000127A0000
:04000005080000B13E
:00000001FF
