:020000040800F2
:1000000088050020C50000083D120008DD0F00082B
:1000100000000000000000000000000000000000E0
:10002000000000000000000000000000871200082F
:10003000000000000000000085120008891200087E
:10004000D7000008D7000008D700000867010008A3
:10005000D7000008D7000008D7000008D700000824
:1000600000000000D7000008D7000008D7000008F3
:1000700055010008D7000008D7000008D700000885
:10008000A11300080000000000000000D7000008D5
:1000900000000000D7000008D7000008D7000008C3
:1000A00000000000D70000080000000079180008D8
:1000B0000348854600F03CF800480047A9180008AE
:1000C000880500200448804704480047FEE7FEE713
:1000D000FEE7FEE7FEE7FEE745130008B100000873
:1000E00030B50B46014600202022012409E00D46D0
:1000F000D5409D4205D31D469540491B2546954058
:1001000040191546521E002DF1DC30BDD2B201E07F
:100110000270401C491EFBD270470022F6E710B562
:1001200013460A4604461946FFF7F0FF204610BD65
:10013000064C0125064E05E0E36807CC2B430C3C3A
:1001400098471034B442F7D3FFF7B6FFE818000819
:100150000819000810B5024800F0E0F810BD0000D2
:1001600008000020704710B500F098FA10BD00009C
:10017000064A0021D16106490A6902231A430A612D
:1001800048610869402210430861704768010020F7
:100190000020024010B5054B0022DA61044A1369C1
:1001A000012423431361018010BD00006801002079
:1001B0000020024010B50B4A0020D168CB060A4946
:1001C00004D5C86902231843C8611020D3685B07AF
:1001D00005D5CB6901242343CB6104210843D060BA
:1001E00010BD00000020024068010020F8B5002585
:1001F0000446403400952278012A3BD00122227027
:1002000003689E68760776D43F4F4E68BE4254D04E
:100210009E6A0F78BA4016439E620123826B1B07C9
:100220009A421FD0012A1DD0022A1BD0032A19D0BE
:10023000042A17D0052A15D0062A13D0072A11D070
:1002400002688B6856697607760FB3420AD0536905
:10025000DB08DB005361006842690B7A5B075B0FC8
:100260001A4342610868102806D0112804D01228C9
:1002700002D045E00220F8BD244A9368102809D036
:1002800011280AD001200006034393600868102853
:1002900006D035E00120C005F6E701208005F3E730
:1002A0001C481B490068FFF71BFF0A21484300E078
:1002B000401E00900028FBD122E0986A0E78B240E0
:1002C000904398620868102803D0112801D01228A2
:1002D00016D10E498A68102807D0112808D00120AD
:1002E000000682438A600BE005E00120C005F8E7C4
:1002F00001208005F5E7416C20221143416401256E
:10030000002020702846F8BD0110000000270140A1
:1003100040420F00040000207047704770B504464B
:1003200000680168490702D54168490705D401689A
:10033000090730D5416809072DD5616CC90604D479
:10034000616C0122520211436164C1680C250905E8
:10035000890F00291AD1216A002917D101680907DC
:1003600014D581684A070121002A08DB4268AA43A4
:100370004260606C0A0290430843606406E0606C6F
:10038000202210436064A06C0843A0642046FFF75D
:10039000C3FF206805602068016809060DD5406824
:1003A00000060AD5606C01210904084360642046F8
:1003B00000F0D6F821688020086020680168C9062E
:1003C00013D54168C90610D5616B1025012902D0EB
:1003D000C168C90707D0A16C02221143A16405605E
:1003E0002046FFF79AFF2068056070BDF8B500252C
:1003F0000446002803D0606C002802D008E00120E9
:10040000F8BD0020A06440210855204600F0AAF85D
:10041000606C1022C006002870DB206881684907E4
:100420006CD4616C130199430223194361648168A0
:100430008907890F012905D10168C9070FD1C16852
:1004400009040CD4C16818239943A3681943C160F7
:10045000206801696368890089081943016120687F
:10046000C1683D4B1940C160A069E1698003C903BF
:100470000843216A4B031843636B012B02D001230D
:100480001B0300E000231843E36818432369022B91
:1004900009D000231843236B666A5B0018430123CD
:1004A000012E02D00AE00423F4E7002927D0616C72
:1004B000202631436164A16C1943A164A16A0E46F0
:1004C000FF3EC23E02D0E66A314308432168CE684F
:1004D0000643CE600126A16B3607B14213D0012935
:1004E00011D002290FD003290DD004290BD00529E2
:1004F00009D0062907D0072905D010E028E00121FE
:1005000009040843DAE721684E69F608F6004E61EF
:1005100021684E69278F7F077F0F3E434E61216818
:10052000C9680E4E3140814207D10020A064606C42
:1005300080088000401C606408E0606C02218843F1
:1005400010436064A06C1843A06401252846F8BDE0
:10055000606C10436064F8E71902FEFFE7FF3F8319
:100560007047000010B586B0044614216846FFF7B6
:10057000D4FD14492068884221D11348826941156D
:100580000A43826182690A400592426909020A436C
:10059000426140690840059070200090032001905E
:1005A0000020029009206946C00600F0FFF80022F2
:1005B00011460C2000F0F4F90C2000F0E7F906B029
:1005C00010BD0000002401400010024000207047D0
:1005D00010B504000DD0607F002803D1207720469D
:1005E00000F024F8022060772046FFF7EFFF002894
:1005F00001D0012010BD6079002814D02069216845
:1006000008612168886860229043626910438860AD
:100610002168886880229043A26910438860012085
:100620006077002010BD0020C043E8E708B50068EF
:100630000549884207D10548426940210A43426181
:1006400040690840009008BD0030024000100240A0
:1006500070B50024014620314A78022A03D00421D3
:100660008163012416E0026813680E25AB43136012
:10067000026813685B085B0013600122056C134677
:10068000AB40C56B6B604A7000220A70416B002959
:1006900000D08847204670BD70470000F8B5404D37
:1006A000E8680027C006FF4300263E4C002802DB16
:1006B000E868400708D5A0680090A760FFF77AFDBA
:1006C000009800F071F82670E868800655D5202063
:1006D000E8602078002850D0207801281ED02078AB
:1006E000022836D06068401E60606068002838D0FC
:1006F000A068801CA060A06822696169120C0B04CC
:100700001A43090C2261616129694908490029617C
:100710002169626989B2FFF73DFD2EE06068401EE5
:100720006060606800280ED0A068FFF7B5FFA06881
:10073000012189024018A0602969022291432961A0
:10074000FFF716FD19E03846A7602670FFF7A4FFF3
:1007500013E028690421884328610020FFF79CFFEB
:100760000AE02078032816D020780428A06814D046
:10077000801FFFF791FFA76026702078002809D11D
:100780002869C008C00028612869052189028843BA
:1007900028612676F8BDA068EBE7801EE9E7000037
:1007A000002002406801002070470000F8B50023D7
:1007B00089E001249C402A46A44622407ED04C6811
:1007C000022C01D0122C0CD1DC08A40027183C6AA2
:1007D0005D07ED0E0F26AE40B4430E69AE402643D2
:1007E0003E6205685E000324B4400F79A543BF074D
:1007F000BF0FB7402F4307604D68012D05D0022D74
:1008000003D0112D01D0122D0ED18568CF68A543DC
:10081000B7402F43876047686546AF430D79ED06C3
:10082000ED0F9D403D434560C568A5438C68B440CD
:100830002C43C4604C68E40044D5264CA5690126CD
:100840003543A561A4699D0834400094224CAD0055
:100850002F19BC689D072E0F0F25B540AC43092505
:10086000ED06A84201D100250AE01C4DA84201D1A5
:10087000012505E01A4DA84201D1022500E0052519
:10088000B5402543BD60174C25684E689543F60377
:1008900000D51543256065684E689543B60300D5BD
:1008A00015436560A5684E689543F60200D515436B
:1008B000A560E5684E689543B60200E002E000D509
:1008C0001543E5605B1C0A681546DA4000D070E706
:1008D000F8BD000000100240000001400004004884
:1008E0000008004800040140002A01D081617047DF
:1008F00081627047014800687047000000000020D6
:1009000002480168491C0160704700000000002097
:1009100010B506480168102211430160002000F064
:1009200007F800F017F8002010BD0000002002407A
:1009300010B5044600F038F87D21C900FFF7D0FB60
:1009400000F086F800222146501E00F029F8002011
:1009500010BD000008B50C48816901221143816176
:10096000816911400091C26901040A43C261C069F2
:100970000022084000901146032000F011F80320E7
:1009800000F004F808BD000000100240C106C90EC6
:1009900001208840014908607047000000E100E044
:1009A00010B500F04DFC10BD014800687047000014
:1009B000040000200448054900684968044A4905C4
:1009C000490F515CC84070470400002000100240ED
:1009D000E018000810B513A30FCB88B06C460FC405
:1009E00014A30FCB0FC417494A680C2013460340C9
:1009F0001548042B02D0082B02D0401008B010BDBF
:100A000093021B0F6C46E45CC96A04AB0907090F2B
:100A1000595CD20303D5FFF763FB6043EEE70B4855
:100A20006043EBE702030405060708090A0B0C0DF7
:100A30000E0F10100102030405060708090A0B0C2B
:100A40000D0E0F10001002400024F40000093D00BC
:100A5000094910B5401E884201D9012010BD074C3C
:100A600060610321081F00F0EBFB0020A06107205C
:100A70002061002010BD0000FFFFFF0000E000E04B
:100A80007047704770B502462032137F012B1BD090
:100A90000123137702245477046865687026B543F0
:100AA0006560046865680E68354365600468A5681C
:100AB0008026B543A5600068846849680C4384605B
:100AC00053770020107770BD022070BD70B5040010
:100AD00005D025462035687F002802D006E0012099
:100AE00070BD00202877204600F00AF802206877C1
:100AF000211D206800F05CFC01206877002070BD9B
:100B000008B5104A01681048914207D18269C114A2
:100B10000A43826180690840009008BD0B4A9142F7
:100B2000FBD1C26902210A43C261C06900220840A8
:100B3000009011461020FFF733FF1020FFF726FF2B
:100B400008BD0000002C01400010024000040040DD
:100B50000268D36801210B43D360006802680A432E
:100B6000026000207047F8B5054604462035287F0E
:100B7000012817D001272F77022068772268906814
:100B80007726FF23B0431B029843906008685028E3
:100B900037D00EDC202857D006DC00284ED0102895
:100BA00040D14EE00220F8BD302850D0402839D145
:100BB0003CE060282DD0702817D001221203801A43
:100BC0000ED090422ED1CB684A688968206800F028
:100BD00031FC20688168012292031143816021E089
:100BE00020688168C908C900F8E7CB684A68896845
:100BF000206800F01FFC21688868B043304388609B
:100C000010E0CA684968206800F027FC502120687D
:100C100006E0CA684968206800F030FC602120685E
:100C200000F013FC6F7700202877F8BDCA68496888
:100C3000206800F012FC40212068F1E700212068C4
:100C4000EEE710212068EBE720212068E8E730215B
:100C50002068E5E7704770B5044600680169002523
:100C6000C9438907002915DBC168C943890711D425
:100C7000E91E0161012020772068806980072046F5
:100C800002D0FFF7E7FF04E000F096F8204600F0FE
:100C900094F8257720680169C943490717D4C168CA
:100CA000C943490713D40421C943016102202077B5
:100CB000206880698005800F204602D0FFF7CAFFB8
:100CC00004E000F079F8204600F077F825772068F6
:100CD0000169C943090716D4C168C943090712D479
:100CE0000821C9430161042020772068C06980077A
:100CF000204602D0FFF7AEFF04E000F05DF820468A
:100D000000F05BF8257720680169C943C90617D44C
:100D1000C168C943C90613D41021C9430161082021
:100D200020772068C0698005800F204602D0FFF739
:100D300091FF04E000F040F8204600F03EF82577EF
:100D400020680169C943C90708D1C168C943C907F7
:100D500004D1891E0161204600F030F82068016945
:100D6000C943090609D4C168C943090605D48021CD
:100D7000C94301612046FFF783FE20680169C9432A
:100D8000490609D4C168C943490605D44021C9436D
:100D90000161204600F013F820680169C943890603
:100DA00009D4C168C943890605D42021C94301611A
:100DB0002046FFF766FE70BD70477047704770476A
:100DC00070477047F8B503680446D8691968050785
:100DD0002D0F07D1820605D58A0603D5204600F0DF
:100DE0001FFCF8BD9A68002D64D0D507ED0FFF26D3
:100DF00021360E402E435DD0C60706D0CE0504D561
:100E000001261E62E36E3343E3668707022304264E
:100E1000002F06DAD70704D027683B62E76E374316
:100E2000E766470706D5D20704D022681662E26E4D
:100E30001A43E266020709D520220A402A4305D058
:100E4000236808221A62E36E1343E366E26E002A07
:100E5000C7D0800604D5880602D5204600F0E0FB06
:100E6000E06E000703D42068806840061CD5204649
:100E700000F0BAFB20688168490611D581684022DC
:100E800091438160606E00280AD01A494163606E08
:100E9000FFF7DEFB0028A4D0606E416B8847F8BDE9
:100EA0002046FFF78EFFF8BD2046FFF78AFF00209F
:100EB000E066F8BDC5020DD552020BD50120000534
:100EC0001862202120466030417281722046FFF76F
:100ED00077FFF8BD020605D50A0603D5204600F0C7
:100EE00067FCF8BD4006FCD54806FAD5204600F060
:100EF0008AFBF8BDD515000870B5040005D025465D
:100F00006035687A002802D006E0012070BD00201C
:100F10002872204600F026F82420687220680168B4
:100F2000490849000160204600F0B8FB0128EDD0D7
:100F3000606A002802D0204600F0B3FA20684168B9
:100F40000922D20291434160206881682A2291439C
:100F5000816020680168012211430160204600F091
:100F600005FB70BD10B586B0044614216846FFF736
:100F7000D4F817492068884227D116488269012190
:100F800089030A43826182690A4005924269C90065
:100F90000A434261406908400590032040020090E6
:100FA0000220019000200290032003900120049071
:100FB00009206946C006FFF7F9FB002211461B20F5
:100FC000FFF7EEFC1B20FFF7E1FC06B010BD0000B0
:100FD000003801400010024070477047FEE70000F3
:100FE0000149086070470000040000203EB5002160
:100FF00020480091019102911D4A41600260034620
:101000008160012204240C3316C38161C161016235
:10101000FF234162C233C162836242630163FFF70F
:10102000E5F9002801D0FFF79DF8012000030190A9
:1010300000040290009469460E48FFF7D7F8002894
:1010400001D0FFF78FF80520009069460948FFF7A7
:10105000CDF8002801D0FFF785F8062000906946FA
:101060000448FFF7C3F8002801D0FFF77BF83EBD26
:10107000002401400800002010B50948074901601C
:101080000021017141714161816101210162FFF71C
:101090009FFA002801D0FFF765F810BD003002402C
:1010A00054000020F0B587B014216846FFF735F8EA
:1010B0001C484269012189050A43426142690A408C
:1010C0000592426949110A43426142690A40059208
:1010D000426949000A434261406909260840F60610
:1010E000059000228F213046FFF7FEFB0E4F0122B4
:1010F00002213846FFF7F8FB8F20002401250090DD
:1011000002946946019503943046FFF74FFB022095
:10111000009002946946019503943846FFF746FB18
:1011200007B0F0BD001002400004004810B586B0C2
:1011300000240094154916480194029403940494E1
:10114000059412C0046044608460C460046108387F
:10115000FFF7BCFC002801D0FFF704F801200003D2
:10116000009069460A48FFF7FEFC002801D0FEF710
:10117000F9FF049404A906480594FFF783FC0028AE
:1011800001D0FEF7EFFF06B010BD0000002C0140BB
:101190007800002010B586B0002400941748019410
:1011A00002940394049414490594016014498460E2
:1011B00041607D21046149018461C160FFF786FCC3
:1011C000002801D0FEF7CEFF012000030090694601
:1011D0000A48FFF7C8FC002801D0FEF7C3FF0494BB
:1011E00004A906480594FFF74DFC002801D0FEF73E
:1011F000B9FF06B010BD000000040040B800002098
:101200004F46000010B50C480A4901604B21C90146
:10121000416000218160C16001618161C1610C2276
:10122000016242614162FFF767FE002801D0FEF7CC
:1012300099FF10BD00380140F80000207047000001
:101240008307FF22DB0E9A408907090E9940002888
:101250000BDA0007000F0838830808489B001818AD
:10126000C36993430B43C3617047830804489B00E1
:101270001B181868904308431860704700ED00E0A1
:1012800000E400E07047704710B5FFF739FB10BD70
:1012900010B52948012102688A430A4302600068A8
:1012A000264C206809040843206020688003C00F92
:1012B000FBD0606B012108436063606B8007C00F47
:1012C000FBD0606BF821884380210843606360682D
:1012D0003D21090488430521090408436060E06A50
:1012E00000090001E062206801210906084320602E
:1012F00020688001C00FFBD06068F02188436060E7
:1013000060680721090288436060616802208908DB
:101310008900014361600C21606808400828FBD106
:101320000748FFF75DFE606B042188436063206B14
:1013300080088000206310BD0020024000100240A1
:10134000006CDC021348016801221143016041680E
:10135000114A114041600168104A11400160016862
:10136000012292049143016041683F22120491439B
:101370004160C16A09090901C162016BFF2214328F
:1013800091430163416B4908490041630021816039
:1013900070470000001002400CB8FF08FFFFF6FE87
:1013A00010B50248FFF757FC10BD0000B800002040
:1013B000F0B502681A4B0124A4071A4D984203D0D5
:1013C000A04201D0A84203D17026B2434E683243F6
:1013D000154E164F98420AD0A04208D0A84206D017
:1013E000134CA04203D0B04201D0B84204D1032430
:1013F0002402A243CC6822438024A2434C692243A6
:1014000002608A68C2620A688262984203D0B0426F
:1014100001D0B84201D10969016301214161F0BDE8
:10142000002C0140000400400044014000480140FD
:101430000020004030B58468FF252D021B021343B5
:10144000AC430B432343836030BD826870239A43CF
:101450000A4307210A438260704730B5036A046A71
:101460006408640004628469F025AC4312012243DD
:101470000A24A3430B438261036230BD30B5036A83
:101480001024A34303628469036A0F252D0312030A
:10149000AC432243A024A3430901194382610162A2
:1014A00030BD10B5818CC90707D001684A68012397
:1014B0005B049A43836A1A434A60818C890707D583
:1014C00001684A6801231B049A43C36A1A434A60AD
:1014D000818C490707D501684A6801239B049A4318
:1014E000036B1A434A60818C090707D501684A6873
:1014F0000123DB039A43436B1A434A60818CC9067C
:1015000007D50268916801231B039943836B194334
:101510009160818C890607D501688A6801235B0385
:101520009A43C36B1A438A60818C490612D50368BB
:101530005A6801210905046C8A4322435A60026CEF
:101540008A4207D10268516803235B059943436CC3
:1015500019435160818C090607D501684A68012347
:10156000DB04806C9A4302434A6010BDF8B5002644
:101570000446C666FFF7BEF905461449206888424E
:101580001DD10068124F000709D501212B4600220A
:1015900049052046009700F03EF900280DD120684B
:1015A000006840070BD501212B4600228905204603
:1015B000009700F030F9002801D00320F8BD20206A
:1015C00060346072A07226720020F8BD00380140BD
:1015D000FFFFFF0110B5406A0022014640314A83F7
:1015E0004A82FFF7EEFB10BD01680A68FF23213332
:1015F0009A430A6001688A68520852008A60202172
:1016000060308172704710B501680A6840239A43C0
:101610000A60202269210A54FFF7DFFC002010BD78
:1016200070B50246403203466033948B9D7A016860
:10163000222D05D08869082210438861022070BDE0
:10164000898C012685683603B54202D10569002DD3
:101650000BD02140446D651C45652170518B491E9E
:101660000904090C518307D015E0456D21402980FC
:10167000416D891C4165F1E701680A68FF24213446
:10168000A2430A6001688A68520852008A602021D9
:101690009972FFF7A1FC002070BD0000F8B5044668
:1016A0002369A268E6691A43636910213343002065
:1016B00026681A4333680546394F3B40134333606D
:1016C00023685A6803263603B243E66832435A60F9
:1016D000236AA26926681A43B3680B273F02BB43FB
:1016E0001343B3602F4A126B9207920F06D0012A60
:1016F00008D0022A08D0032A07D101E0002104E023
:10170000022102E0042100E008210122E369D20362
:10171000934224D100290CD002290DD0042913D0E2
:10172000082917D00125010909010007400F0843C6
:1017300032E0FFF73FF909E061681B4A480880186A
:10174000FEF7CEFC80B2EEE7FFF744F96168400097
:101750004A08F4E76168012248081204EFE700290B
:1017600008D0022909D004290BD008290ED0012560
:101770002846F8BDFFF71EF905E061680B4A4808E6
:1017800006E0FFF727F961684A0801E06168480848
:101790008018FEF7A5FC80B22168C860E8E7000069
:1017A000F369FFFF001002400024F40000127A00E9
:1017B0006921095C212901D002207047024640328C
:1017C000518A002912D0012381681B03994202D15A
:1017D0000169002915D0C16C4B1CC36400680978ED
:1017E0000185508A401E50820020704701680A68B7
:1017F00080239A430A600068016840221143016017
:10180000F2E7C16C03680988C905C90D1985C16C67
:10181000891CC164E5E7FFB581B017460E46044652
:101820000A9D1DE0681C1BD0002D05D0FFF762F853
:101830000499401AA84213D920680168FF22A132F6
:101840009143016020688168490849008160202037
:1018500060346072A07200202072032005B0F0BDD9
:101860002068C1693046884304D00020B842D9D0EE
:101870000020F3E70120F9E710B50248FFF7A2FACC
:1018800010BD0000F800002002E008C8121F08C1C7
:10189000002AFAD170477047002001E001C1121FF1
:1018A000002AFBD170470000FFF732F8FFF7F0FC89
:1018B000FFF7F8FBFFF79AFBFFF7DEFBFFF736FCBD
:1018C000FFF768FCFFF79EFC0348FFF741F9034868
:1018D000FFF73EF9FEE7000078000020B800002086
:1018E00000000000010203040819000800000020A5
:1018F00008000000881800081019000808000020DF
:1019000080050000981800080000000000127A000E
:04000005080000B13E
:00000001FF
