:020000040800F2
:1040000040070020C54000088D6200086B5C000876
:1040100000000000000000000000000000000000A0
:104020000000000000000000000000001167000810
:104030000000000000000000D56200084D68000884
:10404000D7400008D7400008D7400008B744000810
:10405000D7400008D7400008D7400008D7400008E4
:1040600000000000D7400008D7400008D7400008F3
:10407000D74000084969000859690008D74000087E
:1040800069690008000000000000000039690008AC
:1040900000000000D7400008D7400008D7400008C3
:1040A00000000000D7400008000000003970000840
:1040B0000348854600F06AF8004800478170000810
:1040C000400700200448804704480047FEE7FEE719
:1040D000FEE7FEE7FEE7FEE7DD680008B140000806
:1040E00030B50B46014600202022012409E00D4690
:1040F000D5409D4205D31D469540491B2546954018
:1041000040191546521E002DF1DC30BD10B5202A95
:1041100004DB0846203AD040002110BD0B46D340B6
:10412000D0402024A21A91400843194610BD0346EE
:104130000B439B0703D009E008C9121F08C0042ADB
:10414000FAD203E00B780370401C491C521EF9D2CE
:104150007047D2B201E00270401C491EFBD270478A
:104160000022F6E710B513460A4604461946FFF743
:10417000F0FF204610BD0321001D401E03781202EF
:104180001A43491EF9D5104670470000064C012518
:10419000064E05E0E36807CC2B430C3C98471034EF
:1041A000B442F7D3FFF788FFF871000818720008CF
:1041B00070B5044600688168490720D581681026DB
:1041C0004907002905DA8168890702D481683143EB
:1041D000816000F013FF05460DE000F00FFF401B6B
:1041E000022808D9606C30436064A06C0121084348
:1041F000A064084670BD206880684007EDD40020A8
:1042000070BDF8B50446006881688907890F0129E7
:1042100028D10168C90702D1C168090422D5816883
:10422000052211401025012601290FD181680222A3
:104230001143816021680320086000F0DFFE07461B
:104240000CE000F0DBFEC01B022807D9606C28439D
:104250006064A06C3043A0640120F8BD20688068D1
:10426000C007EED10020F8BDF8B50446002000904C
:10427000206881688907890F012905D10168C9076C
:104280002CD1C168090429D48168154A102611402F
:104290000125002915D181682943816012481149FF
:1042A0000068FFF71DFF00E0401E00900028FBD1D2
:1042B00000F0A4FE07460CE000F0A0FEC01B0228A0
:1042C00007D9606C30436064A06C2843A06401206F
:1042D000F8BD20680068C043C007EDD10020F8BDDC
:1042E0001700008040420F00DC000020F7B50024DA
:1042F00016460546570809E00198A1000818FFF77F
:104300003AFF1021C84129680860641CA742F3D80D
:10431000F00704D00198A100405A29680880286855
:104320000068FEBDFEB505460024900816460F46FF
:1043300001900EE0A000C0190090FFF71CFF00BA2A
:10434000010A00980902C0780143286801600198B9
:10435000641CA042EED8B00721D0B007800F01281E
:1043600003D1A1002A68795C1170022808D1A0004D
:10437000C1194878097800020843296840BA0880C2
:10438000F04380070BD1A000C019417802780902E0
:1043900011432A6849BA1180296880780870286812
:1043A0000068FEBD30B5C36C934201D2012030BD20
:1043B00001230CE0846C9C4201D3E41A02E0056CFA
:1043C000E4182C1BD51A045D5B1C4C559BB2934220
:1043D000F0D9002030BDC06C80B270470022C264AA
:1043E000426440218264016411464254491C89B2EE
:1043F0004029FAD300207047826C416C914202D16F
:10440000C06C002801D00020704701207047C16CAB
:10441000006C401E814201D200207047012070478D
:1044200000B50B460246FFF7F2FF014600200029C7
:1044300007D0516C3F2902D0491C516404E05064FC
:1044400002E0D16C491CD164916C5354916C3F29AA
:1044500003D0491C9164002000BD9064FBE770B557
:104460000646C06C0D46A84201D2012070BD002452
:1044700006E0304600F008F80128F7D0641CA4B22A
:10448000AC42F6D3002070BD00B50346FFF7B4FF81
:10449000002801D0012000BDD86C401ED864986C63
:1044A000002805D0401E9864996C0020585400BD27
:1044B0003F20F8E7704710B500F014FC10BD000075
:1044C00006490020C86106480169042211430161C0
:1044D0000169402211430161704700002003002060
:1044E00000200240064A0021D16106490A690223E0
:1044F0001A430A6148610869402210430861704705
:10450000200300200020024010B5054B0022DA6194
:10451000044A1369012423431361018010BD000084
:10452000200300200020024010B50B4A0020D16873
:10453000CB060A4904D5C86902231843C861102074
:10454000D3685B0705D5CB6901242343CB610421E4
:104550000843D06010BD000000200240200300206E
:1045600070B5054600F04AFD0646104C0AE0681C8E
:1045700008D0002D04D000F041FD801BA84201D9D5
:10458000032070BDE068C007F1D1E068800601D566
:104590002020E060E068C00602D4E068400703D550
:1045A000FFF7C2FF012070BD002070BD0020024057
:1045B000F8B505460446403528780026012808D07D
:1045C00001202870206881688907890F012908D196
:1045D00001E00220F8BD0168C90738D1C1680904AB
:1045E00035D4616CFF220132914302221143616490
:1045F000C1688907890F0091C16889088900C16075
:104600002068816892071143816000F0F7FC07463B
:104610000EE000F0F3FCC01B022809D9606C0221F7
:104620008843102108436064002028700120F8BDF1
:10463000206880680028ECDB2068C168009A11437C
:10464000C160606C80088000401C606404E0606CA5
:104650002021084360640126002028703046F8BD00
:10466000F8B500250446403400952278012A3BD055
:104670000122227003689E68760776D43F4F4E6809
:10468000BE4254D09E6A0F78BA4016439E62012300
:10469000826B1B079A421FD0012A1DD0022A1BD011
:1046A000032A19D0042A17D0052A15D0062A13D0B8
:1046B000072A11D002688B6856697607760FB342D5
:1046C0000AD05369DB08DB005361006842690B7A4A
:1046D0005B075B0F1A4342610868102806D0112857
:1046E00004D0122802D045E00220F8BD244A936885
:1046F000102809D011280AD0012000060343936036
:104700000868102806D035E00120C005F6E7012032
:104710008005F3E71C481B490068FFF7E1FC0A210C
:10472000484300E0401E00900028FBD122E0986A38
:104730000E78B240904398620868102803D0112880
:1047400001D0122816D10E498A68102807D01128E6
:1047500008D00120000682438A600BE005E00120BA
:10476000C005F8E701208005F5E7416C20221143E0
:1047700041640125002020702846F8BD011000008A
:104780000027014040420F00DC0000200068006C60
:1047900070470000F8B500250446002803D0606C7F
:1047A000002802D008E00120F8BD0020A0644021CC
:1047B0000855204600F0A8F8606C1022C0060028BA
:1047C00070DB2068816849076CD4616C13019943E0
:1047D00002231943616481688907890F012905D182
:1047E0000168C9070FD1C16809040CD4C168182336
:1047F0009943A3681943C16020680169636889000F
:104800008908194301612068C1683D4B1940C160A6
:10481000A069E1698003C9030843216A4B03184377
:10482000636B012B02D001231B0300E0002318431C
:10483000E36818432369022B09D000231843236B34
:10484000666A5B0018430123012E02D00AE00423AC
:10485000F4E7002927D0616C202631436164A16C04
:104860001943A164A16A0E46FF3EC23E02D0E66A29
:10487000314308432168CE680643CE600126A16B10
:104880003607B14213D0012911D002290FD00329D4
:104890000DD004290BD0052909D0062907D00729F6
:1048A00005D010E028E0012109040843DAE7216877
:1048B0004E69F608F6004E6121684E69278F7F0722
:1048C0007F0F3E434E612168C9680E4E31408142E0
:1048D00007D10020A064606C80088000401C6064E8
:1048E00008E0606C0221884310436064A06C1843A8
:1048F000A06401252846F8BD606C10436064F8E7A9
:104900001902FEFFE7FF3F8310B586B0044614216D
:104910006846FFF725FC10492068884219D10F48E6
:10492000826941150A43826182690A40059242699F
:1049300009020A43426140690840059071200090D5
:10494000032001900020029009206946C00600F073
:10495000ADFA06B010BD0000002401400010024076
:10496000F8B504464069254640350E4608280BD068
:104970002068C068C00709D0606C202108436064CB
:10498000002028700120F8BD082700E00C2700F067
:1049900035FB009011E0701C0FD0002E05D000F008
:1049A0002DFB0099401AB04207D9606C04210843DE
:1049B0006064002028700320F8BD20680068384239
:1049C000E9D0606C01214902084360642068C16835
:1049D00009058A0F0C21002A1AD1226A002A17D150
:1049E0000268120714D5826853070122002B08DBE6
:1049F00043688B434360606C1302984310436064C8
:104A000006E0606C202318436064A06C1043A0642F
:104A1000A069002801D1206801600020F8BD0000D5
:104A200070B50446216800208968490721D42546CD
:104A30004035297801291CD001212970E16901291B
:104A400004D02046FFF710FC002811D1616C0A4AFF
:104A50001140FF220132114361640021A1642970D9
:104A600022681C21116021688A6804231A438A6025
:104A700070BD022070BD0000FEF1FFFF70B505465D
:104A8000044640352878012807D001262E7020469C
:104A9000FFF78EFB002802D00CE0022070BD2046FC
:104AA000FFF7AFFB002805D1616CFF220132914373
:104AB000314361640021297070BD0020704770B5DA
:104AC00004460020257F0346012D0BD001252577C4
:104AD00002266677266A012E10D0022E12D0032EEF
:104AE00014D106E0022070BD83002668CB583360E5
:104AF000401C9042F8D32068036807E02046FFF787
:104B000011FC02E02046FFF7F1FB03466577002029
:104B10002077184670BDF8B504460020257F03466F
:104B2000012D0FD001252577022666772668B76804
:104B30002F43B760266A012E10D0022E12D0032E0A
:104B400014D106E00220F8BD83002668CB583360FC
:104B5000401C9042F8D32068036807E02046FFF726
:104B6000E1FB02E02046FFF7C1FB0346657700202A
:104B700020771846F8BD10B504000DD0607F0028DE
:104B800003D12077204600F025F8022060772046E8
:104B9000FFF793FF002801D0012010BD60790028A5
:104BA00014D02069216808612168886860229043D8
:104BB0006269104388602168886880229043A269F6
:104BC0001043886001206077002010BD0020C043A2
:104BD000E8E7000008B500680549884207D10548A4
:104BE000426940210A43426140690840009008BD83
:104BF000003002400010024070B500240146203110
:104C00004A78022A03D004218163012416E0026855
:104C100013680E25AB431360026813685B085B00E2
:104C200013600122056C1346AB40C56B6B604A7084
:104C300000220A70416B002900D08847204670BDD1
:104C4000F8B5054623480F46017E012601290BD001
:104C5000012101762868204C012807D02046FFF763
:104C60007FFC002813D030E00220F8BD2046FFF77B
:104C700077FC002829D1FFF723FC2046FFF770FCC2
:104C80000646164801690422914301611DE0002097
:104C9000C04338606C6812E02046FFF723FC0E48E2
:104CA000FFF75EFC06460D48026902218A43026155
:104CB000002E01D03C6008E0012080022418A86882
:104CC000810268680818A042E6D8024800210176EF
:104CD0003046F8BD2003002050C3000000200240F1
:104CE00070470000F8B5404DE8680027C006FF4354
:104CF00000263E4C002802DBE868400708D5A06883
:104D00000090A760FFF710FC009800F07BF8267079
:104D1000E868800655D52020E8602078002850D02B
:104D2000207801281ED02078022836D06068401EE6
:104D300060606068002838D0A068801CA060A0680F
:104D400022696169120C0B041A43090C226161612A
:104D500029694908490029612169626989B2FFF717
:104D6000D3FB2EE06068401E6060606800280ED0B3
:104D7000A068FFF7B5FFA068012189024018A06074
:104D80002969022291432961FFF7ACFB19E03846FB
:104D9000A7602670FFF7A4FF13E028690421884369
:104DA00028610020FFF79CFF0AE02078032816D036
:104DB00020780428A06814D0801FFFF791FFA76017
:104DC00026702078002809D12869C008C000286111
:104DD000286905218902884328612676F8BDA068E4
:104DE000EBE7801EE9E700000020024020030020DE
:104DF00003480169802211430161002070470000CF
:104E00000020024070470000F0B51FB407461A4862
:104E10000024017E15461E46012907D00121017696
:104E20001648FFF79DFB002803D020E0022005B0C4
:104E3000F0BD012F02D0022F00D004272201284606
:104E40003146FFF763F981B2019862001018FFF74D
:104E50005BFB0A48FFF784FB09490A6952085200C4
:104E60000A61002803D1641CE4B2BC42E6D30249C3
:104E700000220A76DBE700002003002050C3000078
:104E800000200240064900200A69120607D5054A9B
:104E90004A60054A4A600969090600D50120704741
:104EA0000020024023016745AB89EFCDF8B5002310
:104EB00089E001249C402A46A44622407ED04C68CA
:104EC000022C01D0122C0CD1DC08A40027183C6A5B
:104ED0005D07ED0E0F26AE40B4430E69AE4026438B
:104EE0003E6205685E000324B4400F79A543BF0706
:104EF000BF0FB7402F4307604D68012D05D0022D2D
:104F000003D0112D01D0122D0ED18568CF68A54395
:104F1000B7402F43876047686546AF430D79ED067C
:104F2000ED0F9D403D434560C568A5438C68B44086
:104F30002C43C4604C68E40044D5264CA569012686
:104F40003543A561A4699D0834400094224CAD000E
:104F50002F19BC689D072E0F0F25B540AC430925BE
:104F6000ED06A84201D100250AE01C4DA84201D15E
:104F7000012505E01A4DA84201D1022500E00525D2
:104F8000B5402543BD60174C25684E689543F60330
:104F900000D51543256065684E689543B60300D576
:104FA00015436560A5684E689543F60200D5154324
:104FB000A560E5684E689543B60200E002E000D5C2
:104FC0001543E5605B1C0A681546DA4000D070E7BF
:104FD000F8BD00000010024000000140000400483D
:104FE000000800480004014042694A40426170479D
:104FF000002A01D0816170478162704701480068D2
:1050000070470000D800002002480168491C016078
:1050100070470000D800002010B506480168102233
:1050200011430160002000F007F800F017F800209D
:1050300010BD00000020024010B5044600F038F812
:105040007D21C900FFF74CF800F086F800222146C8
:10505000501E00F029F8002010BD000008B50C48D3
:105060008169012211438161816911400091C26906
:1050700001040A43C261C069002208400090114641
:10508000032000F011F8032000F004F808BD000030
:1050900000100240C106C90E012088400149086085
:1050A0007047000000E100E010B501F0F1F810BD1C
:1050B0000148006870470000DC00002004480549F2
:1050C00000684968044A4905490F515CC840704767
:1050D000DC00002000100240F071000810B513A39E
:1050E0000FCB88B06C460FC414A30FCB0FC4174965
:1050F0004A680C20134603401548042B02D0082BA5
:1051000002D0401008B010BD93021B0F6C46E45C47
:10511000C96A04AB0907090F595CD20303D5FEF72E
:10512000DFFF6043EEE70B486043EBE70203040553
:10513000060708090A0B0C0D0E0F101001020304DC
:1051400005060708090A0B0C0D0E0F10001002408F
:105150000024F40000093D00094910B5401E8842B2
:1051600001D9012010BD074C60610321081F01F027
:105170008FF80020A06107202061002010BD0000F2
:10518000FFFFFF0000E000E07047704770B5024687
:105190002032137F012B1BD0012313770224547775
:1051A000046865687026B5436560046865680E68C4
:1051B000354365600468A5688026B543A56000682E
:1051C000846849680C43846053770020107770BD71
:1051D000022070BD70B5040005D025462035687FDB
:1051E000002802D006E0012070BD0020287720466C
:1051F00000F00AF802206877211D206801F0BCFB4E
:1052000001206877002070BD08B51F4A01681F485B
:10521000914215D18269C1140A43826180690022DA
:105220000840009011460D20FFF73EFF0D20FFF7CC
:1052300031FF002211460E20FFF736FF0E200FE04F
:10524000134A91420FD1C26902210A43C261C06967
:1052500000220840009011461020FFF725FF102083
:10526000FFF718FF08BD0B4A9142FBD1C2698915AF
:105270000A43C261C0690022084000901146132011
:10528000FFF712FF1320EBE7002C01400010024053
:1052900000040040002000400268D36801210B4355
:1052A000D360006802680A43026000207047000073
:1052B00002210246203251770168086A074B1842E2
:1052C00007D1086A9B10184203D1086840084000C3
:1052D0000860012050770020704700001111000085
:1052E000F8B5054604462035287F012817D0012748
:1052F0002F7702206877226890687726FF23B043D3
:105300001B02984390600868502837D00EDC202894
:1053100057D006DC00284ED0102840D14EE00220A5
:10532000F8BD302850D0402839D13CE060282DD03D
:10533000702817D001221203801A0ED090422ED16D
:10534000CB684A688968206801F063FB206881683F
:10535000012292031143816021E020688168C9081D
:10536000C900F8E7CB684A688968206801F051FBFA
:1053700021688868B0433043886010E0CA68496893
:10538000206801F03BFC5021206806E0CA684968AB
:10539000206801F044FC6021206801F045FB6F7734
:1053A00000202877F8BDCA684968206801F026FC0B
:1053B00040212068F1E700212068EEE710212068F5
:1053C000EBE720212068E8E730212068E5E7704717
:1053D00070B50446006801690025C94389070029A2
:1053E00015DBC168C943890711D4E91E0161012099
:1053F0002077206880698007204602D0FFF7E7FF0A
:1054000004E000F0BFF8204600F040F9257720685E
:105410000169C943490717D4C168C943490713D46F
:105420000421C9430161022020772068806980053A
:10543000800F204602D0FFF7CAFF04E000F0A2F878
:10544000204600F023F9257720680169C943090740
:1054500016D4C168C943090712D40821C9430161A0
:10546000042020772068C0698007204602D0FFF71B
:10547000AEFF04E000F086F8204600F007F925773B
:1054800020680169C943C90617D4C168C943C90660
:1054900013D41021C9430161082020772068C06916
:1054A0008005800F204602D0FFF791FF04E000F056
:1054B00069F8204600F0EAF8257720680169C943B9
:1054C000C90708D1C168C943C90704D1891E016150
:1054D000204600F04DF920680169C943090609D446
:1054E000C168C943090605D48021C943016120462A
:1054F000FFF74AFE20680169C943490609D4C1681B
:10550000C943490605D44021C9430161204600F042
:105510009FF920680169C943890609D4C168C94354
:10552000890605D42021C94301612046FFF72DFEDD
:1055300070BD000010B586B0044614216846FEF721
:105540000FFE0D492068884213D10C4842690913A7
:105550000A43426140690840059002200090019092
:105560000290032003900120049069460448FFF74D
:105570009DFC06B010BD0000000400400010024079
:10558000000400487047F8B5064604462036307FD0
:105590000D4601280DD001203077022070770427B6
:1055A000002A08D0042A16D0082A2AD00C2A4DD165
:1055B00037E00220F8BD206801F03EFA20688169DA
:1055C00008221143816120688169B94381612068A3
:1055D00081692A6912E0206801F06AFA206882690C
:1055E0000121C9020A438261206881690122920275
:1055F00091438161206881692A69120211438161A6
:1056000024E0206801F08EFA2068C26908210A436C
:10561000C2612068C169B943C1612068C1692A6952
:1056200012E0206801F0BAFA2068C1690122D202B2
:105630001143C1612068C269012189028A43C261A4
:105640002068C1692A6912021143C1610120707783
:1056500000203077F8BD70B5040005D02546203510
:10566000687F002802D006E0012070BD0020287766
:10567000204600F00AF802206877211D206801F01A
:105680007BF901206877002070BD704770470000EB
:1056900010B502680446002906D0042907D008295D
:1056A00023D00C2907D123E0D068022301E0D06881
:1056B00004231843D0600122206801F09FF90E49AD
:1056C0002068884205D00D49884202D00C498842A2
:1056D00004D1416C0122D203114341642068016866
:1056E000012211430160002010BDD0680823E0E7CB
:1056F000D0681023DDE70000002C01400044014089
:105700000048014030B504460068002201F076F9F7
:10571000144A134821689310814205D012488142EF
:1057200002D0124881420AD1086A104207D1086AA1
:10573000184204D1486C0125ED03A8434864206851
:10574000016A114206D1016A194203D10168490870
:1057500049000160012020346077002030BD000046
:10576000002C01401111000000440140004801409C
:105770007FB505462E482F4C854241D12E48FFF774
:105780004FF90021C9432C48FFF7EAF8002817D148
:105790002948FEF7FBFF60802748FEF7F7FFA0804F
:1057A0002548FEF7F3FFE0802348FEF7EFFF208156
:1057B0002148FEF7EBFF60811F48FEF7E7FFE0603E
:1057C0001D48FFF75BF91DA00FC86E460FC6618824
:1057D00068460A0A42708170A1880A0AC270017183
:1057E000E1880A0A4271817121890A0AC271017233
:1057F00061890A0A42728172A1890A0AC27201731E
:105800001248854212D1E1252069ED00A84206D850
:10581000401C206109208021C006FFF7E5FB2069BC
:10582000A84203D1FF20207001F0CCFC7FBD000016
:10583000EC010020C40000207C0100200C000000CE
:105840000000000000000000000000006C020020CA
:105850007047704770470000F8B50446006801685B
:10586000FF22213291430160206881684908490084
:105870008160216888682246460620460023403021
:105880000F256032002E1BDA8E684027BE438E60E3
:10589000616E00290AD00C484863606EFFF7ACF9CE
:1058A00000280BD0606E416B884707E04383206877
:1058B0000562202090722046FFF7CCFF0020F8BD43
:1058C00043830D62F5E700008D6D0008704700000E
:1058D000F8B503680446D869196805072D0F07D184
:1058E000820605D58A0603D5204601F079FAF8BD6F
:1058F0009A68002D64D0D507ED0FFF2621360E40A3
:105900002E435DD0C60706D0CE0504D501261E6203
:10591000E36E3343E366870702230426002F06DA8B
:10592000D70704D027683B62E76E3743E76647072F
:1059300006D5D20704D022681662E26E1A43E266E8
:10594000020709D520220A402A4305D023680822ED
:105950001A62E36E1343E366E26E002AC7D0800644
:1059600004D5880602D5204601F03AFAE06E000719
:1059700003D42068806840061CD5204601F014FA44
:1059800020688168490611D5816840229143816071
:10599000606E00280AD01A494163606EFFF72CF947
:1059A0000028A4D0606E416B8847F8BD2046FFF701
:1059B0008DFFF8BD2046FFF789FF0020E066F8BDA7
:1059C000C5020DD552020BD5012000051862202119
:1059D00020466030417281722046FFF73AFFF8BDE1
:1059E000020605D50A0603D5204601F0C1FAF8BD26
:1059F0004006FCD54806FAD5204601F0E4F9F8BD8A
:105A0000796D000870B5040005D025466035687AC8
:105A1000002802D006E0012070BD00202872204638
:105A200000F026F8242068722068016849084900BF
:105A30000160204601F012FA0128EDD0606A0028CA
:105A400002D0204601F0FEF8206841680922D20207
:105A500091434160206881682A22914381602068D7
:105A60000168012211430160204601F051F970BD27
:105A700010B586B0044614216846FEF771FB17493D
:105A80002068884227D116488269012189030A4388
:105A9000826182690A4005924269C9000A434261F3
:105AA00040690840059003204002009002200190C8
:105AB00000200290032003900120049009206946F1
:105AC000C006FFF7F3F9002211461B20FFF7ECFA9E
:105AD0001B20FFF7DFFA06B010BD000000380140C0
:105AE0000010024070B5034660339C7A202C39D1F7
:105AF00000290BD0002A09D0012584682D03AC426F
:105B000006D10669002E03D1CE0701D0012070BD59
:105B10001E7A012E26D001261E72416501464031B3
:105B20000A834A83FF22AC4204D10469002C07D1C6
:105B30000D4A05E0002C04D10469002C00D07F221E
:105B40008A830021C16622229A72197201688A68CA
:105B500032438A6000680168FF22213211430160EC
:105B6000002070BD022070BDFF010000084910B583
:105B700088420CD109208021C006FFF735FA05487C
:105B800001780548FEF74CFC04490120487010BD1F
:105B9000AC020020C000002014010020C40000203E
:105BA000FFB5064604466036707A83B00D4620285D
:105BB00058D1002D0CD00598002809D00120A168EB
:105BC0000003814207D12069002804D1E80702D0F0
:105BD000012007B0F0BD307A012843D00120307297
:105BE0000020E06621207072FFF708FA0190274636
:105BF0004037059838820598788218E0788A401EE8
:105C0000788206980090002280212046019B01F0B6
:105C1000E2F9002818D10120A1680003814202D1D5
:105C20002069002812D02168287808856D1C788AA0
:105C30000028E3D106980090002240212046019BD5
:105C400001F0C9F9002808D00320C2E7288821689C
:105C5000C005C00D0885AD1CE9E72020707200204A
:105C60003072B6E70220B4E77047FEE7F8B54A4D58
:105C70004A48EB6AC360296B01616A6B1C0C426184
:105C80000480438001710B0A43710B0C8371090E70
:105C9000C1710272110A4172110C8172110EC1722E
:105CA0003D49403189890A04120E090251180186C2
:105CB0003B4981623A49143141623A498969C1627A
:105CC000491C3BD13A48384C0068384F8168012262
:105CD0001143816021463648FEF71DFF012221460F
:105CE0003348FEF7ECFE06462078002816D1204601
:105CF0002038817F122911D1C07F7A280ED1607897
:105D0000FF280BD1A078FF2808D1E078FF2805D123
:105D10002079FF2802D16079FF2802D0641CBC42A0
:105D2000DCD31E48C662FFF7ADF81E493246002399
:105D300018310220FFF768F8FFF75AF8194804688D
:105D400047688668FFF79EF81448C068A04205D0EF
:105D5000002314490220EA6AFFF756F80F4C206925
:105D6000B84206D00F490023091D02202A6BFFF715
:105D70004BF86069B04206D00A490023083102207E
:105D80006A6BFFF741F8FFF733F80648C168A16175
:105D90000069E061F8BD000080F7FF1FE00000200F
:105DA000CE040000003C000800400008008000080D
:105DB000C801002070B50446007815283ED16078EF
:105DC00026283BD1A078242838D12179E07809020F
:105DD00040186179A2790904120689184318217ABA
:105DE000E07909024018617AA27A0904120689183A
:105DF0004218217BE07A09024018617BA57B0904E7
:105E00002D06491941180F48C5689D4216D10369EE
:105E1000934213D14069884210D1122221460A4888
:105E2000FEF779FEA27C617D12068918E27C237D53
:105E300012041B02D2188918814201D0002070BDC3
:105E4000012070BDE0000020C801002010B504460C
:105E50000078152816D16078562813D1A07812281A
:105E600010D1122221460948FEF755FEA27C617D21
:105E700012068918E27C237D12041B02D2188918AD
:105E8000814201D0002010BD012010BDC8010020BA
:105E900010B50F48FFF7E0FC0E48FFF709FA0E486F
:105EA000FFF706FA0C210D48FFF72CFC0C48FEF713
:105EB000E5FD0121C90608680A4A10408A0090429F
:105EC00005D172B64868096881F30888804710BD1B
:105ED000AC020020EC0100206C0200202C0200200B
:105EE0007C0100200000FE2F01490860704700007F
:105EF000DC000020FEB500242D492E4800940194BA
:105F00001025029432C004600121C4604160046124
:105F10008461046204264161FF228660C2324462C9
:105F2000C26181620C38FEF735FC002801D0FEF713
:105F3000C1FA0120000301900220029000946946FA
:105F40001C48FEF78DFB002801D0FEF7B3FA694626
:105F500018480096FEF784FB002801D0FEF7AAFA45
:105F60000520009069461348FEF77AFB002801D00F
:105F7000FEF7A0FA0620009069460E48FEF770FB77
:105F8000002801D0FEF796FA69460A480095FEF708
:105F900067FB002801D0FEF78DFA112000906946BA
:105FA0000448FEF75DFB002801D0FEF783FAFEBD32
:105FB000002401407C01002010B509480749016018
:105FC0000021017141714161816101210162FEF78E
:105FD000D2FD002801D0FEF76DFA10BD003002405E
:105FE000C801002010B586B014216846FEF7B8F845
:105FF00015484269012189050A43426142690A4004
:106000000592426949110A43426142690A40059278
:10601000426949000A434261406909240840E40694
:10602000059000228E212046FEF7E2FF8E20009090
:106030000021012002910391019069462046FEF75C
:1060400035FF06B010BD00000010024010B50B482F
:10605000094901600A4941601D22C26000210122F4
:106060008160520202618161FFF7B4F8002801D01B
:10607000FEF720FA10BD0000002000406C02002056
:10608000E7FD000010B586B0002400941748019485
:1060900002940394049414490594016014498460A3
:1060A00041600461446113498461C160FFF792F863
:1060B000002801D0FEF7FEF9012000030090694698
:1060C0000A48FFF70DF9002801D0FEF7F3F9049410
:1060D00004A906480594FFF759F8002801D0FEF7F7
:1060E000E9F906B010BD0000002C0140EC010020D1
:1060F0003F1F0000B70B000010B58EB000240794BE
:10610000089409940A940B941C2168460C94FEF799
:1061100027F82348214901607F2184604160FF21E5
:10612000C16001214902016180218161FFF752F8BC
:10613000002801D0FEF7BEF901200003079007A94F
:106140001748FFF7CDF8002801D0FEF7B3F914483F
:10615000FFF781FA002801D0FEF7ACF90B940BA9E8
:106160000F480C94FFF712F8002801D0FEF7A2F9AF
:106170006020009064200190022002900C22694669
:1061800004940748FFF7FFF9002801D0FEF792F9C1
:106190000348FFF7CFF90EB010BD00000004004027
:1061A0002C02002010B50C480A4901604B21C9019E
:1061B000416000218160C16001618161C1610C2287
:1061C000016242614162FFF71DFC002801D0FEF729
:1061D00071F910BD00380140AC02002008B5002064
:1061E0000090684600F096FA08BD08B500F07AFA0B
:1061F00000200090684600F08DFA08BD38B5017C9B
:10620000407C09020B4C0818A061FEF73BFE0023FE
:1062100009490220A269FEF7F7FDFEF7E9FDA06932
:106220006946020C0A70020A4A708870684600F0DB
:1062300071FA38BDE00000200C3C000808B50020D1
:106240000090684600F066FA08BD000038B5017C91
:10625000407C09020B4C0818E061FEF713FE002396
:1062600009490220E269FEF7CFFDFEF7C1FDE069B2
:106270006946020C0A70020A4A708870684600F08B
:1062800049FA38BDE0000020103C000870470000CB
:106290008307FF22DB0E9A408907090E99400028E8
:1062A0000BDA0007000F0838830808489B0018180D
:1062B000C36993430B43C3617047830804489B0041
:1062C0001B181868904308431860704700ED00E001
:1062D00000E400E0704710B5C17B0B0000F0B4FE95
:1062E000071605080B0E11141600FFF787FF0DE0C7
:1062F000FFF7ACFF0AE0FFF7A1FF07E0FFF76EFF33
:1063000004E0FFF7C5FD01E0FFF76FFF002010BDBF
:1063100010B581790B0000F097FE1035090C0F12B3
:1063200015181B1E2124272A2D30333500F0AAF919
:1063300028E000F0C5F925E000F0B8F922E000F00F
:1063400037F91FE000F0B6F81CE000F07BF819E028
:1063500000F0DCF816E000F05BF813E000F012F952
:1063600010E000F047F90DE000F036F80AE000F028
:1063700091F807E000F05AF904E000F067F901E055
:10638000FFF786FD002010BD0949C27889690B021C
:106390001B0E9A420AD002790B041B0E9A4205D0BA
:1063A0004079C9B2884201D000207047012070476F
:1063B000E00000200749C27889690B021B0E9A424F
:1063C00006D000790904090E884201D000207047E8
:1063D00001207047E00000200EB5FFF7D5FF01282F
:1063E00001D001200EBD00200090019002900748CE
:1063F0006946806A020E0A70020C4A70020A8A70AC
:10640000C870684600F0D4F900200EBDE0000020FE
:106410000EB5FFF7B9FF012801D001200EBD002005
:10642000009001900290064869460088020A0A70AE
:10643000487066208870684600F0BAF900200EBDEA
:10644000C80000200EB5FFF79FFF012801D00120F2
:106450000EBD00200090019002900B480188684614
:106460000A0A027041700948018868460A0A827067
:10647000C1700748018868460A0A0271417100F03C
:1064800097F900200EBD0000CE000020CA000020B9
:10649000CC0000200EB5FFF777FF012801D00120C6
:1064A0000EBD0020009001900290684600F080F937
:1064B00000200EBD0EB5FFF767FF012801D00120B7
:1064C0000EBD0020009001900F4A0290D1686846EE
:1064D00001700B0A43700B0C8370090EC1701169B7
:1064E00001710B0A43710B0C8371090EC171516963
:1064F00001720A0A42720A0C8272090EC17200F01D
:1065000057F900200EBD0000E00000200EB5FFF797
:106510003BFF012801D001200EBD144801886846C8
:106520000A0A027041701248018868460A0A82709D
:10653000C1701048018868460A0A027141710E480C
:10654000018868460A0A8271C1710C480188684650
:106550000A0A027241720A48018868460A0A82726F
:10656000C17200F025F900200EBD0000C600002019
:10657000C8000020CA000020CC000020CE0000206F
:10658000D00000200EB5FFF7FFFE012801D001204A
:106590000EBD0020009001900290044869460078EA
:1065A0000870684600F004F900200EBDC400002009
:1065B0000EB5FFF7E9FE012801D001200EBD002035
:1065C0000090019002900948816968460A0C0271A6
:1065D0000A0A427181710648018868460A0A0270F7
:1065E000417000F0E5F800200EBD0000E000002042
:1065F000C20000200EB5FFF7C7FE012801D0012020
:106600000EBD002000900190029007486946406A44
:10661000020E0A70020C4A70020A8A70C87068463C
:1066200000F0C6F800200EBDE00000200EB5FFF718
:10663000ABFE012801D001200EBD0020009001908A
:106640000290684600F0B4F800200EBD0EB5FFF7CA
:106650009BFE012801D001200EBD0020009001907A
:10666000029007486946C069020E0A70020C4A701F
:10667000020A8A70C870684600F09AF800200EBDC1
:10668000E000002010B50446FFF77EFE012801D08F
:10669000012010BD0449607A087000F093FD204687
:1066A000FFF786FF002010BDC400002010B503498D
:1066B000407A087000F086FD002010BDC400002064
:1066C00010B50446FFF776FE012801D0012010BD69
:1066D0000349607A087000F075FD002010BD0000CD
:1066E000C40000201FB5012100200291074900903D
:1066F00001910390FEF7C6FB03A96846FEF7A0FAD6
:10670000FEF776FBFFF7B2FA1FBD0000003C000861
:106710007047000010B586B0044618221BA16846D9
:10672000FDF705FD1F4A6946D068C870030A0B7162
:10673000030C4B71000E88711069C871030A0B724B
:10674000030C4B72000E88725069C872020A0A73F9
:10675000020C4A73000E88732078C873607808743E
:10676000A078487412221048FEF7D5F9020E694647
:106770008A74020CCA74020A0A7548757D23DB000C
:1067800016220A48FFF70CFA06B010BD15262400A1
:1067900000000000000000000000000000000000F9
:1067A00000000000E0000020C8010020AC02002032
:1067B00010B586B0044618221BA16846FDF7B7FC49
:1067C0001F486946C069020CCA70020A0A71487102
:1067D000207888716078C871A0780872E078487273
:1067E000207988726079C872A0790873E07948735B
:1067F000207A8873607AC873A07A0874E07A487443
:1068000012221048FEF787F9020E69468A74020CBC
:10681000CA74020A0A7548757D23DB0016220A48ED
:10682000FFF7BEF906B010BD1556120000000000BB
:106830000000000000000000000000000000000058
:10684000E0000020C8010020AC02002010B5FEF7D7
:10685000DBFB10BD10B51E48016849084900016006
:1068600000681C4C206801221043206020688007CB
:10687000C00FFBD02368F820834380210B432360A3
:10688000636B13436363626B9207D20FFBD0626B3F
:1068900082430A4362636068F021884360606068F5
:1068A000072109028843606060688008800060609A
:1068B0000C2160680842FCD10748FFF715FB606BAC
:1068C000042188436063206B80088000206310BD32
:1068D000002002400010024000127A0013480168B4
:1068E0000122114301604168114A11404160016871
:1068F000104A114001600168012292049143016035
:1069000041683F22120491434160C16A09090901AB
:10691000C162016BFF22143291430163416B49084C
:10692000490041630021816070470000001002406F
:106930000CB8FF08FFFFF6FE10B50248FEF748FD51
:1069400010BD00006C02002010B50248FEF740FDAB
:1069500010BD0000EC01002010B50248FEF738FD24
:1069600010BD0000EC01002010B50248FEF730FD1C
:1069700010BD00002C020020F0B502681A4B012463
:10698000A4071A4D984203D0A04201D0A84203D1D7
:106990007026B2434E683243154E164F98420AD0C5
:1069A000A04208D0A84206D0134CA04203D0B04267
:1069B00001D0B84204D103242402A243CC6822436C
:1069C0008024A2434C69224302608A68C2620A683A
:1069D0008262984203D0B04201D0B84201D1096925
:1069E000016301214161F0BD002C01400004004021
:1069F00000440140004801400020004010B5012340
:106A0000046A8B409C430462036A8A401343036216
:106A100010BD30B58468FF252D021B021343AC4323
:106A20000B432343836030BD826870239A430A433B
:106A300007210A4382607047F0B5026A520852008B
:106A40000262056A436882697024A24392080C6856
:106A500092001443022295438A68134E2A43114D33
:106A6000A84204D0B04202D0104FB84206D1082745
:106A7000BA43CF681743042297433A46A84204D04A
:106A8000B04202D0094DA84206D103252D02AB43E6
:106A90004D691D438B692B434360846149684163A1
:106AA0000262F0BD002C014000440140004801405A
:106AB00070B5026A10239A430262046A43688269CD
:106AC00073252D02AA430D682D02154320229443FD
:106AD0008A6812012243104CA04208D11446CA68A9
:106AE0008026B443120122434024A24305E00B4C0C
:106AF000A04202D00A4CA04208D10324A402A3431E
:106B00004C69A4001C438B699B002343436085614F
:106B100049688163026270BD002C0140004401405D
:106B20000048014070B5026AFF2301339A430262B4
:106B3000046A4368C2697025AA4392080D689200EE
:106B400015430122520294438A6812022243104CD8
:106B5000A04207D1C414A243CC68240222430615E4
:106B6000B24305E00B4CA04202D00B4CA04208D12E
:106B700003242403A3434C6924011C438B691B0198
:106B800023434360C5614968C163026270BD000070
:106B9000002C0140004401400048014030B5026A29
:106BA00001231B039A430262056A4268C369732486
:106BB0002402A3430C6824021C4301235B039D436E
:106BC0008B681B032B430A4DA84205D0094DA842F0
:106BD00002D0094DA84205D10125AD03AA434D6954
:106BE000AD012A434260C46149680164036230BD5B
:106BF000002C0140004401400048014030B5036AC8
:106C0000046A6408640004628469F025AC431201DC
:106C100022430A24A3430B438261036230BD30B593
:106C2000036A1024A34303628469036A0F252D03BA
:106C30001203AC432243A024A343090119438261F8
:106C4000016230BD10B5818CC90707D001684A6860
:106C500001235B049A43836A1A434A60818C890743
:106C600007D501684A6801231B049A43C36A1A4383
:106C70004A60818C490707D501684A6801239B0453
:106C80009A43036B1A434A60818C090707D5016850
:106C90004A680123DB039A43436B1A434A60818CA1
:106CA000C90607D50268916801231B039943836BCA
:106CB00019439160818C890607D501688A68012390
:106CC0005B039A43C36B1A438A60818C490612D5D1
:106CD00003685A6801210905046C8A4322435A60FB
:106CE000026C8A4207D10268516803235B0599430D
:106CF000436C19435160818C090607D501684A68C5
:106D00000123DB04806C9A4302434A6010BD0000FB
:106D1000F8B500260446C666FEF770F90546144924
:106D2000206888421DD10068124F000709D5012153
:106D30002B46002249052046009700F04CF9002818
:106D40000DD12068006840070BD501212B46002299
:106D500089052046009700F03EF9002801D0032065
:106D6000F8BD202060346072A07226720020F8BD49
:106D700000380140FFFFFF0110B5406A00220146C4
:106D800040314A834A82FEF7A1FD10BD10B5406A2A
:106D900000225A210A5202680F21116220226A2120
:106DA0000A54FEF757FD10BD01680A68FF2321331E
:106DB0009A430A6001688A68520852008A6020215A
:106DC00060308172704710B501680A6840239A43A9
:106DD0000A60202269210A54FEF746FF002010BDF8
:106DE00070B50246403203466033948B9D7A016849
:106DF000222D05D08869082210438861022070BDC9
:106E0000898C012685683603B54202D10569002DBB
:106E10000BD02140446D651C45652170518B491E86
:106E20000904090C518307D015E0456D21402980E4
:106E3000416D891C4165F1E701680A68FF2421342E
:106E4000A2430A6001688A68520852008A602021C1
:106E50009972FEF78BFE002070BD0000F8B5044665
:106E60002369A268E6691A4363691021334300204D
:106E700026681A4333680546394F3B401343336055
:106E800023685A6803263603B243E66832435A60E1
:106E9000236AA26926681A43B3680B273F02BB43E3
:106EA0001343B3602F4A126B9207920F06D0012A48
:106EB00008D0022A08D0032A07D101E0002104E00B
:106EC000022102E0042100E008210122E369D2034B
:106ED000934224D100290CD002290DD0042913D0CB
:106EE000082917D00125010909010007400F0843AF
:106EF00032E0FEF7E3F809E061681B4A48088018B1
:106F0000FDF7EEF880B2EEE7FEF7E8F861684000C2
:106F10004A08F4E76168012248081204EFE70029F3
:106F200008D0022909D004290BD008290ED0012548
:106F30002846F8BDFEF7C2F805E061680B4A48082C
:106F400006E0FEF7CBF861684A0801E0616848088E
:106F50008018FDF7C5F880B22168C860E8E7000036
:106F6000F369FFFF001002400024F40000127A00D1
:106F70006921095C212901D0022070470246403274
:106F8000518A002912D0012381681B03994202D142
:106F90000169002915D0C16C4B1CC36400680978D5
:106FA0000185508A401E50820020704701680A689F
:106FB00080239A430A6000680168402211430160FF
:106FC000F2E7C16C03680988C905C90D1985C16C50
:106FD000891CC164E5E7FFB581B017460E4604463B
:106FE0000A9D1DE0681C1BD0002D05D0FEF706F899
:106FF0000499401AA84213D920680168FF22A132DF
:10700000914301602068816849084900816020201F
:1070100060346072A07200202072032005B0F0BDC1
:107020002068C1693046884304D00020B842D9D0D6
:107030000020F3E70120F9E710B50248FEF748FC0D
:1070400010BD0000AC02002030B47446641E2578E8
:10705000641CAB4200D21D46635D5B00E31830BC8C
:10706000184702E008C8121F08C1002AFAD1704769
:107070007047002001E001C1121F002AFBD17047B8
:1070800000F082F8FDF7C8FFFEF7F0FD002036495A
:1070900005460D54401CC0B21628FAD3FFF7DAFBA0
:1070A000FEF7A0FFFEF726FFFEF786FFFEF7EAFFDA
:1070B000FFF778F8FEF7CAFFFFF71EF8012202215A
:1070C0002A48FDF795FF2A48FDF772FA2948FEF78E
:1070D000E3F82948FEF7E0F8002000F073F82248B2
:1070E0005038FDF77BF90924E406012204212046EB
:1070F000FDF77EFF002202212046FDF779FF0122E5
:1071000080212046FDF774FF1C4CE1263601012248
:107110001B491C48FEF7E6FC13485038FDF75BF9A5
:107120001628F4D360780128F1D10F49266108466A
:10713000657016225038FDF735F90B48FEF73AFE18
:107140000028094802D0FFF7C6F806E0FEF77EFEE9
:107150000028DCD00448FFF7DBF80348162150383C
:10716000FDF77DF9D3E7000064010020000400482A
:107170007C010020EC0100206C020020C4000020F3
:10718000C0000020AC02002010B5002072B60A4AF0
:107190000A4B81008C1824685C50401C3028F8D3BE
:1071A00007480168890889000160016803221143CA
:1071B000016062B610BD0000004000080000002021
:1071C0000000014000B587B00190022002906021CC
:1071D0000020009104900C2269460448FEF7D3F980
:1071E0000C210248FEF754FA07B000BD2C02002023
:1071F00000000000010203041872000800000020D3
:10720000E000000062700008F8720008E000002052
:10721000600600007270000800000000000000001E
:10722000000000000000000000000000000000005E
:10723000000000000000000000000000000000004E
:10724000000000000000000000000000000000003E
:10725000000000000000000000000000000000002E
:10726000000000000000000000000000000000001E
:10727000000000000000000000000000000000000E
:1072800000000000000000000000000000000000FE
:1072900000000000000000000000000000000000EE
:1072A00000000000000000000000000000000000DE
:1072B00000000000000000000000000000000000CE
:1072C00000000000000000000000000000000000BE
:1072D00000000000000000000000000000000000AE
:1072E000000000000000000000000000000000009E
:0872F0000000000000127A000A
:04000005080040B1FE
:00000001FF
