:020000040800F2
:1000000088050020C5000008391700086914000899
:1000100000000000000000000000000000000000E0
:10002000000000000000000000000000E1170008D0
:10003000000000000000000081170008E31700081E
:10004000D700000800000000D7000008D700000813
:10005000D7000008D7000008D7000008D700000824
:1000600000000000D7000008D7000008D7000008F3
:10007000D7000008B5180008D700000800000000ED
:10008000C51800080000000000000000D7000008AC
:1000900000000000D7000008D7000008D7000008C3
:1000A00000000000D700000800000000E11C00086C
:1000B0000348854600F04EF800480047211D00081F
:1000C000880500200448804704480047FEE7FEE713
:1000D000FEE7FEE7FEE7FEE759180008B10000085A
:1000E00030B50B46014600202022012409E00D46D0
:1000F000D5409D4205D31D469540491B2546954058
:1001000040191546521E002DF1DC30BD03460B434D
:100110009B0703D009E008C9121F08C0042AFAD2BD
:1001200003E00B780370401C491C521EF9D2704743
:10013000D2B201E00270401C491EFBD2704700227F
:10014000F6E710B513460A4604461946FFF7F0FFD6
:10015000204610BD064C0125064E05E0E36807CC9D
:100160002B430C3C98471034B442F7D3FFF7A4FF5D
:10017000581E0008781E00080022C2624262202138
:100180008262016211464254491C89B22029FAD385
:1001900000207047C16A006A401E814201D20020DF
:1001A00070470120704710B50C460246FFF7F2FF7A
:1001B0000023002807D0506A1F2802D0401C50623C
:1001C00004E0536202E0D06A401CD062906A14548A
:1001D000906A1F2803D0401C9062002010BD9362DB
:1001E000FBE770470020704710B504000DD0607F1A
:1001F000002803D12077204600F024F80220607701
:100200002046FFF7EFFF002801D0012010BD6079E4
:10021000002814D020692168086120688168602264
:100220009143626911438160206881688022914313
:10023000A2691143816001206077002010BD002079
:10024000C043E8E708B500680549884207D105487A
:10025000426940210A43426140690840009008BD5C
:10026000003002400010024070B5002401462031E9
:100270004A78022A03D004218163012416E002682F
:1002800013680E25AB431360026813685B085B00BC
:1002900013600125036C2A469A40C36B5A604D7067
:1002A00000220A70416B002900D08847204670BDAB
:1002B00031B500F0B9F8009C0546601C00D0641C04
:1002C00000F0B2F8401BA042FAD338BDF8B50022C6
:1002D0008DE001249440A44623407DD04C68022C3C
:1002E00001D0122C0CD1D408A4002618356A54076A
:1002F000E40E0F27A740BD430F69A7402F43376285
:10030000066855000324AC400F79A643BF07BF0F12
:10031000AF40374307604E68012E05D0022E03D050
:10032000112E01D0122E0ED18668CF68A643AF40A1
:100330003743876047686646B7430E79F606F60F7F
:1003400096403E434660C668A6438C68AC40344342
:10035000C4604C68E40049D5284CA56901263543A2
:10036000A561A469950834400094254CAD002F196F
:10037000BD689407240F0F26A640B5430926F6064C
:10038000B04201D100260FE01E4EB04201D101263D
:100390000AE01D4EB04201D1022605E01B4EB042DC
:1003A00001D1032600E00526A6402E43BE60184D6D
:1003B0002C684E689C43F60300D51C432C606C6887
:1003C0004E689C43B60300D51C436C60AC684E6815
:1003D0009C43F60202D500E008E01C43AC60EC68E8
:1003E0004E689C43B60200D51C43EC60521C0B685F
:1003F0001C46D44000D06CE7F8BD0000001002405D
:10040000000001400004004800080048000C0048BB
:100410000004014042694A4042617047002A01D00D
:100420008161704781627047014800687047000031
:100430000C00002002480168491C01607047000060
:100440000C00002010B5064801681022114301601D
:10045000002000F007F800F017F8002010BD0000A1
:100460000020024010B5044600F03CF97D21C9008F
:10047000FFF736FE00F012FD00222146501E00F06C
:1004800021F8002010BD000008B50848816901224C
:1004900011438161816911400091C26901040A43DD
:1004A000C261C0690840009008BD00000010024011
:1004B000C106C90E0120884001490860704700004C
:1004C00000E100E010B501F039F910BDF8B50446BF
:1004D0000068364DC00354D5E8690026C00007D433
:1004E000E86929040843E861E869084001260090AA
:1004F0002F480168C90511D4014608688A151043C0
:100500000860FFF791FF074604E0FFF78DFFC01B6F
:10051000642823D826480068C005F6D5286A032138
:10052000090208401FD062680A4082421BD0286A34
:100530002A6A8843012109040A432A622A6A8A43F3
:100540002A622862C0070ED0FFF76EFF074607E059
:10055000FFF76AFFC11B1748814201D90320F8BD8C
:10056000286A8007F4D5286A032109028843616854
:1005700008432862002E04D0E86901210907884356
:10058000E8612078C00705D0286BA168800880004A
:10059000084328632078800605D5286B10218843FE
:1005A000E168084328630020F8BD00000010024005
:1005B0000070004088130000F8B5044644480E4619
:1005C0000068C007C00FB0420AD24148016849081C
:1005D0004900314301600068C007C00FB0425CD1E0
:1005E00020783C4F800705D57868F0218843A168C2
:1005F000084378602078C0073FD06068012813D096
:100600003968022813D08907002946DA79688908F1
:10061000890001437960FFF707FF054660680128FC
:100620000DD0022817D024E039688903ECE789014E
:10063000EAE7FFF7F9FE411B2748814217D878689F
:100640000007800F0128F4D117E0FFF7EDFE411BF2
:10065000214881420BD878680007800F0228F4D126
:100660000BE0FFF7E1FE411B1B48814201D903204B
:10067000F8BD78680007800FF3D115480168C907F5
:10068000C90FB1420BD901684908490031430160E3
:100690000068C007C00FB04201D00120F8BD20782B
:1006A000400706D57868072109028843E1680843B6
:1006B000786000F02DF87968084A0906090F515C46
:1006C000C840074908600020FFF7CCFE0020F8BDB5
:1006D000002002400010024088130000401E000865
:1006E0001000002001480068704700001000002042
:1006F0000448054900684968044A4905490F515CA6
:10070000C84070471000002000100240501E000832
:1007100010B513A00FC888B06C460FC414A00FC842
:100720000FC4174B5A680C20114601401548042984
:100730000FD008290DD19102090F6C46645CD96A6B
:1007400004AB0907090F595CD20304D5FFF7C8FCB5
:10075000604308B010BD0C4920464843F9E700004B
:1007600002030405060708090A0B0C0D0E0F1010F2
:100770000102030405060708090A0B0C0D0E0F10F1
:100780000010024000127A0000093D00FEB5044648
:100790000078D04DC00746D068680007800F012858
:1007A00007D068680007800F022809D16868C00375
:1007B00006D52868800336D5606800287ED032E0F0
:1007C00001216068090401280AD08A00002801D0AC
:1007D00005280FD02868884328602868904301E0E6
:1007E0002868084328606068002810D0FFF71CFEC6
:1007F000064608E0286810432860F1E7FFF714FE7A
:10080000801B64286FD828688003F7D50BE0FFF7BA
:100810000BFE064604E0FFF707FE801B6428F1D8B4
:1008200028688003F7D420780126800700283BDA67
:1008300068680007800F07D068680007800F0228EB
:1008400009D16868C00306D42868800715D5E06818
:10085000012833D111E0E0680028286815D0304322
:100860002860FFF7E1FD074604E0FFF7DDFDC01B50
:100870000228C7D828688007F7D52868F821884358
:100880002169C900084328600EE040084000286044
:10089000FFF7CAFD074604E0FFF7C6FDC01B0228AC
:1008A000B0D828688007F7D42078000724D5E069FD
:1008B0000028686A10D03043686200E007E1FFF763
:1008C000B3FD074604E0FFF7AFFDC01B022899D82F
:1008D000686A8007F7D50FE0400840006862FFF7BC
:1008E000A3FD074605E09DE0FFF79EFDC01B022823
:1008F00088D8686A8007F7D4207804274007002842
:1009000060DA00200190E869C00008D4E969B806FF
:100910000143E961E96901400120009101906E48BD
:100920000168C90511D40168821511430160FFF700
:100930007BFD009005E0FFF777FD0099401A6428E1
:1009400070D865480068C005F5D5A06801280AD0B0
:10095000002801D0052810D0286A400840002862ED
:10096000286AB84301E0286A30432862A06800285A
:1009700012D0FFF759FD00900AE0286A3843286238
:10098000F1E7FFF751FD0099411A5448814249D8D7
:10099000286A8007F5D50DE0FFF746FD009006E0D8
:1009A000FFF742FD0099411A4C4881423AD8286A23
:1009B0008007F5D40198002804D0E96901200007D8
:1009C0008143E9612078C00635D5606901280CD0E3
:1009D000401D686B23D038436863686B4008400053
:1009E0006863FFF721FD064622E0686B38436863C1
:1009F000686B30436863FFF717FD064604E0FFF7B6
:100A000013FD801B02285BD8686B8007F7D5686BE5
:100A1000F8218843A169C900084368630BE0B84323
:100A20006863F4E74CE0FFF7FFFC801B022847D81F
:100A3000686B8007F7D4206A002846D069680907E8
:100A4000890F022943D001273F060228286805D0D4
:100A5000B8432860FFF7E8FC044633E0B843286059
:100A6000FFF7E2FC064604E0FFF7DEFC801B0228ED
:100A700026D828688001F7D4E86AE16A00090001F5
:100A80000843E862616AA06A084369683D2212046B
:100A9000914308436860286838432860FFF7C4FC26
:100AA000044604E0FFF7C0FC001B022808D82868B1
:100AB0008001F7D509E0FFF7B7FC001B022801D938
:100AC0000320FEBD28688001F5D40020FEBD012072
:100AD000FEBD0000001002400070004088130000BE
:100AE00070B5040003D0607F002802D006E001202A
:100AF00070BD00202077204600F04CF8022060777F
:100B00002168CA204862216853204862204600F0CC
:100B10004BFEFF250426002824D1206881681C4A4A
:100B200011408160206881686268636911432269AD
:100B30001A43114381602168E068086120680169F7
:100B400022891204114301612068C1688022914307
:100B5000C16020688068800608D4204600F084F9CF
:100B6000002803D0206845626677C0E72068016CE2
:100B700001229204914301642068016CA26911432F
:100B800001642068456201206077002070BD00008C
:100B9000BFFF8FFF00680549884205D10448016AFC
:100BA0000122D20311430162704700000028004077
:100BB00000100240F8B50446007F0B4601283CD0E7
:100BC000012020770220607720681F46002620370A
:100BD0008068002A33D0400648D5187800F0D1FD4F
:100BE000387800F0CEFD18789D78000405435878D9
:100BF000D97800020904084305433878996900064A
:100C00000543D8690543586905435868084300906F
:100C10002168CA20486221685320486220688168A0
:100C2000FF22013291438160206881681201914363
:100C30008160FFF7F9FB074628E00220F8BD400677
:100C400000D4DE70187800F0A4FD0504587800F098
:100C5000A0FD00020543987800F09BFD0543D8787D
:100C600000040543387800F094FDC7E7DE70B7E76D
:100C7000FFF7DAFBC11B7D20C000814206D9216845
:100C8000FF204862032060772677F8BD2068C0689F
:100C9000C007EDD02068C5612168009848642068CD
:100CA0008168FF220132114381602168FF20486280
:100CB0000120607726770020F8BD0000F8B50446D3
:100CC000007F0B46012823D0012020770220607787
:100CD0005878002A1ED000F054FD987800F051FD9D
:100CE000D8789D78000405435878197800024903A4
:100CF000084305432168CA2048622168532048629E
:100D0000204600F051FD0026FF2700282AD117E0D9
:100D10000220F8BDC10603D5EF2108400A30587003
:100D2000D87800F036FD0504587800F032FD000256
:100D30000543987800F02DFD054318784003D8E767
:100D40000F480540206845602068C16880229143B3
:100D5000C1602068806880060BD4204600F084F8CB
:100D6000002806D02068476204206077267701209B
:100D7000F8BD206847620120607726770020F8BD23
:100D80003FFFFF00F8B50446007F0D4601280ED056
:100D90000120207702206077206800268068002AE2
:100DA00007D0400618D5287800F0EBFC15E00220AB
:100DB000F8BD400600D4EE70287800F0EAFC070485
:100DC000687800F0E6FC00020743A87800F0E1FC38
:100DD0000743E878000409E0EE702878AF78000453
:100DE00007436878E978000209040843074321684B
:100DF000CA204862216853204862204600F0D4FC93
:100E000000281ED1174807402068076020688168C5
:100E10000122920491438160E968286901432068B6
:100E20008268114381602068C16880229143C1605B
:100E30002068806880060CD4204600F015F8002851
:100E400007D02168FF2048620420607726770120C0
:100E5000F8BD2168FF2048620120607726770020D6
:100E6000F8BD00007F7F7F0070B505460068C1684F
:100E7000A0229143C160FFF7D7FA7D260446F60011
:100E800006E0FFF7D1FA001BB04201D9032070BD84
:100E90002868C0688006F4D5002070BD094910B5E7
:100EA000401E884201D9012010BD074C606103211A
:100EB000081F00F043FC0020A061072020610020F3
:100EC00010BD0000FFFFFF0000E000E0704770472A
:100ED00070B502462032137F012B1BD001241477FA
:100EE0000223537703685D687026B5435D6003682D
:100EF0005D680E6835435D6003689D688026B54374
:100F00009D600068836849680B43836054770020C4
:100F1000107770BD022070BD70B5040005D0254665
:100F20002035687F002802D006E0012070BD002037
:100F30002877204600F00AF802206877211D2068F3
:100F400000F0C8FC01206877002070BD08B500687B
:100F5000124A134990420DD18A69C01402438A6132
:100F6000896900220140009111460D20FFF7AAFA7D
:100F70000D200FE00B4A90420ED1CA6902200243B5
:100F8000CA61C96900220140009111461020FFF793
:100F900099FA1020FFF78CFA08BD0000002C0140E0
:100FA00000100240000400400168CA6801231A438F
:100FB000CA60006801681943016000207047F8B5F5
:100FC000054604462035287F012817D001272F77B2
:100FD00002206877206882687726FF23B2431B02CD
:100FE0009A4382600868502836D00EDC202856D0FC
:100FF00006DC00284DD010283FD14DE00220F8BD7E
:1010000030284FD0402838D13BE060282CD07028C1
:1010100016D001221203801A0DD090422DD1CB6838
:101020004A688968206800F093FC20688168012282
:10103000920311430EE020688168C908C90009E0E5
:10104000CB684A688968206800F082FC2068816863
:10105000B1433143816010E0CA684968206800F0FC
:101060008AFC5021206806E0CA684968206800F0C0
:1010700093FC6021206800F076FC6F7700202877D1
:10108000F8BDCA684968206800F075FC40212068F6
:10109000F1E700212068EEE710212068EBE720212E
:1010A0002068E8E730212068E5E7704770B504461E
:1010B000006801690025C9438907002915DBC1685B
:1010C000C943890711D4E91E0161012020772068F6
:1010D00080698007204602D0FFF7E7FF04E000F0B8
:1010E00096F8204600F094F8257720680169C943F6
:1010F000490717D4C168C943490713D40421C94318
:10110000016102202077206880698005800F2046D9
:1011100002D0FFF7CAFF04E000F079F8204600F0A3
:1011200077F8257720680169C943090716D4C16893
:10113000C943090712D40821C9430161042020775B
:101140002068C0698007204602D0FFF7AEFF04E0A8
:1011500000F05DF8204600F05BF825772068016913
:10116000C943C90617D4C168C943C90613D410219D
:10117000C9430161082020772068C0698005800F7D
:10118000204602D0FFF791FF04E000F040F820462F
:1011900000F03EF8257720680169C943C90708D1E6
:1011A000C168C943C90704D1891E0161204600F006
:1011B00031F820680169C943090609D4C168C943E7
:1011C000090605D48021C94301612046FFF77EFE50
:1011D00020680169C943490609D4C168C943490661
:1011E00005D44021C9430161204600F01FF8206862
:1011F0000169C943890609D4C168C943890605D470
:101200002021C94301612046FFF761FE70BD704790
:10121000704700000349884202D103490120486019
:1012200070470000D800002004000020704770477D
:10123000F8B502680446D069116805072D0F07D17B
:10124000830605D58B0603D5204600F04CFCF8BD7F
:101250009368002D64D0DD07ED0FFF2621360E4088
:101260002E435DD0C60706D0CE0504D501261662F2
:10127000E26E3243E266860702220427002E06DA77
:10128000DE0704D026683262E66E3E43E666460715
:1012900006D5DB0704D023681F62E36E1343E366C1
:1012A000020709D520220A402A4305D023680822D4
:1012B0001A62E36E1343E366E26E002AC7D080062B
:1012C00004D5880602D5204600F00DFCE06E00072C
:1012D00003D42068806840061CD5204600F0E7FB58
:1012E00020688168490611D5816840229143816058
:1012F000606E00280AD012494163606EFEF7B4FFA9
:101300000028A4D0606E416B8847F8BD2046FFF7E7
:101310008EFFF8BD2046FFF78AFF0020E066F8BD8B
:10132000020605D50A0603D5204600F0A5FCF8BD47
:101330004006FCD54806FAD5204600F0C7FBF8BDAC
:101340009B1A000870B5040005D025466035687A00
:10135000002802D006E0012070BD0020287220463F
:1013600000F026F8242068722068016849084900C6
:101370000160204600F0F6FB0128EDD0606A0028ED
:1013800002D0204600F01BFB206841680122D202F7
:101390009143416020688168082291438160206800
:1013A0000168012211430160204600F06DFB70BD11
:1013B00010B586B0044614216846FEF7C0FE1749F2
:1013C0002068884227D116488269012189030A438F
:1013D000826182690A4005924269C9000A434261FA
:1013E00040690840059003204002009002200190CF
:1013F00000200290032003900120049009206946F8
:10140000C006FEF763FF002211461B20FFF75AF8C3
:101410001B20FFF74DF806B010BD0000003801405A
:10142000001002400A4910B5884210D10221094833
:10143000FEF7F0FF09208021C006FEF7EBFF06480B
:1014400001780648FEF7AFFE05490120087010BD7F
:1014500018010020000400480100002014000020B2
:101460000400002070470000BFF34F8F0449034879
:10147000C860BFF34F8F00BFFDE700000400FA050E
:1014800000ED00E010B50948074901600021017135
:1014900041714161816101210162FEF7A5FE0028D1
:1014A00001D0FEF79EFE10BD003002405400002027
:1014B000F0B587B014216846FEF741FE294842691D
:1014C000012189050A43426142690A400592426945
:1014D00049110A43426142690A4005924269490042
:1014E0000A43426140690022084005900920AF216B
:1014F000C006FEF793FF012202211B48FEF78EFF74
:101500000226032700246946184801970096029492
:10151000FEF7DCFEAF200090012509200294694609
:1015200001950394C006FEF7D1FE1020009009201B
:10153000019469460294C006FEF7C8FE4020009060
:101540000920694601970294C006FEF7BFFE029487
:1015500069460548009601950394FEF7B7FE07B06B
:10156000F0BD0000001002400004004800140048D4
:1015700030B591B014216846FEF7E1FD0024282122
:1015800006A80594FEF7DBFD2449254812C07F21FB
:1015900001608460C460FF21046141600838FFF786
:1015A0009FFA002801D0FEF71CFE684604704470C4
:1015B000847003940122694619480494FFF7E2FB02
:1015C000002801D0FEF70DFE01256846057545751A
:1015D0008575C4752A4605A91148FFF76FFB0028D9
:1015E00001D0FEF7FEFD68460476447684760794C3
:1015F00009940A940B940C9408A80D940576FF2086
:1016000001300F90012206A90548FFF7D3FA002800
:1016100001D0FEF7E6FD11B030BD0000002800400B
:101620007800002010B586B000240094174801947B
:10163000029403940494144905940160FF21F43149
:1016400084604160046144611D218461C160FFF7D1
:1016500063FC002801D0FEF7C4FD012000030090C8
:1016600069460A48FFF7ABFC002801D0FEF7B9FD38
:10167000049404A905480594FFF72AFC002801D02A
:10168000FEF7AFFD06B010BD002C01409800002011
:1016900010B586B000240094174801940294039476
:1016A00004941449059401601449846041607D21CB
:1016B000046149018461C160FFF72EFC002801D05C
:1016C000FEF78FFD01200003009069460A48FFF7EE
:1016D00076FC002801D0FEF784FD049404A9064896
:1016E0000594FFF7F5FB002801D0FEF77AFD06B060
:1016F00010BD000000040040D80000204F4600004C
:1017000010B50C480A4901604B21C9014160002114
:101710008160C16001618161C1610C22016242612D
:101720004162FFF70FFE002801D0FEF75AFD10BD01
:101730000038014018010020704700008307FF2295
:10174000DB0E9A408907090E994000280BDA000742
:10175000000F0838830808489B001818C369934392
:101760000B43C3617047830804489B001818036843
:1017700093430B430360704700ED00E000E400E09A
:10178000704701090A2200075143000F4018C0B2F8
:101790007047002102E00A38C0B2491C0A28FAD278
:1017A0000907090E0843704770B505460068C1680F
:1017B000490613D40021C943C160FEF735FE7D26DA
:1017C0000446F60006E0FEF72FFE001BB04201D9EA
:1017D000032070BD2868C0684006F4D5002070BDA5
:1017E000704710B5FEF726FE10BD000030B595B06D
:1017F00030216846FEF7A3FC00240F940A200090D5
:101800000D9401200C9412941194039007900E945F
:1018100007201394800410941021022509940A9043
:10182000089504910B946846FEF7B0FF07200C90D2
:101830000E9401210D950F940CA8FEF7BDFE0548EE
:101840001090C0111190129410A8FEF73FFE15B031
:1018500030BD00000100010013480168012211435E
:1018600001604168114A114041600168104A11400D
:1018700001600168012292049143016041683F22A6
:10188000120491434160C16A09090901C162016BF7
:10189000FF22143291430163416B490849004163BF
:1018A0000021816070470000001002400CB8FF0862
:1018B000FFFFF6FE10B50248FFF7F8FB10BD000071
:1018C0009800002010B50248FFF7F0FB10BD0000A3
:1018D000D800002070B50268184C194EA04201D003
:1018E000B04204D1134670254A68AB431A43154BE6
:1018F000154DA04208D0B04206D0144EB04203D0DD
:10190000984201D0A84204D103263602B243CE68E1
:1019100032438026B2434E69324302608A68C26213
:101920000A688262A04203D0984201D0A84201D145
:10193000096901630121416170BD0000002C014073
:1019400000040040004401400048014000200040E5
:1019500030B58468FF252D021B021343AC430B43B3
:101960002343836030BD826870239A430A43072172
:101970000A438260704730B5036A046A64086400F1
:1019800004628469F025AC43120122430A24A34374
:101990000B438261036230BD30B5036A1024A34358
:1019A00003628369046A0F252D031203AB431A43B4
:1019B000A0239C43090121438261016230BD10B51F
:1019C000818CC90707D001684A6801235B049A43E8
:1019D000836A1A434A60818C890707D501684A687F
:1019E00001231B049A43C36A1A434A60818C490746
:1019F00007D501684A6801239B049A43036B1A4385
:101A00004A60818C090707D501684A680123DB0316
:101A10009A43436B1A434A60818CC90607D5016813
:101A20008A6801231B039A43836B1A438A60818C63
:101A3000890607D501688A6801235B039A43C36B53
:101A40001A438A60818C490612D501684B680122CD
:101A50001205046C934323434B60016C914207D100
:101A600001684A6803235B059A43436C1A434A6042
:101A7000818C090607D501684A680123DB04806C64
:101A80009A4302434A6010BD0022C26620216030A2
:101A90004172817202721046704710B5406A00228E
:101AA000014640314A834A82FFF7C1FB10BD0168FD
:101AB0000A68FF2321339A430A6001688A68520842
:101AC00052008A60202160308172704710B5016831
:101AD0000A6840239A430A60202269210A54FFF7CA
:101AE000C1FC002010BD70B5024640320146603195
:101AF000938B8D7A0C460168222D05D088690822C7
:101B000010438861022070BD898C012685683603E8
:101B1000B54202D10569002D0BD01940436D5D1C03
:101B200045651970518B491E0904090C518307D072
:101B300015E0456D19402980416D891C4165F1E72B
:101B400001680A68FF2321339A430A6001688A68A2
:101B5000520852008A602021A172FFF763FC002026
:101B600070BD0000F8B50446A3682269E669134316
:101B7000626910210020324313432268054616682B
:101B8000394F3E401E4316602268536803263603D1
:101B9000B343E66833435360A369226A1343226860
:101BA00096680B273F02BE431E4396602F4A126B76
:101BB0009207920F06D0012A08D0022A08D0032AE1
:101BC00007D101E0002104E0022102E0042100E04D
:101BD00008210122E369D203934224D100290CD0C9
:101BE00002290DD0042913D0082917D00125010995
:101BF00009010007400F084332E0FEF779FD09E0D4
:101C000061681B4A48088018FEF76AFA80B2EEE75E
:101C1000FEF77EFD616840004A08F4E76168012232
:101C200048081204EFE7002908D0022909D0042946
:101C30000BD008290ED001252846F8BDFEF758FD27
:101C400005E061680B4A480806E0FEF761FD61683F
:101C50004A0801E0616848088018FEF741FA80B23E
:101C60002168C860E8E70000F369FFFF0010024048
:101C70000024F40000127A006921095C212901D0B6
:101C800002207047014640314A8A002A12D00123BF
:101C900082681B039A4202D10269002A15D0C26CE5
:101CA000531CC364006812780285488A401E48822B
:101CB0000020704701680A6880239A430A60006820
:101CC0000168402211430160F2E7C26C0368128888
:101CD000D205D20D1A85C26C921CC264E5E70000E1
:101CE00010B50248FFF7A4FA10BD0000180100204B
:101CF00002E008C8121F08C1002AFAD170477047D5
:101D0000002001E001C1121F002AFBD1704708B575
:101D10000090411E009101D30846FAE708BD00007B
:101D2000394988B000204860384908703848FEF7C3
:101D300023FAFEF787FBFFF759FDFFF7B9FBFFF723
:101D4000DFFCFFF76FFCFFF7A3FCFFF79BFBFFF740
:101D50000FFC3048FFF728F92F48FFF725F9092431
:101D6000E406012280212046FEF758FB2B4E00227C
:101D700002213046FEF752FB012204212046FEF7E5
:101D80004DFB7D20C000FEF793FA00220221204681
:101D9000FEF744FB002220212046FEF73FFB0122F4
:101DA00080212046FEF73AFB002202213046FEF752
:101DB00035FB002501241C2219A16846FEF7A6F96F
:101DC00064270122022130466D1CFEF727FB2046C6
:101DD000FFF79DFF002202213046FEF71FFB381B54
:101DE000FFF795FF1548854201DB0025641C642C34
:101DF000E7DB0024224602213046FEF70FFB7D2060
:101E00004001FEF755FADCE7040000200000002046
:101E10001400002098000020D80000200004004892
:101E20000C3202770000000100ECF3818B32027764
:101E30000000000100ECF3810E0E0000881300008A
:101E4000000000000000000001020304060708096A
:101E50000000000001020304781E000800000020BA
:101E600014000000F01C00088C1E00081400002064
:101E700074050000001D00080000000000000000C4
:0C1E8000000000000000000000127A00CA
:04000005080000B13E
:00000001FF
