:020000040800F2
:1000000038090020C5000008F5120008E7100008B4
:1000100000000000000000000000000000000000E0
:100020000000000000000000000000003F13000876
:1000300000000000000000003D130008411300080C
:10004000D700000800000000D7000008D700000813
:10005000D7000008D7000008D7000008D700000824
:1000600000000000D7000008D7000008D7000008F3
:10007000D700000801140008D700000800000000A5
:10008000111400080000000000000000D700000864
:1000900000000000D7000008D7000008D7000008C3
:1000A00000000000D700000800000000251800082C
:1000B0000348854600F03CF8004800475518000802
:1000C000380900200448804704480047FEE7FEE75F
:1000D000FEE7FEE7FEE7FEE7A5130008B100000813
:1000E00030B50B46014600202022012409E00D46D0
:1000F000D5409D4205D31D469540491B2546954058
:1001000040191546521E002DF1DC30BDD2B201E07F
:100110000270401C491EFBD270470022F6E710B562
:1001200013460A4604461946FFF7F0FF204610BD65
:10013000064C0125064E05E0E36807CC2B430C3C3A
:1001400098471034B442F7D3FFF7B6FF54190008AC
:100150007419000870470020704710B504000DD0D6
:10016000607F002803D12077204600F025F8022088
:1001700060772046FFF7EFFF002801D0012010BD77
:100180006079002814D02069216808612168886896
:1001900060229043626910438860216888688022E9
:1001A0009043A2691043886001206077002010BD51
:1001B0000020C043E8E7000008B500680549884210
:1001C00007D10548426940210A434261406908401D
:1001D000009008BD003002400010024070B50024BD
:1001E000014620314A78022A03D004218163012488
:1001F00016E0026813680E25AB43136002681368AB
:100200005B085B0013600122056C1346AB40C56BB5
:100210006B604A7000220A70416B002900D0884749
:10022000204670BDF8B500238DE001249C40A44613
:1002300022407DD04C68022C01D0122C0CD1DC085D
:10024000A40027183C6A5D07ED0E0F26AE40B443AC
:100250000E69AE4026433E6205685E000324B4404A
:100260000F79A543BF07BF0FB7402F4307604D6805
:10027000012D05D0022D03D0112D01D0122D0ED14C
:100280008568CF68A543B7402F43876047686546B8
:10029000AF430D79ED06ED0F9D403D434560C568C8
:1002A000A5438C68B4402C43C4604C68E40049D535
:1002B000284CA56901263543A561A4699D083440F1
:1002C0000094254CAD002F19BC689D072E0F0F25FB
:1002D000B540AC430925ED06A84201D100250FE049
:1002E0001E4DA84201D101250AE01D4DA84201D1B1
:1002F000022505E01B4DA84201D1032500E005259C
:10030000B5402543BD60184C25684E689543F603FB
:1003100000D51543256065684E689543B60300D542
:1003200015436560A5684E689543F60202D500E066
:1003300008E01543A560E5684E689543B60200D510
:100340001543E5605B1C0A681446DC4000D06CE78E
:10035000F8BD000000100240000001400004004809
:1003600000080048000C00480004014042694A406F
:1003700042617047002A01D08161704781627047F5
:10038000014800687047000018000020024801681A
:10039000491C0160704700001800002010B5064895
:1003A0000168102211430160002000F007F800F0FE
:1003B00017F8002010BD00000020024010B50446D0
:1003C00000F03AF97D21C900FFF78AFE00F030FB0A
:1003D00000222146501E00F021F8002010BD000030
:1003E00008B5084881690122114381618169114082
:1003F0000091C26901040A43C261C06908400090CB
:1004000008BD000000100240C106C90E012088404E
:10041000014908607047000000E100E010B500F0FD
:100420006BFF10BDF8B505460068354CC00352D5CA
:10043000E0690026C00007D4E16920040143E161BE
:10044000E1690140012600912E480168C90510D4D8
:100450000168821511430160FFF792FF074604E02F
:10046000FFF78EFFC01B642824D826480068C0050B
:10047000F6D5206A03273F02384020D0696839400A
:1004800081421CD0206A226AB843012109040A4330
:100490002262226A8A4322622062C0070FD0FFF7DD
:1004A0006FFF009008E0FFF76BFF0099411A1648B4
:1004B000814201D90320F8BD206A8007F3D5206A64
:1004C0006968B84308432062002E04D0E169012026
:1004D00000078143E1612878C00705D0206BA96837
:1004E00080088000084320632878800605D5206BAB
:1004F00010218843E968084320630020F8BD00000C
:10050000001002400070004088130000F8B5054656
:1005100044480E460068C007C00FB0420AD24148A6
:10052000016849084900314301600068C007C00FF5
:10053000B0425CD128783C4C800705D56068F0213A
:100540008843A968084360602878C0073FD068687E
:10055000012813D02168022813D08907002946DA20
:1005600061688908890001436160FFF709FF6968D4
:10057000074601290DD0022917D024E021688903FC
:10058000ECE78901EAE7FFF7FBFEC11B2748814240
:1005900017D860680007800F0128F4D117E0FFF733
:1005A000EFFEC11B214881420BD860680007800F15
:1005B0000228F4D10BE0FFF7E3FEC11B1B48814288
:1005C00001D90320F8BD60680007800FF3D11548FA
:1005D0000168C907C90FB1420BD901684908490030
:1005E000314301600068C007C00FB04201D0012054
:1005F000F8BD2878400706D56068072109028843BE
:10060000E9680843606000F02DF86168084A09064F
:10061000090F515CC840074908600020FFF7CEFE73
:100620000020F8BD002002400010024088130000A6
:100630003C1900081C0000200148006870470000B9
:100640001C0000200448054900684968044A49051F
:10065000490F515CC84070471C0000200010024048
:100660004C19000810B512A30FCB88B06C460FC40C
:1006700013A30FCB0FC416494A680C20134603403E
:100680001448042B0FD0082B0DD193021B0F6C467E
:10069000E45CC96A04AB0907090F595CD20304D5AD
:1006A000FFF71EFD604308B010BD0B486043FAE73A
:1006B00002030405060708090A0B0C0D0E0F1010A3
:1006C0000102030405060708090A0B0C0D0E0F10A2
:1006D0000010024000127A0000093D00FEB50446F9
:1006E0000078D04DC00747D068680007800F012808
:1006F00007D068680007800F022809D16868C00326
:1007000006D52868800337D5606800287ED033E09E
:10071000012062680004012A11D08100002A01D062
:10072000052A10D02A6882432A60286888432860F6
:100730006068002814D0FFF723FE06460CE0296805
:1007400001432960F4E72A680A432A60F7E7FFF7C4
:1007500017FE801B64286FD828688003F7D50BE04C
:10076000FFF70EFE064604E0FFF70AFE801B642832
:10077000F1D828688003F7D4207801268007002864
:100780003BDA68680007800F07D068680007800FB1
:10079000022809D16868C00306D42868800715D5E7
:1007A000E068012832D111E0E0680028286815D0FF
:1007B00030432860FFF7E4FD074604E0FFF7E0FD63
:1007C000C01B0228C7D828688007F7D52868F821F9
:1007D00088432169C900084328600EE040084000B2
:1007E0002860FFF7CDFD074604E0FFF7C9FDC01BF9
:1007F0000228B0D828688007F7D42078000724D5CD
:10080000E0690028686A10D0304300E008E16862BF
:10081000FFF7B6FD074604E0FFF7B2FDC01B022854
:1008200099D8686A8007F7D50FE0400840006862F1
:10083000FFF7A6FD074605E09DE0FFF7A1FDC01B01
:10084000022888D8686A8007F7D4207804274007F0
:10085000002860DA00200190E869C00008D4E96946
:10086000B8060143E961E969014001200091019066
:100870006D480168C90511D40168821511430160F2
:10088000FFF77EFD009005E0FFF77AFD0099401A22
:10089000642870D864480068C005F5D5A0680128B0
:1008A0000AD0002801D0052810D0286A400840004E
:1008B0002862286AB84301E0286A30432862A068A9
:1008C000002812D0FFF75CFD00900AE0286A384348
:1008D0002862F1E7FFF754FD0099411A534881421D
:1008E00049D8286A8007F5D50DE0FFF749FD00904B
:1008F00006E0FFF745FD0099411A4C4881423AD87D
:10090000286A8007F5D40198002804D0E9690120FD
:1009100000078143E9612078C00635D56069012868
:100920000CD0401D686B23D038436863686B400867
:1009300040006863FFF724FD064622E0686B3843F9
:100940006863686B30436863FFF71AFD064604E08E
:10095000FFF716FD801B02285BD8686B8007F7D570
:10096000686BF8218843A169C900084368630BE0FC
:10097000B8436863F4E74CE0FFF702FD801B0228F0
:1009800047D8686B8007F7D4206A002846D069688A
:100990000907890F022943D0012636060228286854
:1009A00005D0B0432860FFF7EBFC044633E0B043CA
:1009B0002860FFF7E5FC074604E0FFF7E1FCC01BF9
:1009C000022826D828688001F7D4E86AE16A00097D
:1009D00000010843E862616AA06A084369683D2231
:1009E0001204914308436860286830432860FFF789
:1009F000C7FC044604E0FFF7C3FC001B022808D82C
:100A000028688001F7D509E0FFF7BAFC001B02282F
:100A100001D90320FEBD28688001F5D40020FEBD69
:100A20000120FEBD0010024000700040881300004D
:100A3000094910B5401E884201D9012010BD074C5C
:100A400060610321081F00F057FC0020A06107200F
:100A50002061002010BD0000FFFFFF0000E000E06B
:100A60007047704770B502462032137F012B1BD0B0
:100A70000123137702245477046865687026B54310
:100A80006560046865680E68354365600468A5683C
:100A90008026B543A5600068846849680C4384607B
:100AA00053770020107770BD022070BD70B5040030
:100AB00005D025462035687F002802D006E00120B9
:100AC00070BD00202877204600F00AF802206877E1
:100AD000211D206800F0A4FC01206877002070BD73
:100AE00008B5134A0168134891420DD18269C114B7
:100AF0000A438261806900220840009011460D205F
:100B0000FFF78CFC0D200FE00B4A91420ED1C26919
:100B100002210A43C261C0690022084000901146C8
:100B20001020FFF77BFC1020FFF76EFC08BD0000D3
:100B3000002C014000100240000400400268D3680D
:100B400001210B43D360006802680A430260002061
:100B50007047F8B5054604462035287F012817D090
:100B600001272F7702206877226890687726FF2375
:100B7000B0431B02984390600868502837D00EDCC1
:100B8000202857D006DC00284ED0102840D14EE057
:100B90000220F8BD302850D0402839D13CE06028F0
:100BA0002DD0702817D001221203801A0ED0904247
:100BB0002ED1CB684A688968206800F06DFC2068F7
:100BC0008168012292031143816021E020688168DD
:100BD000C908C900F8E7CB684A688968206800F04E
:100BE0005BFC21688868B0433043886010E0CA68C5
:100BF0004968206800F063FC5021206806E0CA685C
:100C00004968206800F06CFC6021206800F04FFC0F
:100C10006F7700202877F8BDCA684968206800F01F
:100C20004EFC40212068F1E700212068EEE710210A
:100C30002068EBE720212068E8E730212068E5E71D
:100C4000704770B50446006801690025C9438907EB
:100C5000002915DBC168C943890711D4E91E016168
:100C600001202077206880698007204602D0FFF7A6
:100C7000E7FF04E000F096F8204600F094F82577AE
:100C800020680169C943490717D4C168C9434907A6
:100C900013D40421C94301610220207720688069B0
:100CA0008005800F204602D0FFF7CAFF04E000F065
:100CB00079F8204600F077F8257720680169C94364
:100CC000090716D4C168C943090712D40821C943CA
:100CD0000161042020772068C0698007204602D087
:100CE000FFF7AEFF04E000F05DF8204600F05BF88F
:100CF000257720680169C943C90617D4C168C9436B
:100D0000C90613D41021C943016108202077206847
:100D1000C0698005800F204602D0FFF791FF04E0F4
:100D200000F040F8204600F03EF825772068016981
:100D3000C943C90708D1C168C943C90704D1891E7D
:100D40000161204600F030F820680169C9430906B6
:100D500009D4C168C943090605D48021C94301618A
:100D60002046FFF77DFE20680169C943490609D482
:100D7000C168C943490605D44021C94301612046E1
:100D800000F04AF820680169C943890609D4C1689E
:100D9000C943890605D42021C94301612046FFF7D4
:100DA00060FE70BD7047704770B51849184C884296
:100DB00001D10121A160174988420ED1A068012804
:100DC0000BD1A1780920C006222907D30025A570E0
:100DD0002A460821FFF7CEFAA56070BDCA0706D0E3
:100DE0000821FFF7C3FAA078401CA07070BD490825
:100DF0001022521A6168D140C90701D0012200E0D7
:100E000000220821FFF7B6FAEDE700008404002075
:100E1000000000204404002070477047F8B50368C4
:100E20000446D96918680D072D0F07D18A0605D524
:100E3000820603D5204600F0FAFBF8BD9A68002D23
:100E400064D0D507ED0FFF26213606402E435DD036
:100E5000CE0706D0C60504D501261E62E36E3343D5
:100E6000E3668F0702230426002F06DAD70704D093
:100E700027683B62E76E3743E7664F0706D5D20720
:100E800004D022681662E26E1A43E2660A0709D5A8
:100E9000202202402A4305D0236808221A62E36E0A
:100EA0001343E366E26E002AC7D0890604D58006A4
:100EB00002D5204600F0BBFBE06E000703D420689B
:100EC000806840061CD5204600F095FB20688168AC
:100ED000490611D58168402291438160606E0028E7
:100EE0000AD012494163606EFFF778F90028A4D058
:100EF000606E416B8847F8BD2046FFF78EFFF8BD56
:100F00002046FFF78AFF0020E066F8BD0A0605D5F7
:100F1000020603D5204600F051FCF8BD4906FCD579
:100F20004006FAD5204600F075FBF8BDE315000831
:100F300070B5040005D025466035687A002802D0D7
:100F400006E0012070BD00202872204600F026F83F
:100F50002420687220680168490849000160204621
:100F600000F0A2FB0128EDD0606A002802D02046E4
:100F700000F0C9FA206841680122D2029143416021
:100F800020688168082291438160206801680122FD
:100F900011430160204600F01BFB70BD10B586B008
:100FA000044614216846FFF7B8F8174920688842BC
:100FB00027D116488269012189030A438261826927
:100FC0000A4005924269C9000A43426140690840EB
:100FD0000590032040020090022001900020029022
:100FE000032003900120049009206946C006FFF702
:100FF00019F9002211461B20FFF710FA1B20FFF7FA
:1010000003FA06B010BD0000003801400010024095
:1010100070B5034660339C7A202C39D100290BD05F
:10102000002A09D0012584682D03AC4206D1066947
:10103000002E03D1CE0701D0012070BD1E7A012EF3
:1010400026D001261E724165014640310A834A833B
:10105000FF22AC4204D10469002C07D10D4A05E0FF
:10106000002C04D10469002C00D07F228A83002147
:10107000C16622229A72197201688A6832438A60B4
:1010800000680168FF22213211430160002070BD19
:10109000022070BDFF0100000F4988421AD10F489D
:1010A000012241699202491C4161914201D3511AC6
:1010B00041610369994201D15B1C0361994201D3EB
:1010C000CA1A01E0D21A5218C260054B42785A542B
:1010D0000121017070470000C404002000000020BE
:1010E000200000207047FEE710B50D480B49016055
:1010F0000021017141714161816101210162FFF7AC
:101100002CF8002801D0FFF725F80548FFF723F851
:10111000002801D0FFF71EF810BD0000003002408B
:1011200020040020F0B587B014216846FEF7F5FFD3
:1011300028484269012189050A43426142690A40FF
:101140000592426949110A43426142690A40059287
:10115000426949000A434261406909260840F6068F
:10116000059000220C213046FFF704F91A4F0122A6
:1011700002213846FFF7FEF8032500240095694652
:10118000164801950294FFF74DF8E3200090694658
:10119000019502943046FFF745F80C200125009098
:1011A00002946946019503943046FFF73BF81020FE
:1011B00000900194694602943046FFF733F802200C
:1011C000009002946946019503943846FFF72AF887
:1011D00007B0F0BD001002400004004800140048B1
:1011E00010B586B00024009417480194029403942B
:1011F0000494144905940160FF21F4318460416036
:10120000046144611D218461C160FFF74FFC002827
:1012100001D0FEF79FFF01200003009069460A48B5
:10122000FFF797FC002801D0FEF794FF049404A96F
:1012300005480594FFF716FC002801D0FEF78AFF49
:1012400006B010BD002C01404404002010B586B04B
:1012500000240094174801940294039404941449C0
:10126000059401601449846041607D210461490155
:101270008461C160FFF71AFC002801D0FEF76AFF05
:1012800001200003009069460A48FFF762FC00282D
:1012900001D0FEF75FFF049404A906480594FFF708
:1012A000E1FB002801D0FEF755FF06B010BD00009D
:1012B00000040040840400204F46000010B50C4894
:1012C0000A4901604B21C901416000218160C16070
:1012D00001618161C1610C22016242614162FFF7DB
:1012E00027FE002801D0FEF735FF10BD0038014071
:1012F000C4040020704700008307FF22DB0E9A40E1
:101300008907090E994000280BDA0007000F0838FA
:10131000830808489B001818C36993430B43C361B3
:101320007047830804489B001B18186890430843C3
:101330001860704700ED00E000E400E0704770477F
:1013400010B5FFF723F810BD70B594B03021684692
:10135000FEF7E3FE00240E94139410200994022556
:1013600004900D940F940720129401260095800498
:101370000C94109403960A90119408950B94684667
:10138000FFF7ACF907200C900E9401210D950F94F6
:101390000CA8FFF7BBF810A810961294FFF742F8BC
:1013A00014B070BD13480168012211430160416807
:1013B000114A114041600168104A11400160016802
:1013C000012292049143016041683F22120491433B
:1013D0004160C16A09090901C162016BFF2214322F
:1013E00091430163416B49084900416300218160D9
:1013F00070470000001002400CB8FF08FFFFF6FE27
:1014000010B50248FFF71DFC10BD00004404002089
:1014100010B50248FFF715FC10BD00008404002041
:1014200070B50268174B184E984201D0B04203D1F4
:101430007024A2434C682243144C154D984208D0A6
:10144000B04206D0134EB04203D0A04201D0A84211
:1014500004D103263602B243CE6832438026B2431B
:101460004E69324302608A68C2620A6882629842A8
:1014700003D0A04201D0A84201D109690163012132
:10148000416170BD002C0140000400400044014057
:10149000004801400020004030B58468FF252D023F
:1014A0001B021343AC430B432343836030BD82686C
:1014B00070239A430A4307210A438260704730B57C
:1014C000036A046A6408640004628469F025AC431A
:1014D000120122430A24A3430B438261036230BDFD
:1014E00030B5036A1024A34303628469036A0F259D
:1014F0002D031203AC432243A024A3430901194343
:101500008261016230BD10B5818CC90707D00168C6
:101510004A6801235B049A43836A1A434A60818CB8
:10152000890707D501684A6801231B049A43C36AE7
:101530001A434A60818C490707D501684A6801232C
:101540009B049A43036B1A434A60818C090707D5B1
:1015500001684A680123DB039A43436B1A434A60DC
:10156000818CC90607D50268916801231B03994342
:10157000836B19439160818C890607D501688A685D
:1015800001235B039A43C36B1A438A60818C49062B
:1015900012D503685A6801210905046C8A43224365
:1015A0005A60026C8A4207D10268516803235B05C6
:1015B0009943436C19435160818C090607D5016832
:1015C0004A680123DB04806C9A4302434A6010BDE1
:1015D0000021C16620226030427282720172084688
:1015E000704710B5406A0022014640314A834A8262
:1015F000FFF713FC10BD01680A68FF2321339A43EB
:101600000A6001688A68520852008A6020216030AE
:101610008172704710B501680A6840239A430A60D6
:10162000202269210A54FFF75DFD002010BD70B52E
:101630000246403203466033948B9D7A0168222D26
:1016400005D08869082210438861022070BD898C0A
:10165000012685683603B54202D10569002D0BD0FD
:101660002140446D651C45652170518B491E09045C
:10167000090C518307D015E0456D21402980416D4B
:10168000891C4165F1E701680A68FF242134A243FF
:101690000A6001688A68520852008A6020219972A3
:1016A000FFF7FAFC002070BDF8B504462369A26874
:1016B000E6691A43636910213343002026681A4300
:1016C00033680546394F3B401343336023685A68FB
:1016D00003263603B243E66832435A60236AA2699E
:1016E00026681A43B3680B273F02BB431343B3601A
:1016F0002F4A126B9207920F06D0012A08D0022AB5
:1017000008D0032A07D101E0002104E0022102E011
:10171000042100E008210122E369D203934224D18D
:1017200000290CD002290DD0042913D0082917D084
:101730000125010909010007400F084332E0FEF7C7
:1017400081FF09E061681B4A48088018FEF7C8FC61
:1017500080B2EEE7FEF786FF616840004A08F4E7D2
:101760006168012248081204EFE7002908D0022925
:1017700009D004290BD008290ED001252846F8BD30
:10178000FEF760FF05E061680B4A480806E0FEF7D7
:1017900069FF61684A0801E0616848088018FEF73F
:1017A0009FFC80B22168C860E8E70000F369FFFF92
:1017B000001002400024F40000127A006921095C44
:1017C000212901D00220704702464032518A002967
:1017D00012D0012381681B03994202D101690029BB
:1017E00015D0C16C4B1CC364006809780185508A10
:1017F000401E50820020704701680A6880239A4387
:101800000A6000680168402211430160F2E7C16C80
:1018100003680988C905C90D1985C16C891CC16493
:10182000E5E7000010B50248FFF7F8FA10BD000028
:10183000C404002002E008C8121F08C1002AFAD11F
:1018400070477047002001E001C1121F002AFBD140
:1018500070470000334D002028616861A860A870BF
:10186000FEF79CFDFFF770FDFFF75CFCFFF726FD20
:10187000FFF7B6FCFFF7EAFCFFF736FC2A48FFF754
:101880005DF92A48FFF75AF9092001220421C00610
:10189000FEF770FD02212648FEF768FD254F2878E7
:1018A000002807D0E86800260D281FD301240C3833
:1018B0002A6913E01B490122491C1F48FFF7A8FBB6
:1018C000EDE71119C9194B78562B05D18B78122BDE
:1018D00002D1CB78542B0CD0641C761C8442F0D9F6
:1018E000286980192861E868801BE860002028705A
:1018F000D5E71019C0190079002811D148790028BE
:101900000ED1887902280BD102210948FEF72EFD5D
:101910002869FF220019C019007A520280186860F5
:101920000D36DDE700000020440400208404002080
:101930000004004820000020C40400200000000033
:10194000000000000102030406070809000000006F
:1019500001020304741900080000002020000000A8
:10196000341800089419000820000020180900000D
:10197000441800080000000001FE01000000000003
:101980000000000000000000000000000000000057
:0419900000127A00C7
:04000005080000B13E
:00000001FF
