:020000040800F2
:1040000030070020C5400008815C00085F570008A9
:1040100000000000000000000000000000000000A0
:1040200000000000000000000000000071600008B7
:104030000000000000000000C95C0008AD6100083D
:10404000D7400008D7400008D74000088B4300083D
:10405000D7400008D7400008D7400008D7400008E4
:1040600000000000D7400008D7400008D7400008F3
:10407000B1410008A9620008B9620008D7400008F1
:10408000C9620008000000000000000099620008FA
:1040900000000000D7400008D7400008D7400008C3
:1040A00000000000D7400008000000007D69000803
:1040B0000348854600F06AF800480047C5690008D3
:1040C000300700200448804704480047FEE7FEE729
:1040D000FEE7FEE7FEE7FEE73D620008B1400008AC
:1040E00030B50B46014600202022012409E00D4690
:1040F000D5409D4205D31D469540491B2546954018
:1041000040191546521E002DF1DC30BD10B5202A95
:1041100004DB0846203AD040002110BD0B46D340B6
:10412000D0402024A21A91400843194610BD0346EE
:104130000B439B0703D009E008C9121F08C0042ADB
:10414000FAD203E00B780370401C491C521EF9D2CE
:104150007047D2B201E00270401C491EFBD270478A
:104160000022F6E710B513460A4604461946FFF743
:10417000F0FF204610BD0321001D401E03781202EF
:104180001A43491EF9D5104670470000064C012518
:10419000064E05E0E36807CC2B430C3C98471034EF
:1041A000B442F7D3FFF788FF2C6B00084C6B000874
:1041B00010B5024800F0ECF910BD000070010020BD
:1041C000F7B5002416460546570809E00198A100F6
:1041D0000818FFF7D0FF1021C84129680860641C47
:1041E000A742F3D8F00704D00198A100405A2968EB
:1041F000088028680068FEBDFEB5054600249008CA
:1042000016460F4601900EE0A000C0190090FFF77F
:10421000B2FF00BA010A00980902C0780143286879
:1042200001600198641CA042EED8B00721D0B0070D
:10423000800F012803D1A1002A68795C117002283F
:1042400008D1A000C11948780978000208432968FC
:1042500040BA0880F04380070BD1A000C019417814
:104260000278090211432A6849BA118029688078C6
:10427000087028680068FEBD30B5C36C934201D257
:10428000012030BD01230CE0846C9C4201D3E41A70
:1042900002E0056CE4182C1BD51A045D5B1C4C5520
:1042A0009BB29342F0D9002030BDC06C80B2704701
:1042B0000022C26442644021826401641146425477
:1042C000491C89B24029FAD300207047826C416CA6
:1042D000914202D1C06C002801D00020704701201B
:1042E0007047C16C006C401E814201D200207047B3
:1042F0000120704700B50B460246FFF7F2FF01466A
:104300000020002907D0516C3F2902D0491C51647C
:1043100004E0506402E0D16C491CD164916C5354A8
:10432000916C3F2903D0491C9164002000BD90642A
:10433000FBE770B50646C06C0D46A84201D20120CD
:1043400070BD002406E0304600F008F80128F7D0E0
:10435000641CA4B2AC42F6D3002070BD00B5034685
:10436000FFF7B4FF002801D0012000BDD86C401E2B
:10437000D864986C002805D0401E9864996C002081
:10438000585400BD3F20F8E7704710B500F0FEFA22
:1043900010BD0000064A0021D16106490A690223C6
:1043A0001A430A6148610869402210430861704756
:1043B000100300200020024010B5054B0022DA61F6
:1043C000044A1369012423431361018010BD0000D6
:1043D000100300200020024010B50B4A0020D168D5
:1043E000CB060A4904D5C86902231843C8611020C6
:1043F000D3685B0705D5CB6901242343CB61042136
:104400000843D06010BD00000020024010030020CF
:1044100070B5054600F046FC0646104C0AE0681CE4
:1044200008D0002D04D000F03DFC801BA84201D92B
:10443000032070BDE068C007F1D1E068800601D5B7
:104440002020E060E068C00602D4E068400703D5A1
:10445000FFF7C2FF012070BD002070BD00200240A8
:10446000F8B500250446403400952278012A3BD057
:104470000122227003689E68760776D43F4F4E680B
:10448000BE4254D09E6A0F78BA4016439E62012302
:10449000826B1B079A421FD0012A1DD0022A1BD013
:1044A000032A19D0042A17D0052A15D0062A13D0BA
:1044B000072A11D002688B6856697607760FB342D7
:1044C0000AD05369DB08DB005361006842690B7A4C
:1044D0005B075B0F1A4342610868102806D0112859
:1044E00004D0122802D045E00220F8BD244A936887
:1044F000102809D011280AD0012000060343936038
:104500000868102806D035E00120C005F6E7012034
:104510008005F3E71C481B490068FFF7E1FD0A210D
:10452000484300E0401E00900028FBD122E0986A3A
:104530000E78B240904398620868102803D0112882
:1045400001D0122816D10E498A68102807D01128E8
:1045500008D00120000682438A600BE005E00120BC
:10456000C005F8E701208005F5E7416C20221143E2
:1045700041640125002020702846F8BD011000008C
:104580000027014040420F00D000002070477047D4
:1045900070B5044600680168490702D541684907BB
:1045A00005D40168090730D5416809072DD5616C2C
:1045B000C90604D4616C0122520211436164C168CE
:1045C0000C250905890F00291AD1216A002917D164
:1045D0000168090714D581684A070121002A08DB10
:1045E0004268AA434260606C0A02904308436064D8
:1045F00006E0606C202210436064A06C0843A06455
:104600002046FFF7C3FF206805602068016809069F
:104610000DD5406800060AD5606C012109040843E5
:104620006064204600F0D6F8216880200860206889
:104630000168C90613D54168C90610D5616B1025FC
:10464000012902D0C168C90707D0A16C0222114319
:10465000A16405602046FFF79AFF2068056070BDE1
:10466000F8B500250446002803D0606C002802D06D
:1046700008E00120F8BD0020A06440210855204634
:1046800000F0AAF8606C1022C006002870DB2068D9
:10469000816849076CD4616C130199430223194363
:1046A000616481688907890F012905D10168C907FB
:1046B0000FD1C16809040CD4C16818239943A368B9
:1046C0001943C1602068016963688900890819433A
:1046D00001612068C1683D4B1940C160A069E16972
:1046E0008003C9030843216A4B031843636B012B02
:1046F00002D001231B0300E000231843E3681843A2
:104700002369022B09D000231843236B666A5B00E0
:1047100018430123012E02D00AE00423F4E7002904
:1047200027D0616C202631436164A16C1943A164D8
:10473000A16A0E46FF3EC23E02D0E66A31430843FC
:104740002168CE680643CE600126A16B3607B142D0
:1047500013D0012911D002290FD003290DD004292B
:104760000BD0052909D0062907D0072905D010E06C
:1047700028E0012109040843DAE721684E69F608B8
:10478000F6004E6121684E69278F7F077F0F3E43F9
:104790004E612168C9680E4E3140814207D1002028
:1047A000A064606C80088000401C606408E0606C5D
:1047B0000221884310436064A06C1843A064012563
:1047C0002846F8BD606C10436064F8E71902FEFFEC
:1047D000E7FF3F837047000010B586B00446142100
:1047E0006846FFF7BDFC14492068884221D1134870
:1047F000826941150A43826182690A4005924269D1
:1048000009020A4342614069084005907020009007
:10481000032001900020029009206946C00600F0A4
:1048200099F9002211460C2000F092FA0C2000F0B9
:1048300085FA06B010BD00000024014000100240BF
:1048400000207047F8B504460020257F0346012D5F
:104850000FD001252577022666772668B7682F4393
:10486000B760266A012E10D0022E12D0032E14D16A
:1048700006E00220F8BD83002668CB583360401C58
:104880009042F8D32068036807E02046FFF7B4FCA5
:1048900002E02046FFF794FC03466577002020776E
:1048A0001846F8BD10B504000DD0607F002803D174
:1048B0002077204600F024F8022060772046FFF79A
:1048C000BFFF002801D0012010BD6079002814D05E
:1048D00020692168086121688868602290436269C4
:1048E000104388602168886880229043A269104341
:1048F000886001206077002010BD0020C043E8E7F9
:1049000008B500680549884207D105484269402139
:104910000A43426140690840009008BD00300240EF
:104920000010024070B50024014620314A78022A66
:1049300003D004218163012416E0026813680E2568
:10494000AB431360026813685B085B0013600122CD
:10495000056C1346AB40C56B6B604A7000220A7051
:10496000416B002900D08847204670BD31B500F06A
:1049700099F9009C0546601C00D0641C00F092F977
:10498000401BA042FAD338BD70470000F8B5404D37
:10499000E8680027C006FF4300263E4C002802DBE3
:1049A000E868400708D5A0680090A760FFF714FDED
:1049B000009800F07BF82670E868800655D5202026
:1049C000E8602078002850D0207801281ED0207878
:1049D000022836D06068401E60606068002838D0C9
:1049E000A068801CA060A06822696169120C0B0499
:1049F0001A43090C2261616129694908490029614A
:104A00002169626989B2FFF7D7FC2EE06068401E19
:104A10006060606800280ED0A068FFF7B5FFA0684E
:104A2000012189024018A06029690222914329616D
:104A3000FFF7B0FC19E03846A7602670FFF7A4FF27
:104A400013E028690421884328610020FFF79CFFB8
:104A50000AE02078032816D020780428A06814D013
:104A6000801FFFF791FFA76026702078002809D1EA
:104A70002869C008C0002861286905218902884387
:104A800028612676F8BDA068EBE7801EE9E7000004
:104A900000200240100300200348016980221143D6
:104AA00001610020704700000020024070470000B4
:104AB000F0B51FB407461A480024017E15461E466D
:104AC000012907D0012101761648FFF7A1FC002833
:104AD00003D020E0022005B0F0BD012F02D0022F4C
:104AE00000D00427220128463146FFF70FFB81B290
:104AF000019862001018FFF75FFC0A48FFF788FC76
:104B000009490A69520852000A61002803D1641C4D
:104B1000E4B2BC42E6D3024900220A76DBE7000099
:104B20001003002050C3000000200240064900206E
:104B30000A69120607D5054A4A60054A4A600969AA
:104B4000090600D501207047002002402301674577
:104B5000AB89EFCDF8B5002389E001249C402A46BB
:104B6000A44622407ED04C68022C01D0122C0CD1DD
:104B7000DC08A40027183C6A5D07ED0E0F26AE4046
:104B8000B4430E69AE4026433E6205685E000324CE
:104B9000B4400F79A543BF07BF0FB7402F4307604D
:104BA0004D68012D05D0022D03D0112D01D0122DFD
:104BB0000ED18568CF68A543B7402F43876047680B
:104BC0006546AF430D79ED06ED0F9D403D434560D1
:104BD000C568A5438C68B4402C43C4604C68E400AD
:104BE00044D5264CA56901263543A561A4699D08D5
:104BF00034400094224CAD002F19BC689D072E0F45
:104C00000F25B540AC430925ED06A84201D100258A
:104C10000AE01C4DA84201D1012505E01A4DA84229
:104C200001D1022500E00525B5402543BD60174CA4
:104C300025684E689543F60300D5154325606568E1
:104C40004E689543B60300D515436560A5684E6868
:104C50009543F60200D51543A560E5684E68954377
:104C6000B60200E002E000D51543E5605B1C0A686F
:104C70001546DA4000D070E7F8BD00000010024091
:104C80000000014000040048000800480004014002
:104C900042694A4042617047002A01D081617047F1
:104CA000816270470148006870470000CC00002016
:104CB00002480168491C016070470000CC000020D8
:104CC00010B506480168102211430160002000F071
:104CD00007F800F017F8002010BD00000020024087
:104CE00010B5044600F038F87D21C900FFF7F8F947
:104CF00000F086F800222146501E00F029F800201E
:104D000010BD000008B50C48816901221143816182
:104D1000816911400091C26901040A43C261C069FE
:104D20000022084000901146032000F011F80320F3
:104D300000F004F808BD000000100240C106C90ED2
:104D400001208840014908607047000000E100E050
:104D500010B500F097FF10BD0148006870470000D3
:104D6000D00000200448054900684968044A490504
:104D7000490F515CC8407047D0000020001002402D
:104D8000246B000810B513A30FCB88B06C460FC47A
:104D900014A30FCB0FC417494A680C2013460340D5
:104DA0001548042B02D0082B02D0401008B010BDCB
:104DB00093021B0F6C46E45CC96A04AB0907090F38
:104DC000595CD20303D5FFF78BF96043EEE70B483C
:104DD0006043EBE702030405060708090A0B0C0D04
:104DE0000E0F10100102030405060708090A0B0C38
:104DF0000D0E0F10001002400024F40000093D00C9
:104E0000094910B5401E884201D9012010BD074C48
:104E100060610321081F00F035FF0020A06107201A
:104E20002061002010BD0000FFFFFF0000E000E057
:104E30007047704770B502462032137F012B1BD09C
:104E40000123137702245477046865687026B543FC
:104E50006560046865680E68354365600468A56828
:104E60008026B543A5600068846849680C43846067
:104E700053770020107770BD022070BD70B504001C
:104E800005D025462035687F002802D006E00120A5
:104E900070BD00202877204600F00AF802206877CD
:104EA000211D206801F018FA01206877002070BDEC
:104EB00008B51F4A01681F48914215D18269C11483
:104EC0000A438261806900220840009011460D204B
:104ED000FFF73EFF0D20FFF731FF002211460E20A5
:104EE000FFF736FF0E200FE0134A91420FD1C2693F
:104EF00002210A43C261C0690022084000901146A5
:104F00001020FFF725FF1020FFF718FF08BD0B4A00
:104F10009142FBD1C26989150A43C261C06900226E
:104F20000840009011461320FFF712FF1320EBE713
:104F3000002C01400010024000040040002000400E
:104F40000268D36801210B43D360006802680A43FA
:104F50000260002070470000022102462032517793
:104F60000168086A074B184207D1086A9B1018426B
:104F700003D10868400840000860012050770020F5
:104F80007047000011110000F8B5054604462035B1
:104F9000287F012817D001272F7702206877226801
:104FA00090687726FF23B0431B02984390600868FF
:104FB000502837D00EDC202857D006DC00284ED0F1
:104FC000102840D14EE00220F8BD302850D04028B3
:104FD00039D13CE060282DD0702817D0012212036F
:104FE000801A0ED090422ED1CB684A68896820681A
:104FF00001F0BFF9206881680122920311438160AA
:1050000021E020688168C908C900F8E7CB684A68D0
:105010008968206801F0ADF921688868B0433043A1
:10502000886010E0CA684968206801F097FA50214A
:10503000206806E0CA684968206801F0A0FA60218B
:10504000206801F0A1F96F7700202877F8BDCA68C1
:105050004968206801F082FA40212068F1E70021C8
:105060002068EEE710212068EBE720212068E8E7C0
:1050700030212068E5E7704770B504460068016993
:105080000025C9438907002915DBC168C943890781
:1050900011D4E91E01610120207720688069800712
:1050A000204602D0FFF7E7FF04E000F0BFF82046FB
:1050B00000F040F9257720680169C943490717D4F2
:1050C000C168C943490713D40421C94301610220BF
:1050D0002077206880698005800F204602D0FFF786
:1050E000CAFF04E000F0A2F8204600F023F925777B
:1050F00020680169C943090716D4C168C943090773
:1051000012D40821C9430161042020772068C069B6
:105110008007204602D0FFF7AEFF04E000F086F8DB
:10512000204600F007F9257720680169C943C906C0
:1051300017D4C168C943C90613D41021C9430161FA
:10514000082020772068C0698005800F204602D0A3
:10515000FFF791FF04E000F069F8204600F0EAF85C
:10516000257720680169C943C90708D1C168C943C7
:10517000C90704D1891E0161204600F017F9206893
:105180000169C943090609D4C168C943090605D4A0
:105190008021C94301612046FFF74AFE206801696A
:1051A000C943490609D4C168C943490605D4402109
:1051B000C9430161204600F005F920680169C9432F
:1051C000890609D4C168C943890605D42021C94389
:1051D00001612046FFF72DFE70BD000010B586B0BE
:1051E000044614216846FEF7BBFF0D49206888423B
:1051F00013D10C48426909130A43426140690840CF
:10520000059002200090019002900320039001205D
:10521000049069460448FFF79DFC06B010BD0000ED
:105220000004004000100240000400487047F8B538
:10523000064604462036307F0D4601280DD0012059
:105240003077022070770427002A08D0042A16D06D
:10525000082A2AD00C2A4DD137E00220F8BD206858
:1052600001F09AF820688169082211438161206861
:105270008169B9438161206881692A6912E02068E7
:1052800001F0C6F8206882690121C9020A438261DF
:1052900020688169012292029143816120688169BD
:1052A0002A6912021143816124E0206801F0EAF8C2
:1052B0002068C26908210A43C2612068C169B943F4
:1052C000C1612068C1692A6912E0206801F016F9FD
:1052D0002068C1690122D2021143C1612068C269FC
:1052E000012189028A43C2612068C1692A691202C8
:1052F0001143C1610120707700203077F8BD70B58F
:10530000040005D025462035687F002802D006E03D
:10531000012070BD00202877204600F00AF8022006
:105320006877211D206800F0D7FF012068770020F2
:1053300070BD70477047000010B502680446002930
:1053400006D0042907D0082923D00C2907D123E04F
:10535000D068022301E0D06804231843D060012202
:10536000206800F0FBFF0E492068884205D00D49F7
:10537000884202D00C49884204D1416C0122D203F8
:10538000114341642068016801221143016000203B
:1053900010BDD0680823E0E7D0681023DDE70000E7
:1053A000002C01400044014000480140044910B570
:1053B000884204D109208021C006FFF769FC10BD96
:1053C000600200207047704770470000F8B503681E
:1053D0000446D869196805072D0F07D1820605D53F
:1053E0008A0603D5204601F09DF9F8BD9A68002D84
:1053F00064D0D507ED0FFF2621360E402E435DD039
:10540000C60706D0CE0504D501261E62E36E3343DF
:10541000E366870702230426002F06DAD70704D0A5
:1054200027683B62E76E3743E766470706D5D20732
:1054300004D022681662E26E1A43E266020709D5BA
:1054400020220A402A4305D0236808221A62E36E0C
:105450001343E366E26E002AC7D0800604D58806AF
:1054600002D5204601F05EF9E06E000703D4206803
:10547000806840061CD5204601F038F92068816814
:10548000490611D58168402291438160606E0028F1
:105490000AD01A494163606EFFF744FA0028A4D08D
:1054A000606E416B8847F8BD2046FFF78DFFF8BD61
:1054B0002046FFF789FF0020E066F8BDC5020DD544
:1054C00052020BD5012000051862202120466030D1
:1054D000417281722046FFF776FFF8BD020605D5BE
:1054E0000A0603D5204601F0E5F9F8BD4006FCD5D3
:1054F0004806FAD5204601F008F9F8BDD96600083B
:1055000070B5040005D025466035687A002802D0C1
:1055100006E0012070BD00202872204600F026F829
:10552000242068722068016849084900016020460B
:1055300001F036F90128EDD0606A002802D020463B
:1055400001F030F8206841680922D202914341609D
:10555000206881682A2291438160206801680122C5
:1055600011430160204601F083F870BD10B586B08C
:10557000044614216846FEF7F3FD17492068884267
:1055800027D116488269012189030A438261826911
:105590000A4005924269C9000A43426140690840D5
:1055A000059003204002009002200190002002900C
:1055B000032003900120049009206946C006FFF7EC
:1055C000C9FA002211461B20FFF7C2FB1B20FFF780
:1055D000B5FB06B010BD00000038014000100240CD
:1055E00070B5034660339C7A202C39D100290BD04A
:1055F000002A09D0012584682D03AC4206D1066932
:10560000002E03D1CE0701D0012070BD1E7A012EDD
:1056100026D001261E724165014640310A834A8325
:10562000FF22AC4204D10469002C07D10D4A05E0E9
:10563000002C04D10469002C00D07F228A83002131
:10564000C16622229A72197201688A6832438A609E
:1056500000680168FF22213211430160002070BD03
:10566000022070BDFF010000064910B5884207D135
:10567000054801780548FEF73DFE05490120087000
:1056800010BD0000A0020020C00000200801002082
:10569000C8000020FFB5064604466036707A83B025
:1056A0000D46202858D1002D0CD00598002809D08F
:1056B0000120A1680003814207D12069002804D19C
:1056C000E80702D0012007B0F0BD307A012843D0AE
:1056D000012030720020E06621207072FFF7E2FAAC
:1056E000019027464037059838820598788218E05F
:1056F000788A401E788206980090002280212046F9
:10570000019B01F00AF9002818D10120A1680003CB
:10571000814202D12069002812D0216828780885AA
:105720006D1C788A0028E3D1069800900022402161
:105730002046019B01F0F1F8002808D00320C2E7C1
:1057400028882168C005C00D0885AD1CE9E7202028
:10575000707200203072B6E70220B4E77047FEE7AF
:10576000F8B5294D294CEA6AE260286B2061696B23
:10577000130C6161238062802071020A6271020C45
:10578000A271000EE0712172080A6072080CA0720A
:10579000080EE0721C48403080890104090E0002A6
:1057A000081820861A48A06260621A488169E1627E
:1057B0000168009147688668FFF7B8F9E0680099CA
:1057C000884205D0002313490220EA6AFFF770F9E6
:1057D0002069B84206D00F490023091D02202A6B18
:1057E000FFF766F96069B04206D00A490023083124
:1057F00002206A6BFFF75CF9FFF74EF90548C168B4
:10580000A1610069E061F8BD80F7FF1FD4000020AE
:10581000E2040000003C000870B50446007815283A
:105820003ED1607826283BD1A078242838D1217930
:10583000E078090240186179A279090412068918F2
:105840004318217AE07909024018617AA27A0904A2
:10585000120689184218217BE07A09024018617B00
:10586000A57B09042D06491941180F48C5689D42BA
:1058700016D10369934213D14069884210D1122294
:1058800021460A48FEF7DEFFA27C617D12068918D8
:10589000E27C237D12041B02D2188918814201D0B8
:1058A000002070BD012070BDD4000020BC0100208C
:1058B00010B504460078152816D16078562813D103
:1058C000A078122810D1122221460948FEF7BAFF0B
:1058D000A27C617D12068918E27C237D12041B02E2
:1058E000D2188918814201D0002010BD012010BDBE
:1058F000BC01002010B50948FFF72EFB0121C906A5
:105900000868074A10408A00904205D172B648687C
:10591000096881F30888804710BD0000E00100207D
:105920000000FE2F0149086070470000D0000020F1
:105930003EB5002120480091019102911D4A41602D
:10594000026003468160012204240C3316C3816186
:10595000C1610162FF234162C233C162836242635B
:105960000163FEF77DFE002801D0FEF70DFD01204A
:105970000003019000040290009469460E48FEF76F
:105980006FFD002801D0FEF7FFFC0520009069465E
:105990000948FEF765FD002801D0FEF7F5FC06205A
:1059A000009069460448FEF75BFD002801D0FEF731
:1059B000EBFC3EBD002401407001002010B50948F9
:1059C000074901600021017141714161816101213B
:1059D0000162FEF767FF002801D0FEF7D5FC10BD7D
:1059E00000300240BC01002010B586B0142168468A
:1059F000FEF7B6FB15484269012189050A43426159
:105A000042690A400592426949110A43426142696A
:105A10000A400592426949000A43426140690924EB
:105A20000840E406059000228F212046FFF734F954
:105A30008F2000900021012002910391019069467E
:105A40002046FFF787F806B010BD000000100240A6
:105A500010B50B48094901600A4941601D22C26026
:105A6000002101228160520202618161FFF706FA82
:105A7000002801D0FEF788FC10BD00000020004087
:105A800060020020E7FD000010B586B000240094FD
:105A900017480194029403940494144905940160F6
:105AA0001449846041600461446141218461C160A2
:105AB000FFF7E4F9002801D0FEF766FC012000039F
:105AC000009069460A48FFF75FFA002801D0FEF708
:105AD0005BFC049404A906480594FFF7ABF9002881
:105AE00001D0FEF751FC06B010BD0000002C0140B3
:105AF000E00100203F1F000010B58EB00024079485
:105B0000089409940A940B941C2168460C94FEF79F
:105B100027FB2348214901607F2184604160FF21E8
:105B2000C16001214902016180218161FFF7A6F96D
:105B3000002801D0FEF728FC01200003079007A9E8
:105B40001748FFF721FA002801D0FEF71DFC144882
:105B5000FFF7D5FB002801D0FEF716FC0B940BA92C
:105B60000F480C94FFF766F9002801D0FEF70CFCF3
:105B70006020009064200190022002900C2269466F
:105B800004940748FFF753FB002801D0FEF7FCFB05
:105B90000348FFF723FB0EB010BD000000040040D7
:105BA0002002002010B50C480A4901604B21C901B0
:105BB000416000218160C16001618161C1610C228D
:105BC000016242614162FFF79BFC002801D0FEF7B1
:105BD000DBFB10BD00380140A002002008B500200A
:105BE0000090684600F046FA08BD000038B5017C18
:105BF000407C09040002094C0818A061FEF796FFDA
:105C0000A2690024234606490220FEF751FFFEF751
:105C100043FF6846009400F02DFA38BDD400002000
:105C20000C3C000808B500200090684600F022FAFD
:105C300008BD000038B5017C407C09040002094C15
:105C40000818E061FEF772FFE26900242346064966
:105C50000220FEF72DFFFEF71FFF6846009400F0BC
:105C600009FA38BDD4000020103C000808B5002017
:105C70000090684600F0FEF9FFF73CFE002008BDEA
:105C8000704700008307FF22DB0E9A408907090E48
:105C9000994000280BDA0007000F083883080848ED
:105CA0009B001818C36993430B43C3617047830873
:105CB00004489B001B1818689043084318607047FD
:105CC00000ED00E000E400E0704710B5C17B0B0080
:105CD00000F05CFE061204070A0D1012FFF786FFA3
:105CE0000AE0FFF7A7FF07E0FFF79CFF04E0FFF7DC
:105CF00075FF01E0FFF7BAFF002010BD10B58179F4
:105D00000B0000F043FE1035090C0F1215181B1E76
:105D10002124272A2D30333500F06AF928E000F0DD
:105D200085F925E000F078F922E000F001F91FE0A4
:105D300000F0A6F81CE000F07DF819E000F0CCF8C7
:105D400016E000F061F813E000F0DCF810E000F07D
:105D500007F90DE000F03CF80AE000F081F807E0F8
:105D600000F01AF904E000F027F901E000F070F902
:105D7000002010BDC1780279407909061204891803
:105D800000020818054900028969000A0902090A87
:105D9000884201D00020704701207047D4000020C5
:105DA000C17802790906120440798918000208189E
:105DB000064A0549926908400A40904201D00020F5
:105DC000704701207047000000FFFF00D400002052
:105DD0000EB5FFF7CFFF012801D001200EBD002036
:105DE00000900190029007486946806A020E0A708E
:105DF000020C4A70020A8A70C870684600F088F97E
:105E000000200EBDD40000200EB5FFF7B3FF01281F
:105E100001D001200EBD00200090019002900448A6
:105E2000694600780870684600F072F900200EBDDF
:105E3000C60000200EB5FFF79DFF012801D001200C
:105E40000EBD002000900190029004486946007841
:105E50000870684600F05CF900200EBDC700002005
:105E60000EB5FFF787FF012801D001200EBD0020ED
:105E7000009001900290684600F04AF900200EBDA3
:105E80000EB5FFF777FF012801D001200EBD0020DD
:105E9000009001900F4A0290D168684601700B0A89
:105EA00043700B0C8370090EC170116901710B0AEC
:105EB00043710B0C8371090EC171516901720A0A99
:105EC00042720A0C8272090EC17200F021F90020A0
:105ED0000EBD0000D40000200EB5FFF74BFF0128D7
:105EE00001D001200EBD00200090019002900448D6
:105EF000694600780870684600F00AF900200EBD77
:105F0000C50000200EB5FFF735FF012801D00120A4
:105F10000EBD002000900190029004486946007870
:105F20000870684600F0F4F800200EBDC4000020A0
:105F30000EB5FFF71FFF012801D001200EBD002084
:105F4000009001900290054869460088020A0A7094
:105F50004870684600F0DCF800200EBDC20000204A
:105F60000EB5FFF707FF012801D001200EBD00206C
:105F700000900190029007486946406A020E0A703C
:105F8000020C4A70020A8A70C870684600F0C0F8B5
:105F900000200EBDD40000200EB5FFF7EBFE012857
:105FA00001D001200EBD00200090019002906846B3
:105FB00000F0AEF800200EBD0EB5FFF7DBFE0128A5
:105FC00001D001200EBD00200090019002900748F2
:105FD0006946C069020E0A70020C4A70020A8A7091
:105FE000C870684600F094F800200EBDD400002070
:105FF00010B50446FFF7BEFE012801D0012010BDF8
:106000000449607A087000F077FD2046FFF790FFA2
:10601000002010BDC400002010B50349407A08706C
:1060200000F06AFD002010BDC400002010B503463A
:10603000FFF7B6FE012801D0012010BD0349587AB0
:10604000087000F059FD002010BD0000C4000020C1
:106050000EB50020009001900290684600F058F8BC
:106060007D20C000FEF782FCFFF744FC00200EBD3F
:106070007047000010B586B0044618221BA1684680
:10608000FEF755F81F4A6946D068C870030A0B71BD
:10609000030C4B71000E88711069C871030A0B72F2
:1060A000030C4B72000E88725069C872020A0A73A0
:1060B000020C4A73000E88732078C87360780874E5
:1060C000A078487412221048FEF7BCFB020E694605
:1060D0008A74020CCA74020A0A754875642316226F
:1060E0000A48FFF7D7FA06B010BD000015262400B5
:1060F00000000000000000000000000000000000A0
:1061000000000000D4000020BC010020A0020020FC
:1061100010B586B0044618221BA16846FEF707F8A2
:106120001F486946C069020ECA70020C0A71000A53
:106130004871207888716078C871A0780872E0781A
:106140004872207988726079C872A0790873E07902
:106150004873207A8873607AC873A07A0874E07AEA
:10616000487412220F48FEF76DFB020E69468A74CE
:10617000020CCA74020A0A754875642316220A487A
:10618000FFF788FA06B010BD155612000000000097
:1061900000000000000000000000000000000000FF
:1061A000D4000020BC010020A002002010B5FEF7A2
:1061B0007FFD10BD10B51E48016849084900016007
:1061C00000681C4C20680122104320602068800772
:1061D000C00FFBD02368F820834380210B4323604A
:1061E000636B13436363626B9207D20FFBD0626BE6
:1061F00082430A4362636068F0218843606060689C
:106200000721090288436060606880088000606040
:106210000C2160680842FCD10748FFF783FB606BE4
:10622000042188436063206B80088000206310BDD8
:10623000002002400010024000127A00134801685A
:106240000122114301604168114A11404160016817
:10625000104A1140016001680122920491430160DB
:1062600041683F22120491434160C16A0909090152
:10627000C162016BFF22143291430163416B4908F3
:106280004900416300218160704700000010024016
:106290000CB8FF08FFFFF6FE10B50248FEF7ECFE53
:1062A00010BD00006002002010B50248FEF7E4FEB9
:1062B00010BD0000E001002010B50248FEF7DCFE32
:1062C00010BD0000E001002010B50248FEF7D4FE2A
:1062D00010BD000020020020F0B502681A4B012416
:1062E000A4071A4D984203D0A04201D0A84203D17E
:1062F0007026B2434E683243154E164F98420AD06C
:10630000A04208D0A84206D0134CA04203D0B0420D
:1063100001D0B84204D103242402A243CC68224312
:106320008024A2434C69224302608A68C2620A68E0
:106330008262984203D0B04201D0B84201D10969CB
:10634000016301214161F0BD002C014000040040C7
:1063500000440140004801400020004010B50123E6
:10636000046A8B409C430462036A8A4013430362BD
:1063700010BD30B58468FF252D021B021343AC43CA
:106380000B432343836030BD826870239A430A43E2
:1063900007210A4382607047F0B5026A5208520032
:1063A0000262056A436882697024A24392080C68FD
:1063B00092001443022295438A68134E2A43114DDA
:1063C000A84204D0B04202D0104FB84206D10827EC
:1063D000BA43CF681743042297433A46A84204D0F1
:1063E000B04202D0094DA84206D103252D02AB438D
:1063F0004D691D438B692B43436084614968416348
:106400000262F0BD002C0140004401400048014000
:1064100070B5026A10239A430262046A4368826973
:1064200073252D02AA430D682D02154320229443A3
:106430008A6812012243104CA04208D11446CA684F
:106440008026B443120122434024A24305E00B4CB2
:10645000A04202D00A4CA04208D10324A402A343C4
:106460004C69A4001C438B699B00234343608561F6
:1064700049688163026270BD002C01400044014004
:106480000048014070B5026AFF2301339A4302625B
:10649000046A4368C2697025AA4392080D68920095
:1064A00015430122520294438A6812022243104C7F
:1064B000A04207D1C414A243CC682402224306158B
:1064C000B24305E00B4CA04202D00B4CA04208D1D5
:1064D00003242403A3434C6924011C438B691B013F
:1064E00023434360C5614968C163026270BD000017
:1064F000002C0140004401400048014030B5026AD0
:1065000001231B039A430262056A4268C36973242C
:106510002402A3430C6824021C4301235B039D4314
:106520008B681B032B430A4DA84205D0094DA84296
:1065300002D0094DA84205D10125AD03AA434D69FA
:10654000AD012A434260C46149680164036230BD01
:10655000002C0140004401400048014030B5036A6E
:10656000046A6408640004628469F025AC43120183
:1065700022430A24A3430B438261036230BD30B53A
:10658000036A1024A34303628469036A0F252D0361
:106590001203AC432243A024A3430901194382619F
:1065A000016230BD10B5818CC90707D001684A6807
:1065B00001235B049A43836A1A434A60818C8907EA
:1065C00007D501684A6801231B049A43C36A1A432A
:1065D0004A60818C490707D501684A6801239B04FA
:1065E0009A43036B1A434A60818C090707D50168F7
:1065F0004A680123DB039A43436B1A434A60818C48
:10660000C90607D50268916801231B039943836B70
:1066100019439160818C890607D501688A68012336
:106620005B039A43C36B1A438A60818C490612D577
:1066300003685A6801210905046C8A4322435A60A1
:10664000026C8A4207D10268516803235B059943B3
:10665000436C19435160818C090607D501684A686B
:106660000123DB04806C9A4302434A6010BD0000A2
:10667000F8B500260446C666FEF714FB0546144925
:10668000206888421DD10068124F000709D50121FA
:106690002B46002249052046009700F03EF90028CD
:1066A0000DD12068006840070BD501212B46002240
:1066B00089052046009700F030F9002801D003201A
:1066C000F8BD202060346072A07226720020F8BDF0
:1066D00000380140FFFFFF0110B5406A002201466B
:1066E00040314A834A82FEF76FFE10BD01680A6896
:1066F000FF2321339A430A6001688A6852085200D6
:106700008A60202160308172704710B501680A6884
:1067100040239A430A60202269210A54FFF71EF899
:10672000002010BD70B50246403203466033948BA2
:106730009D7A0168222D05D088690822104388615E
:10674000022070BD898C012685683603B54202D1CE
:106750000569002D0BD02140446D651C45652170F5
:10676000518B491E0904090C518307D015E0456D72
:1067700021402980416D891C4165F1E701680A6863
:10678000FF242134A2430A6001688A68520852003B
:106790008A6020219972FEF767FF002070BD00001B
:1067A000F8B504462369A268E6691A4363691021B3
:1067B0003343002026681A4333680546394F3B406F
:1067C0001343336023685A6803263603B243E668EE
:1067D00032435A60236AA26926681A43B3680B27BA
:1067E0003F02BB431343B3602F4A126B9207920FD1
:1067F00006D0012A08D0022A08D0032A07D101E0D6
:10680000002104E0022102E0042100E0082101222D
:10681000E369D203934224D100290CD002290DD080
:10682000042913D0082917D00125010909010007FF
:10683000400F084332E0FEF795FA09E061681B4A11
:1068400048088018FDF74CFC80B2EEE7FEF79AFA94
:10685000616840004A08F4E76168012248081204B0
:10686000EFE7002908D0022909D004290BD0082914
:106870000ED001252846F8BDFEF774FA05E06168E0
:106880000B4A480806E0FEF77DFA61684A0801E015
:10689000616848088018FDF723FC80B22168C86051
:1068A000E8E70000F369FFFF001002400024F40055
:1068B00000127A006921095C212901D00220704769
:1068C00002464032518A002912D0012381681B03FD
:1068D000994202D10169002915D0C16C4B1CC364D7
:1068E000006809780185508A401E50820020704758
:1068F00001680A6880239A430A60006801684022A0
:1069000011430160F2E7C16C03680988C905C90D2C
:106910001985C16C891CC164E5E7FFB581B01746D4
:106920000E4604460A9D1DE0681C1BD0002D05D0B4
:10693000FEF7B8F90499401AA84213D920680168F3
:10694000FF22A13291430160206881684908490013
:106950008160202060346072A072002020720320C9
:1069600005B0F0BD2068C1693046884304D00020DE
:10697000B842D9D00020F3E70120F9E710B502486A
:10698000FEF724FD10BD0000A002002030B47446C4
:10699000641E2578641CAB4200D21D46635D5B001B
:1069A000E31830BC184702E008C8121F08C1002ACB
:1069B000FAD170477047002001E001C1121F002A80
:1069C000FBD1704700F07AF8FEF77AF9FEF7C8FEBF
:1069D0000020334904460C54401CC0B21628FAD398
:1069E000FFF7E8FBFFF700F8FEF7A2FFFEF7E6FF70
:1069F000FFF74AF8FFF7D6F8FFF72AF8FFF77CF819
:106A0000012202212748FEF747F92748FEF798FAA6
:106A10002648FEF795FA002000F06EF8204850381E
:106A2000FDF746FC0925ED06012204212846FEF764
:106A300033F9012202212846FEF72EF90122802196
:106A40002846FEF729F91A4D01221A491A48FEF77D
:106A5000C7FD13485038FDF728FC1628F4D32878D2
:106A60000128F1D10E492C70084616225038FDF746
:106A700003FC0B48FEF7D0FE0028094802D0FFF7C0
:106A800024F906E0FEF714FF0028DDD00448FFF7E4
:106A900035F9034816215038FDF74BFCD4E70000C8
:106AA0005801002000040048E0010020600200209E
:106AB000C8000020C0000020A002002010B5002067
:106AC00072B60A4A0A4B81008C1824685C50401C3C
:106AD0003028F8D3074801688908890001600168F7
:106AE00003221143016062B610BD0000004000089F
:106AF000000000200000014000B587B00190022096
:106B0000029060210020009104900C226946044804
:106B1000FEF78DFB0C210248FEF70EFC07B000BD0E
:106B20002002002000000000010203044C6B00085A
:106B300000000020D4000000A6690008206C0008B6
:106B4000D40000205C060000B669000800000000C8
:106B50000000000000000000000000000000000035
:106B60000000000000000000000000000000000025
:106B70000000000000000000000000000000000015
:106B80000000000000000000000000000000000005
:106B900000000000000000000000000000000000F5
:106BA00000000000000000000000000000000000E5
:106BB00000000000000000000000000000000000D5
:106BC00000000000000000000000000000000000C5
:106BD00000000000000000000000000000000000B5
:106BE00000000000000000000000000000000000A5
:106BF0000000000000000000000000000000000095
:106C00000000000000000000000000000000000084
:106C100000000000000000000000000000127A00E8
:04000005080040B1FE
:00000001FF
