:020000040800F2
:1000000008050020C500000899100008290F000805
:1000100000000000000000000000000000000000E0
:10002000000000000000000000000000E3100008D5
:100030000000000000000000E11000082511000889
:10004000D7000008D7000008D7000008E301000827
:10005000D7000008D7000008D7000008D700000824
:1000600000000000D7000008D7000008D7000008F3
:10007000D7000008F5110008D7000008D7000008D5
:10008000D70000080000000000000000D7000008B2
:1000900000000000D7000008D7000008D7000008C3
:1000A00000000000D700000800000000CD16000886
:1000B0000348854600F03CF800480047FD1600085C
:1000C000080500200448804704480047FEE7FEE793
:1000D000FEE7FEE7FEE7FEE799110008B100000821
:1000E00030B50B46014600202022012409E00D46D0
:1000F000D5409D4205D31D469540491B2546954058
:1001000040191546521E002DF1DC30BDD2B201E07F
:100110000270401C491EFBD270470022F6E710B562
:1001200013460A4604461946FFF7F0FF204610BD65
:10013000064C0125064E05E0E36807CC2B430C3C3A
:1001400098471034B442F7D3FFF7B6FFB41700084E
:10015000D41700080278FF235A40401C491E02E0D1
:1001600003785A40401C491EFAD2FF20424001D079
:10017000002070470120704738B5154C03222068D5
:1001800014498308144800F0F7FD0028F6D1032134
:100190001048FFF7DFFF012816D10E480278FF2A2A
:1001A00012D00C38826000210C4A06C0009100F089
:1001B0009DF9084869460C3800F0B4F800F08AF957
:1001C000054800F08FFF38BD034800F09BFF38BDA5
:1001D000040000201400002074000020002000080B
:1001E000704710B500F0F0F810BD0000064900207F
:1001F000C861064801690422114301610169402276
:100200001143016170470000E80000200020024017
:10021000064A0021D16106490A6902231A430A618C
:10022000486108694022104308617047E8000020D7
:100230000020024010B5054B0022DA61044A136920
:10024000012423431361018010BD0000E800002059
:100250000020024010B50B4A0020D168CB060A49A5
:1002600004D5C86902231843C8611020D3685B070E
:1002700005D5CB6901242343CB6104210843D06019
:1002800010BD000000200240E800002070B50546C7
:1002900000F0E8F90646104C0AE0681C08D0002D72
:1002A00004D000F0DFF9801BA84201D9032070BD03
:1002B000E068C007F1D1E068800601D52020E06049
:1002C000E068C00602D4E068400703D5FFF7C2FF2C
:1002D000012070BD002070BD0020024070B50024D8
:1002E000014620314A78022A03D004218163012487
:1002F00016E0026813680E25AB43136002681368AA
:100300005B085B0013600122056C1346AB40C56BB4
:100310006B604A7000220A70416B002900D0884748
:10032000204670BDF8B5054623480F46017E0126DC
:1003300001290BD0012101762868204C012807D023
:100340002046FFF7A3FF002813D030E00220F8BDBD
:100350002046FFF79BFF002829D1FFF747FF2046E3
:10036000FFF794FF06461648016904229143016194
:100370001DE00020C04338606C6812E02046FFF7A3
:1003800047FF0E48FFF782FF06460D48026902212B
:100390008A430261002E01D03C6008E00120800207
:1003A0002418A868810268680818A042E6D80248A4
:1003B000002101763046F8BDE800002050C300005F
:1003C0000020024070470000F8B5404DE868002763
:1003D000C006FF4300263E4C002802DBE8684007C9
:1003E00008D5A0680090A760FFF734FF009800F0E0
:1003F0007BF82670E868800655D52020E8602078D4
:10040000002850D0207801281ED02078022836D02D
:100410006068401E60606068002838D0A068801C5A
:10042000A060A06822696169120C0B041A43090CD0
:10043000226161612969490849002961216962696C
:1004400089B2FFF7F7FE2EE06068401E60606068CA
:1004500000280ED0A068FFF7B5FFA068012189022F
:100460004018A0602969022291432961FFF7D0FE5C
:1004700019E03846A7602670FFF7A4FF13E028694B
:100480000421884328610020FFF79CFF0AE02078C0
:10049000032816D020780428A06814D0801FFFF706
:1004A00091FFA76026702078002809D12869C0082C
:1004B000C0002861286905218902884328612676C1
:1004C000F8BDA068EBE7801EE9E7000000200240CD
:1004D000E8000020034801698022114301610020E7
:1004E00070470000002002407047000006490020CD
:1004F0000A69120607D5054A4A60054A4A60096931
:10050000090600D5012070470020024023016745FD
:10051000AB89EFCDF8B5002389E001249C402A4641
:10052000A44622407ED04C68022C01D0122C0CD163
:10053000DC08A40027183C6A5D07ED0E0F26AE40CC
:10054000B4430E69AE4026433E6205685E00032454
:10055000B4400F79A543BF07BF0FB7402F430760D3
:100560004D68012D05D0022D03D0112D01D0122D83
:100570000ED18568CF68A543B7402F438760476891
:100580006546AF430D79ED06ED0F9D403D43456057
:10059000C568A5438C68B4402C43C4604C68E40033
:1005A00044D5264CA56901263543A561A4699D085B
:1005B00034400094224CAD002F19BC689D072E0FCB
:1005C0000F25B540AC430925ED06A84201D1002511
:1005D0000AE01C4DA84201D1012505E01A4DA842B0
:1005E00001D1022500E00525B5402543BD60174C2B
:1005F00025684E689543F60300D515432560656868
:100600004E689543B60300D515436560A5684E68EE
:100610009543F60200D51543A560E5684E689543FD
:10062000B60200E002E000D51543E5605B1C0A68F5
:100630001546DA4000D070E7F8BD00000010024017
:100640000000014000040048000800480004014088
:1006500042694A4042617047002A01D08161704777
:100660008162704701480068704700000000002068
:1006700002480168491C016070470000000000202A
:1006800010B506480168102211430160002000F0F7
:1006900007F800F017F8002010BD0000002002400D
:1006A00010B5044600F038F87D21C900FFF718FDA9
:1006B00000F086F800222146501E00F029F80020A4
:1006C00010BD000008B50C48816901221143816109
:1006D000816911400091C26901040A43C261C06985
:1006E0000022084000901146032000F011F803207A
:1006F00000F004F808BD000000100240C106C90E59
:1007000001208840014908607047000000E100E0D6
:1007100010B500F0C3FC10BD014800687047000030
:10072000040000200448054900684968044A490556
:10073000490F515CC840704704000020001002407F
:10074000AC17000810B513A30FCB88B06C460FC4CC
:1007500014A30FCB0FC417494A680C20134603405B
:100760001548042B02D0082B02D0401008B010BD51
:1007700093021B0F6C46E45CC96A04AB0907090FBE
:10078000595CD20303D5FFF7ABFC6043EEE70B489F
:100790006043EBE702030405060708090A0B0C0D8A
:1007A0000E0F10100102030405060708090A0B0CBE
:1007B0000D0E0F10001002400024F40000093D004F
:1007C000094910B5401E884201D9012010BD074CCF
:1007D00060610321081F00F061FC0020A061072078
:1007E0002061002010BD0000FFFFFF0000E000E0DE
:1007F0007047704770B502462032137F012B1BD023
:100800000123137702245477046865687026B54382
:100810006560046865680E68354365600468A568AE
:100820008026B543A5600068846849680C438460ED
:1008300053770020107770BD022070BD70B50400A2
:1008400005D025462035687F002802D006E001202B
:1008500070BD00202877204600F00AF80220687753
:10086000211D206800F0CEFC01206877002070BDBB
:1008700008B50068094988420FD109488269C11446
:100880000A438261806900220840009011460D20D1
:10089000FFF73EFF0D20FFF731FF08BD002C0140A0
:1008A000001002400268D36801210B43D360006846
:1008B00002680A43026000207047000002210246DD
:1008C000203251770168086A074B184207D1086A3D
:1008D0009B10184203D108684008400008600120BE
:1008E000507700207047000011110000F8B5054650
:1008F00004462035287F012817D001272F770220B2
:100900006877226890687726FF23B0431B029843DC
:1009100090600868502837D00EDC202857D006DCBD
:1009200000284ED0102840D14EE00220F8BD3028DB
:1009300050D0402839D13CE060282DD0702817D005
:1009400001221203801A0ED090422ED1CB684A6841
:100950008968206800F098FC206881680122920371
:100960001143816021E020688168C908C900F8E767
:10097000CB684A688968206800F086FC216888682E
:10098000B0433043886010E0CA684968206800F0CE
:100990008EFC5021206806E0CA684968206800F093
:1009A00097FC6021206800F07AFC6F7700202877A0
:1009B000F8BDCA684968206800F079FC40212068C9
:1009C000F1E700212068EEE710212068EBE7202105
:1009D0002068E8E730212068E5E7704770B50446F5
:1009E000006801690025C9438907002915DBC16832
:1009F000C943890711D4E91E0161012020772068CD
:100A000080698007204602D0FFF7E7FF04E000F08E
:100A100096F8204600F094F8257720680169C943CC
:100A2000490717D4C168C943490713D40421C943EE
:100A3000016102202077206880698005800F2046B0
:100A400002D0FFF7CAFF04E000F079F8204600F07A
:100A500077F8257720680169C943090716D4C1686A
:100A6000C943090712D40821C94301610420207732
:100A70002068C0698007204602D0FFF7AEFF04E07F
:100A800000F05DF8204600F05BF8257720680169EA
:100A9000C943C90617D4C168C943C90613D4102174
:100AA000C9430161082020772068C0698005800F54
:100AB000204602D0FFF791FF04E000F040F8204606
:100AC00000F03EF8257720680169C943C90708D1BD
:100AD000C168C943C90704D1891E0161204600F0DD
:100AE00031F820680169C943090609D4C168C943BE
:100AF000090605D48021C94301612046FFF778FE2D
:100B000020680169C943490609D4C168C943490637
:100B100005D44021C9430161204600F01FF8206838
:100B20000169C943890609D4C168C943890605D446
:100B30002021C94301612046FFF75BFE70BD70476D
:100B400070470000044910B5884204D10920802173
:100B5000C006FFF77DFD10BD3400002070477047D0
:100B600070470000F8B503680446D869196805079E
:100B70002D0F07D1820605D58A0603D5204600F041
:100B800079FCF8BD9A68002D64D0D507ED0FFF26DB
:100B900021360E402E435DD0C60706D0CE0504D5C3
:100BA00001261E62E36E3343E366870702230426B1
:100BB000002F06DAD70704D027683B62E76E374379
:100BC000E766470706D5D20704D022681662E26EB0
:100BD0001A43E266020709D520220A402A4305D0BB
:100BE000236808221A62E36E1343E366E26E002A6A
:100BF000C7D0800604D5880602D5204600F03AFC0E
:100C0000E06E000703D42068806840061CD52046AB
:100C100000F014FC20688168490611D581684022E3
:100C200091438160606E00280AD01A494163606E6A
:100C3000FFF754FB0028A4D0606E416B8847F8BDD5
:100C40002046FFF78DFFF8BD2046FFF789FF002003
:100C5000E066F8BDC5020DD552020BD50120000596
:100C60001862202120466030417281722046FFF7D1
:100C700076FFF8BD020605D50A0603D5204600F02A
:100C8000C1FCF8BD4006FCD54806FAD5204600F068
:100C9000E4FBF8BD2914000870B5040005D0254612
:100CA0006035687A002802D006E0012070BD00207F
:100CB0002872204600F026F8242068722068016817
:100CC000490849000160204600F012FC0128EDD0DF
:100CD000606A002802D0204600F00DFB20684168C1
:100CE0000922D20291434160206881682A229143FF
:100CF000816020680168012211430160204600F0F4
:100D00005FFB70BD10B586B0044614216846FFF73E
:100D100004FA17492068884227D1164882690121C0
:100D200089030A43826182690A4005924269C900C7
:100D30000A43426140690840059003204002009048
:100D400002200190002002900320039001200490D3
:100D500009206946C006FFF7DDFB002211461B2073
:100D6000FFF7D6FC1B20FFF7C9FC06B010BD000042
:100D70000038014000100240FFB5074604466037C6
:100D8000B87A83B00E46202864D1002E0CD0059886
:100D9000002809D00120A1680003814207D1206901
:100DA000002804D1F00702D0012007B0F0BD387A46
:100DB00001284FD0012038720020E0662220B8724E
:100DC000FFF750FC0290254640350598288305988A
:100DD00068830122A1681203FF20914204D1216996
:100DE000002907D11C4805E0002904D12169002908
:100DF00000D07F20A883A88B01901CE0688B401E48
:100E0000688306980090002220212046029B00F073
:100E10002CFC002801D00320C7E70120A1680003B3
:100E2000814202D1206900280DD02068818C019870
:100E300001403170761C688B0028DFD12020B87209
:100E400000203872B1E72068808C0199084030801A
:100E5000B61CF0E70220A8E7FF0100007047FFB5CD
:100E6000064604466036707A83B00D46202858D175
:100E7000002D0CD00598002809D00120A16800039E
:100E8000814207D12069002804D1E80702D001205F
:100E900007B0F0BD307A012843D001203072002025
:100EA000E06621207072FFF7DDFB01902746403796
:100EB000059838820598788218E0788A401E7882F2
:100EC00006980090002280212046019B00F0CDFB77
:100ED000002818D10120A1680003814202D12069B5
:100EE000002812D02168287808856D1C788A00288F
:100EF000E3D106980090002240212046019B00F09B
:100F0000B4FB002808D00320C2E728882168C00568
:100F1000C00D0885AD1CE9E72020707200203072FA
:100F2000B6E70220B4E77047FEE7000010B50848B6
:100F3000FFF7C4FC07490868074A10400A049042BA
:100F400005D172B64868096881F30888804710BDEA
:100F500034000020002000080000FE2F0149086036
:100F60007047000004000020F0B587B014216846E7
:100F7000FFF7D3F81C484269012189050A43426101
:100F800042690A400592426949110A434261426935
:100F90000A400592426949000A43426140690926B4
:100FA0000840F6060590002286213046FFF754FBE4
:100FB0000E4F012202213846FFF74EFB8620002407
:100FC0000125009002946946019503943046FFF78D
:100FD000A1FA0220009002946946019503943846D4
:100FE000FFF798FA07B0F0BD001002400004004877
:100FF00010B586B00024009417480194029403941D
:1010000004941449059401601449846041600461AA
:101010004461F9218461C160FFF710FC002801D010
:10102000FFF7DEF801200003009069460A48FFF749
:101030005DFC002801D0FFF7D3F8049404A906480A
:101040000594FFF7D7FB002801D0FFF7C9F806B0D9
:1010500010BD0000002C0140340000203F1F0000A4
:1010600010B50C480A4901604B21C90141600021BB
:101070008160C16001618161C1610C2201624261D4
:101080004162FFF709FE002801D0FFF7A9F810BD63
:101090000038014074000020704700008307FF22E1
:1010A000DB0E9A408907090E994000280BDA0007E9
:1010B000000F0838830808489B001818C369934339
:1010C0000B43C3617047830804489B001B181868D2
:1010D000904308431860704700ED00E000E400E032
:1010E0007047704708B505A10968009104490222BC
:1010F00009688B086946FFF7B2FE08BD06060000C6
:101100000400002008B505A10968009104490222E5
:1011100009688B086946FFF7A2FE08BD1616000095
:101120000400002010B5FFF7A3FA10BD10B5174852
:1011300001684908490001600068154C20680121D8
:101140000843206020688007C00FFBD02068F8218A
:1011500088438021084320606068F02188436060F4
:101160006068072109028843606060688008800029
:1011700060600C2160680842FCD10648FFF7EEFE73
:10118000206B80088000206310BD0000002002401A
:101190000010024000127A00134801680122114336
:1011A00001604168114A114041600168104A1140D4
:1011B00001600168012292049143016041683F226D
:1011C000120491434160C16A09090901C162016BBE
:1011D000FF22143291430163416B49084900416386
:1011E0000021816070470000001002400CB8FF0829
:1011F000FFFFF6FE10B50248FFF7F0FB10BD000040
:1012000034000020F0B502681A4B0124A4071A4DDF
:10121000984203D0A04201D0A84203D17026B24325
:101220004E683243154E164F98420AD0A04208D05D
:10123000A84206D0134CA04203D0B04201D0B8421D
:1012400004D103242402A243CC6822438024A24375
:101250004C69224302608A68C2620A6882629842CC
:1012600003D0B04201D0B84201D109690163012124
:101270004161F0BD002C01400004004000440140E9
:10128000004801400020004030B58468FF252D0251
:101290001B021343AC430B432343836030BD82687E
:1012A00070239A430A4307210A438260704730B58E
:1012B000036A046A6408640004628469F025AC432C
:1012C000120122430A24A3430B438261036230BD0F
:1012D00030B5036A1024A34303628469036A0F25AF
:1012E0002D031203AC432243A024A3430901194355
:1012F0008261016230BD10B5818CC90707D00168D9
:101300004A6801235B049A43836A1A434A60818CCA
:10131000890707D501684A6801231B049A43C36AF9
:101320001A434A60818C490707D501684A6801233E
:101330009B049A43036B1A434A60818C090707D5C3
:1013400001684A680123DB039A43436B1A434A60EE
:10135000818CC90607D50268916801231B03994354
:10136000836B19439160818C890607D501688A686F
:1013700001235B039A43C36B1A438A60818C49063D
:1013800012D503685A6801210905046C8A43224377
:101390005A60026C8A4207D10268516803235B05D8
:1013A0009943436C19435160818C090607D5016844
:1013B0004A680123DB04806C9A4302434A6010BDF3
:1013C000F8B500260446C666FFF74CF905461449F1
:1013D000206888421DD10068124F000709D50121FD
:1013E0002B46002249052046009700F03EF90028D0
:1013F0000DD12068006840070BD501212B46002243
:1014000089052046009700F030F9002801D003201C
:10141000F8BD202060346072A07226720020F8BDF2
:1014200000380140FFFFFF0110B5406A002201466D
:1014300040314A834A82FFF793FB10BD01680A6876
:10144000FF2321339A430A6001688A6852085200D8
:101450008A60202160308172704710B501680A6887
:1014600040239A430A60202269210A54FFF75BFD5A
:10147000002010BD70B50246403203466033948BA5
:101480009D7A0168222D05D0886908221043886161
:10149000022070BD898C012685683603B54202D1D1
:1014A0000569002D0BD02140446D651C45652170F8
:1014B000518B491E0904090C518307D015E0456D75
:1014C00021402980416D891C4165F1E701680A6866
:1014D000FF242134A2430A6001688A68520852003E
:1014E0008A6020219972FFF7B9FC002070BD0000CE
:1014F000F8B504462369A268E6691A4363691021B6
:101500003343002026681A4333680546394F3B4071
:101510001343336023685A6803263603B243E668F0
:1015200032435A60236AA26926681A43B3680B27BC
:101530003F02BB431343B3602F4A126B9207920FD3
:1015400006D0012A08D0022A08D0032A07D101E0D8
:10155000002104E0022102E0042100E00821012230
:10156000E369D203934224D100290CD002290DD083
:10157000042913D0082917D0012501090901000702
:10158000400F084332E0FFF7CDF809E061681B4ADD
:1015900048088018FEF7A4FD80B2EEE7FFF7D2F806
:1015A000616840004A08F4E76168012248081204B3
:1015B000EFE7002908D0022909D004290BD0082917
:1015C0000ED001252846F8BDFFF7ACF805E06168AC
:1015D0000B4A480806E0FFF7B5F861684A0801E0E1
:1015E000616848088018FEF77BFD80B22168C860FA
:1015F000E8E70000F369FFFF001002400024F40058
:1016000000127A006921095C212901D0022070476B
:1016100002464032518A002912D0012381681B03FF
:10162000994202D10169002915D0C16C4B1CC364D9
:10163000006809780185508A401E5082002070475A
:1016400001680A6880239A430A60006801684022A2
:1016500011430160F2E7C16C03680988C905C90D2F
:101660001985C16C891CC164E5E7FFB581B01746D7
:101670000E4604460A9D1DE0681C1BD0002D05D0B7
:10168000FEF7F0FF0499401AA84213D920680168B8
:10169000FF22A13291430160206881684908490016
:1016A0008160202060346072A072002020720320CC
:1016B00005B0F0BD2068C1693046884304D00020E1
:1016C000B842D9D00020F3E70120F9E710B502486D
:1016D000FFF748FA10BD00007400002002E008C8BF
:1016E000121F08C1002AFAD170477047002001E09C
:1016F00001C1121F002AFBD170470000FEF7C0FF96
:10170000FFF714FDFFF730FCFFF772FCFFF7A8FCB2
:101710002248FFF7C7F82248FFF7E4FC214D0222D8
:101720002868214983081E48FFF726FB002804D0BB
:101730001B48FFF7E7FCFFF7F9FB02211A48FEF709
:1017400009FD194C012802D12078062804D014483C
:10175000FFF7D8FCFFF7EAFB28680222830812494A
:101760000F48FFF709FB0028F6D102210E48FEF7CB
:10177000F1FC012803D00A48FFF7C4FCECE720780D
:10178000312801D0432803D00548FFF7ABFCE3E73D
:101790000348FFF7A7FCFEF7EFFCDDE7340000206D
:1017A000740000200400002014000020000000004D
:1017B00001020304D4170008000000200800000004
:1017C000DC160008DC1700080800002000050000F7
:0C17D000EC1600080000000000127A0077
:04000005080000B13E
:00000001FF
