:020000040800F2
:1000000008060020C50000083114000895120008F9
:1000100000000000000000000000000000000000E0
:100020000000000000000000000000007B14000839
:10003000000000000000000079140008B51400085A
:10004000D7000008D7000008D7000008F703000811
:10005000D7000008D7000008D7000008D700000824
:1000600000000000D7000008D7000008D7000008F3
:10007000D700000881150008D7000008D700000845
:10008000D70000080000000000000000D7000008B2
:1000900000000000D7000008D7000008D7000008C3
:1000A00000000000D700000800000000591A0008F6
:1000B0000348854600F080F800480047B51B00085B
:1000C000080600200448804704480047FEE7FEE792
:1000D000FEE7FEE7FEE7FEE725150008B100000891
:1000E00010B511491148CB6AC3600A6B0261496BB4
:1000F0001C0C4161048043800271130A4371130C8C
:100100008371120EC27101720A0A42720A0C827263
:10011000090EC1720449403189890A04120E09028C
:100120005118018310BD000080F7FF1FC800002098
:1001300030B50B46014600202022012409E00D467F
:10014000D5409D4205D31D469540491B2546954007
:1001500040191546521E002DF1DC30BD10B5202A85
:1001600004DB0846203AD040002110BD0B46D340A6
:10017000D0402024A21A91400843194610BDD2B2A3
:1001800001E00270401C491EFBD270470022F6E7D6
:1001900010B513460A4604461946FFF7F0FF2046FD
:1001A00010BD0321001D401E037812021A43491E90
:1001B000F9D5104670470000064C0125064E05E0B3
:1001C000E36807CC2B430C3C98471034B442F7D378
:1001D000FFF772FFC8240008E8240008F7B50024E0
:1001E00016460546570809E00198A1000818FFF7D0
:1001F000D8FF1021C84129680860641CA742F3D8C1
:10020000F00704D00198A100405A296808802868A6
:100210000068FEBDFEB505460024900816460F4650
:1002200001900EE0A000C0190090FFF7BAFF00BADD
:10023000010A00980902C07801432868016001980A
:10024000641CA042EED8B00721D0B007800F01286F
:1002500003D1A1002A68795C1170022808D1A0009E
:10026000C1194878097800020843296840BA088013
:10027000F04380070BD1A000C01941780278090231
:1002800011432A6849BA1180296880780870286863
:100290000068FEBD70B504460020C0430022064E33
:1002A00007E0A35C050E6B409B00F358000258402A
:1002B000521C8A42F5D370BDC01C00080278FF238F
:1002C0005A40401C491E02E003785A40401C491E17
:1002D000FAD2FF20424001D0002070470120704731
:1002E00030B504460078152846D16078262843D1D9
:1002F000A078242840D12179E0780902401861795A
:10030000A2790904120689184318217AE0790902B2
:100310004018617AA27A0904120689184218217BD2
:10032000E07A09024018617BA57B09042D06491972
:1003300041181348C5689D421ED1036993421BD1E1
:100340004069884218D1E07B002805D0207C002835
:1003500002D0607C00280FD11221204601F016FC4B
:10036000A27C617D12068918E27C237D12041B02A7
:10037000D2188918814201D0002030BD012030BD43
:10038000C800002038B5174C14212068FFF7D0FEB4
:10039000034604221449154800F0A4FE0028F3D1B6
:1003A00004211148FFF78AFF012816D10E48427830
:1003B000FF2A12D00C38826000210D4A06C000913D
:1003C00000F04AFA084869460C3800F023F900F0BA
:1003D000F9F9064801F052F838BD044801F05CF81C
:1003E00038BD0000C4000020F0000020740100208F
:1003F00000400008704710B500F05EF910BD000025
:1004000006490020C86106480169042211430161C0
:10041000016940221143016170470000E80100209A
:1004200000200240064A0021D16106490A690223E0
:100430001A430A6148610869402210430861704705
:10044000E80100200020024010B5054B0022DA61CF
:10045000044A1369012423431361018010BD000085
:10046000E80100200020024010B50B4A0020D168AE
:10047000CB060A4904D5C86902231843C861102075
:10048000D3685B0705D5CB6901242343CB610421E5
:100490000843D06010BD000000200240E8010020A9
:1004A00070B5054600F094FA0646104C0AE0681C48
:1004B00008D0002D04D000F08BFA801BA84201D98F
:1004C000032070BDE068C007F1D1E068800601D567
:1004D0002020E060E068C00602D4E068400703D551
:1004E000FFF7C2FF012070BD002070BD0020024058
:1004F0000020704770B504460020257F0346012D7B
:100500000BD00125257702266677266A012E10D0AA
:10051000022E12D0032E14D106E0022070BD8300FB
:100520002668CB583360401C9042F8D3206803689B
:1005300007E02046FFF76EFE02E02046FFF74EFE82
:100540000346657700202077184670BD10B504007B
:100550000DD0607F002803D12077204600F024F8DA
:10056000022060772046FFF7C3FF002801D001205A
:1005700010BD6079002814D02069216808612168C5
:1005800088686022904362691043886021688868A7
:1005900080229043A2691043886001206077002088
:1005A00010BD0020C043E8E708B50068054988424F
:1005B00007D10548426940210A4342614069084029
:1005C000009008BD003002400010024070B50024C9
:1005D000014620314A78022A03D004218163012494
:1005E00016E0026813680E25AB43136002681368B7
:1005F0005B085B0013600122056C1346AB40C56BC2
:100600006B604A7000220A70416B002900D0884755
:10061000204670BDF8B5054623480F46017E0126E9
:1006200001290BD0012101762868204C012807D030
:100630002046FFF735FF002813D030E00220F8BD38
:100640002046FFF72DFF002829D1FFF7D9FE2046CD
:10065000FFF726FF0646164801690422914301610F
:100660001DE00020C04338606C6812E02046FFF7B0
:10067000D9FE0E48FFF714FF06460D480269022115
:100680008A430261002E01D03C6008E00120800214
:100690002418A868810268680818A042E6D80248B1
:1006A000002101763046F8BDE801002050C300006B
:1006B0000020024070470000F8B5404DE868002770
:1006C000C006FF4300263E4C002802DBE8684007D6
:1006D00008D5A0680090A760FFF7C6FE009800F05C
:1006E0007BF82670E868800655D52020E8602078E1
:1006F000002850D0207801281ED02078022836D03B
:100700006068401E60606068002838D0A068801C67
:10071000A060A06822696169120C0B041A43090CDD
:100720002261616129694908490029612169626979
:1007300089B2FFF789FE2EE06068401E6060606845
:1007400000280ED0A068FFF7B5FFA068012189023C
:100750004018A0602969022291432961FFF762FED7
:1007600019E03846A7602670FFF7A4FF13E0286958
:100770000421884328610020FFF79CFF0AE02078CD
:10078000032816D020780428A06814D0801FFFF713
:1007900091FFA76026702078002809D12869C00839
:1007A000C0002861286905218902884328612676CE
:1007B000F8BDA068EBE7801EE9E7000000200240DA
:1007C000E8010020034801698022114301610020F3
:1007D000704700000020024070470000F0B51FB4D1
:1007E00007461A480024017E15461E46012907D0F7
:1007F000012101761648FFF753FE002803D020E0C0
:10080000022005B0F0BD012F02D0022F00D0042736
:10081000220128463146FFF7A1FC81B2019862000F
:100820001018FFF711FE0A48FFF73AFE09490A6956
:10083000520852000A61002803D1641CE4B2BC4291
:10084000E6D3024900220A76DBE70000E801002037
:1008500050C3000000200240064900200A69120629
:1008600007D5054A4A60054A4A600969090600D564
:10087000012070470020024023016745AB89EFCD7E
:10088000F8B5002389E001249C402A46A446224072
:100890007ED04C68022C01D0122C0CD1DC08A400B4
:1008A00027183C6A5D07ED0E0F26AE40B4430E6973
:1008B000AE4026433E6205685E000324B4400F79D3
:1008C000A543BF07BF0FB7402F4307604D68012DF9
:1008D00005D0022D03D0112D01D0122D0ED1856827
:1008E000CF68A543B7402F43876047686546AF434D
:1008F0000D79ED06ED0F9D403D434560C568A5436C
:100900008C68B4402C43C4604C68E40044D5264C49
:10091000A56901263543A561A4699D08344000946A
:10092000224CAD002F19BC689D072E0F0F25B54036
:10093000AC430925ED06A84201D100250AE01C4D73
:10094000A84201D1012505E01A4DA84201D1022596
:1009500000E00525B5402543BD60174C25684E686D
:100960009543F60300D51543256065684E689543A9
:10097000B60300D515436560A5684E689543F60239
:1009800000D51543A560E5684E689543B60200E0C2
:1009900002E000D51543E5605B1C0A681546DA40A5
:1009A00000D070E7F8BD00000010024000000140D8
:1009B00000040048000800480004014042694A4021
:1009C00042617047002A01D081617047816270479F
:1009D0000148006870470000C0000020024801681C
:1009E000491C016070470000C000002010B5064897
:1009F0000168102211430160002000F007F800F0A8
:100A000017F8002010BD00000020024010B5044679
:100A100000F038F87D21C900FFF78AFB00F086F866
:100A200000222146501E00F029F8002010BD0000D1
:100A300008B50C4881690122114381618169114027
:100A40000091C26901040A43C261C06900220840E2
:100A500000901146032000F011F8032000F004F884
:100A600008BD000000100240C106C90E01208840E8
:100A7000014908607047000000E100E010B500F097
:100A8000D9FC10BD0148006870470000C400002078
:100A90000448054900684968044A4905490F515C02
:100AA000C8407047C400002000100240C024000865
:100AB00010B513A30FCB88B06C460FC414A30FCB93
:100AC0000FC417494A680C20134603401548042BED
:100AD00002D0082B02D0401008B010BD93021B0FAB
:100AE0006C46E45CC96A04AB0907090F595CD20380
:100AF00003D5FFF71DFB6043EEE70B486043EBE7D0
:100B000002030405060708090A0B0C0D0E0F10104E
:100B10000102030405060708090A0B0C0D0E0F104D
:100B2000001002400024F40000093D00094910B5FE
:100B3000401E884201D9012010BD074C606103218D
:100B4000081F00F077FC0020A06107202061002032
:100B500010BD0000FFFFFF0000E000E0704770479D
:100B600070B502462032137F012B1BD0012313776F
:100B700002245477046865687026B543656004688C
:100B800065680E68354365600468A5688026B543CE
:100B9000A5600068846849680C438460537700202E
:100BA000107770BD022070BD70B5040005D02546D9
:100BB0002035687F002802D006E0012070BD0020AB
:100BC0002877204600F00AF802206877211D206867
:100BD00000F0DEFC01206877002070BD08B50068D9
:100BE000094988420FD109488269C1140A438261C8
:100BF000806900220840009011460D20FFF73EFF5B
:100C00000D20FFF731FF08BD002C0140001002400D
:100C10000268D36801210B43D360006802680A436D
:100C20000260002070470000022102462032517706
:100C30000168086A074B184207D1086A9B101842DE
:100C400003D1086840084000086001205077002068
:100C50007047000011110000F8B505460446203524
:100C6000287F012817D001272F7702206877226874
:100C700090687726FF23B0431B0298439060086872
:100C8000502837D00EDC202857D006DC00284ED064
:100C9000102840D14EE00220F8BD302850D0402826
:100CA00039D13CE060282DD0702817D001221203E2
:100CB000801A0ED090422ED1CB684A68896820688D
:100CC00000F0A8FC20688168012292031143816032
:100CD00021E020688168C908C900F8E7CB684A6844
:100CE0008968206800F096FC21688868B04330432A
:100CF000886010E0CA684968206800F09EFC5021B6
:100D0000206806E0CA684968206800F0A7FC6021F6
:100D1000206800F08AFC6F7700202877F8BDCA6849
:100D20004968206800F089FC40212068F1E7002133
:100D30002068EEE710212068EBE720212068E8E733
:100D400030212068E5E7704770B504460068016906
:100D50000025C9438907002915DBC168C9438907F4
:100D600011D4E91E01610120207720688069800785
:100D7000204602D0FFF7E7FF04E000F096F8204697
:100D800000F094F8257720680169C943490717D412
:100D9000C168C943490713D40421C9430161022032
:100DA0002077206880698005800F204602D0FFF7F9
:100DB000CAFF04E000F079F8204600F077F82577C4
:100DC00020680169C943090716D4C168C9430907E6
:100DD00012D40821C9430161042020772068C0692A
:100DE0008007204602D0FFF7AEFF04E000F05DF878
:100DF000204600F05BF8257720680169C943C906E1
:100E000017D4C168C943C90613D41021C94301616D
:100E1000082020772068C0698005800F204602D016
:100E2000FFF791FF04E000F040F8204600F03EF8A4
:100E3000257720680169C943C90708D1C168C9433A
:100E4000C90704D1891E0161204600F031F82068ED
:100E50000169C943090609D4C168C943090605D413
:100E60008021C94301612046FFF778FE20680169AF
:100E7000C943490609D4C168C943490605D440217C
:100E8000C9430161204600F01FF820680169C94389
:100E9000890609D4C168C943890605D42021C943FC
:100EA00001612046FFF75BFE70BD70477047000090
:100EB000044910B5884204D109208021C006FFF7FB
:100EC0007DFD10BD34010020704770477047000061
:100ED000F8B503680446D869196805072D0F07D1CE
:100EE000820605D58A0603D5204600F089FCF8BDA8
:100EF0009A68002D64D0D507ED0FFF2621360E40ED
:100F00002E435DD0C60706D0CE0504D501261E624D
:100F1000E36E3343E366870702230426002F06DAD5
:100F2000D70704D027683B62E76E3743E766470779
:100F300006D5D20704D022681662E26E1A43E26632
:100F4000020709D520220A402A4305D02368082237
:100F50001A62E36E1343E366E26E002AC7D080068E
:100F600004D5880602D5204600F04AFCE06E000752
:100F700003D42068806840061CD5204600F024FC7D
:100F800020688168490611D58168402291438160BB
:100F9000606E00280AD01A494163606EFFF716FBA5
:100FA0000028A4D0606E416B8847F8BD2046FFF74B
:100FB0008DFFF8BD2046FFF789FF0020E066F8BDF1
:100FC000C5020DD552020BD5012000051862202163
:100FD00020466030417281722046FFF776FFF8BDEF
:100FE000020605D50A0603D5204600F0D1FCF8BD5F
:100FF0004006FCD54806FAD5204600F0F4FBF8BDC3
:10100000B517000870B5040005D025466035687A2C
:10101000002802D006E0012070BD00202872204682
:1010200000F026F824206872206801684908490009
:101030000160204600F022FC0128EDD0606A002803
:1010400002D0204600F01DFB206841680922D20230
:1010500091434160206881682A2291438160206821
:101060000168012211430160204600F06FFB70BD52
:1010700010B586B0044614216846FFF787F8174973
:101080002068884227D116488269012189030A43D2
:10109000826182690A4005924269C9000A4342613D
:1010A0004069084005900320400200900220019012
:1010B000002002900320039001200490092069463B
:1010C000C006FFF7DDFB002211461B20FFF7D6FC10
:1010D0001B20FFF7C9FC06B010BD0000003801401E
:1010E00000100240FFB5074604466037B87A83B067
:1010F0000E46202864D1002E0CD00598002809D077
:101100000120A1680003814207D12069002804D191
:10111000F00702D0012007B0F0BD387A01284FD087
:10112000012038720020E0662220B872FFF750FCE0
:10113000029025464035059828830598688301224A
:10114000A1681203FF20914204D12169002907D12F
:101150001C4805E0002904D12169002900D07F2026
:10116000A883A88B01901CE0688B401E68830698BA
:101170000090002220212046029B00F03CFC002829
:1011800001D00320C7E70120A1680003814202D1FA
:10119000206900280DD02068818C019801403170B1
:1011A000761C688B0028DFD12020B87200203872AE
:1011B000B1E72068808C019908403080B61CF0E7C8
:1011C0000220A8E7FF0100007047FFB5064604466D
:1011D0006036707A83B00D46202858D1002D0CD08F
:1011E0000598002809D00120A1680003814207D199
:1011F0002069002804D1E80702D0012007B0F0BD23
:10120000307A012843D0012030720020E06621208E
:101210007072FFF7DDFB0190274640370598388252
:101220000598788218E0788A401E788206980090A7
:10123000002280212046019B00F0DDFB002818D110
:101240000120A1680003814202D12069002812D048
:101250002168287808856D1C788A0028E3D10698D3
:101260000090002240212046019B00F0C4FB002892
:1012700008D00320C2E728882168C005C00D088572
:10128000AD1CE9E72020707200203072B6E7022022
:10129000B4E77047FEE7000010B50848FFF7C4FC4C
:1012A00007490868074A1040CA03904205D172B640
:1012B0004868096881F30888804710BD3401002020
:1012C000004000080000FE2F014908607047000040
:1012D000C400002010B509480749016000210171D0
:1012E00041714161816101210162FFF72FF90028FD
:1012F00001D0FFF77FF810BD003002401001002040
:10130000F0B587B014216846FEF740FF1C484269DB
:10131000012189050A43426142690A4005924269F6
:1013200049110A43426142690A40059242694900F3
:101330000A434261406909260840F60605900022EA
:1013400086213046FFF73EFB0E4F01220221384630
:10135000FFF738FB8620002401250090029469469F
:10136000019503943046FFF78BFA02200090029417
:101370006946019503943846FFF782FA07B0F0BD3D
:10138000001002400004004810B586B0002400940C
:10139000174801940294039404941449059401603D
:1013A00014498460416004614461F9218461C16031
:1013B000FFF7FAFB002801D0FFF71CF8012000031B
:1013C000009069460A48FFF747FC002801D0FFF764
:1013D00011F8049404A906480594FFF7C1FB0028FE
:1013E00001D0FFF707F806B010BD0000002C014047
:1013F000340100207F3E000010B50C480A4901600E
:101400004B21C901416000218160C160016181619E
:10141000C1610C22016242614162FFF7F3FD0028C5
:1014200001D0FEF7E7FF10BD003801407401002035
:10143000704700008307FF22DB0E9A408907090EE0
:10144000994000280BDA0007000F08388308084885
:101450009B001818C36993430B43C361704783080B
:1014600004489B001B181868904308431860704795
:1014700000ED00E000E400E07047704708B505A10A
:1014800009687D230091DB0003226946FFF79DFE7A
:1014900008BD00000206040008B505A109687D2307
:1014A0000091DB0003226946FFF78FFE08BD0000B4
:1014B0000216140010B5FFF791FA10BD10B51648CA
:1014C00001684908490001600068144C2068012146
:1014D00009040843206020688003C00FFBD06068C7
:1014E000F0218843606060680721090288436060DA
:1014F0006168012089088900014361600C216068EE
:1015000008400428FBD10648FFF7DEFE206B800868
:101510008000206310BD0000002002400010024047
:101520000024F4001348016801221143016041685E
:10153000114A114041600168104A11400160016880
:10154000012292049143016041683F2212049143B9
:101550004160C16A09090901C162016BFF221432AD
:1015600091430163416B4908490041630021816057
:1015700070470000001002400CB8FF08FFFFF6FEA5
:1015800010B50248FFF7E0FB10BD00003401002059
:10159000F0B502681A4B0124A4071A4D984203D0F3
:1015A000A04201D0A84203D17026B2434E68324314
:1015B000154E164F98420AD0A04208D0A84206D035
:1015C000134CA04203D0B04201D0B84204D103244E
:1015D0002402A243CC6822438024A2434C692243C4
:1015E00002608A68C2620A688262984203D0B0428E
:1015F00001D0B84201D10969016301214161F0BD07
:10160000002C01400004004000440140004801401B
:101610000020004030B58468FF252D021B021343D3
:10162000AC430B432343836030BD826870239A43ED
:101630000A4307210A438260704730B5036A046A8F
:101640006408640004628469F025AC4312012243FB
:101650000A24A3430B438261036230BD30B5036AA1
:101660001024A34303628469036A0F252D03120328
:10167000AC432243A024A3430901194382610162C0
:1016800030BD10B5818CC90707D001684A680123B5
:101690005B049A43836A1A434A60818C890707D5A1
:1016A00001684A6801231B049A43C36A1A434A60CB
:1016B000818C490707D501684A6801239B049A4336
:1016C000036B1A434A60818C090707D501684A6891
:1016D0000123DB039A43436B1A434A60818CC9069A
:1016E00007D50268916801231B039943836B194353
:1016F0009160818C890607D501688A6801235B03A4
:101700009A43C36B1A438A60818C490612D50368D9
:101710005A6801210905046C8A4322435A60026C0D
:101720008A4207D10268516803235B059943436CE1
:1017300019435160818C090607D501684A68012365
:10174000DB04806C9A4302434A6010BDF8B5002662
:101750000446C666FFF73CF90546144920688842EE
:101760001DD10068124F000709D501212B46002228
:1017700049052046009700F03EF900280DD1206869
:10178000006840070BD501212B4600228905204621
:10179000009700F030F9002801D00320F8BD202088
:1017A00060346072A07226720020F8BD00380140DB
:1017B000FFFFFF0110B5406A0022014640314A8315
:1017C0004A82FFF783FB10BD01680A68FF232133BB
:1017D0009A430A6001688A68520852008A60202190
:1017E00060308172704710B501680A6840239A43DF
:1017F0000A60202269210A54FFF74BFD002010BD2A
:1018000070B50246403203466033948B9D7A01687E
:10181000222D05D08869082210438861022070BDFE
:10182000898C012685683603B54202D10569002DF1
:101830000BD02140446D651C45652170518B491EBC
:101840000904090C518307D015E0456D214029801A
:10185000416D891C4165F1E701680A68FF24213464
:10186000A2430A6001688A68520852008A602021F7
:101870009972FFF7A9FC002070BD0000F8B504467E
:101880002369A268E6691A43636910213343002083
:1018900026681A4333680546394F3B40134333608B
:1018A00023685A6803263603B243E66832435A6017
:1018B000236AA26926681A43B3680B273F02BB4319
:1018C0001343B3602F4A126B9207920F06D0012A7E
:1018D00008D0022A08D0032A07D101E0002104E041
:1018E000022102E0042100E008210122E369D20381
:1018F000934224D100290CD002290DD0042913D001
:10190000082917D00125010909010007400F0843E4
:1019100032E0FFF7BDF809E061681B4A480880180B
:10192000FEF706FC80B2EEE7FFF7C2F86168400000
:101930004A08F4E76168012248081204EFE7002929
:1019400008D0022909D004290BD008290ED001257E
:101950002846F8BDFFF79CF805E061680B4A480887
:1019600006E0FFF7A5F861684A0801E061684808E9
:101970008018FEF7DDFB80B22168C860E8E7000050
:10198000F369FFFF001002400024F40000127A0007
:101990006921095C212901D00220704702464032AA
:1019A000518A002912D0012381681B03994202D178
:1019B0000169002915D0C16C4B1CC364006809780B
:1019C0000185508A401E50820020704701680A68D5
:1019D00080239A430A600068016840221143016035
:1019E000F2E7C16C03680988C905C90D1985C16C86
:1019F000891CC164E5E7FFB581B017460E46044671
:101A00000A9D1DE0681C1BD0002D05D0FEF7E0FFED
:101A10000499401AA84213D920680168FF22A13214
:101A20009143016020688168490849008160202055
:101A300060346072A07200202072032005B0F0BDF7
:101A40002068C1693046884304D00020B842D9D00C
:101A50000020F3E70120F9E710B50248FFF738FA54
:101A600010BD0000740100207CB5104D104E2C46B6
:101A7000214601220F48FEF73DFD641C0090B44250
:101A8000F6D36423042269460B48FFF79EFB01212D
:101A900089032846FEF7FEFB01906423042201A976
:101AA0000548FFF792FBFFF7F7FB7CBD00400008FD
:101AB000008000081001002074010020F8B5284EB5
:101AC00014213068FEF734FB0346072225492648D7
:101AD000FFF708FB0028F3D107212248FEF7EEFBB1
:101AE0000128214802D0FFF7D7FCF8BDFFF7C6FC5C
:101AF0001C4C6178207909064018A178E278090425
:101B0000120289186579471814213068FEF710FB16
:101B100003462A4613491448FFF7E4FA0028F3D194
:101B200029461048FEF7CAFB0026FEF795FE0EE098
:101B3000A1194978A05D09024218D317394601203E
:101B4000FEF74CFEB61CAD1EF6B2EDB2BF1C002D6A
:101B5000EED1FEF737FE0448FFF790FCF8BD000019
:101B6000C4000020F00000207401002002E008C83A
:101B7000121F08C1002AFAD170477047002001E007
:101B800001C1121F002AFBD17047000030B50022AE
:101B9000D243074B08E00578140A55402A06920DF7
:101BA0009A58401C6240491E0029F4D1D04330BDF0
:101BB000C020000800F068F8FEF718FFFEF790FA62
:101BC000FFF77CFCFFF79CFBFFF7DEFBFFF714FC45
:101BD000FFF780FB2848FFF71BF8284C14212068EA
:101BE000FEF7A6FA0346162225492648FFF77AFA99
:101BF0002348FEF775FB0128224802D0FFF74CFC72
:101C000001E0FFF73BFC1E4D14212068FEF790FA1F
:101C1000034603221A491B48FFF764FA0028F3D150
:101C200003211748FEF74AFB012808D168783128BC
:101C30000FD0432807D0512811D0A12815D0114822
:101C4000FFF72AFCE0E70F48FFF718FCFEF79AFBC6
:101C5000DAE70C48FFF712FCFFF730FFD4E709483A
:101C6000FFF70CFCFFF700FFCEE70648FFF706FC86
:101C7000FFF712FBC8E7000034010020C400002079
:101C8000F00000207401002010B5002072B601227F
:101C9000094BD20681008C1824685C50401C302807
:101CA000F8D30648016889088900016001680322A9
:101CB0001143016062B610BD000000200000014029
:101CC00000000000B71DC1046E3B8209D926430DF8
:101CD000DC7604136B6BC517B24D861A0550471E90
:101CE000B8ED08260FF0C922D6D68A2F61CB4B2B30
:101CF000649B0C35D386CD310AA08E3CBDBD4F38D8
:101D000070DB114CC7C6D0481EE09345A9FD524177
:101D1000ACAD155F1BB0D45BC2969756758B56520F
:101D2000C836196A7F2BD86EA60D9B6311105A67AF
:101D300014401D79A35DDC7D7A7B9F70CD665E7457
:101D4000E0B6239857ABE29C8E8DA19139906095B7
:101D50003CC0278B8BDDE68F52FBA582E5E66486CF
:101D6000585B2BBEEF46EABA3660A9B7817D68B3EF
:101D7000842D2FAD3330EEA9EA16ADA45D0B6CA017
:101D8000906D32D42770F3D0FE56B0DD494B71D937
:101D90004C1B36C7FB06F7C32220B4CE953D75CA4F
:101DA00028803AF29F9DFBF646BBB8FBF1A679FF6F
:101DB000F4F63EE143EBFFE59ACDBCE82DD07DEC97
:101DC00077708634C06D4730194B043DAE56C53927
:101DD000AB0682271C1B4323C53D002E7220C12A5F
:101DE000CF9D8E1278804F16A1A60C1B16BBCD1F5F
:101DF00013EB8A01A4F64B057DD00808CACDC90CA7
:101E000007AB9778B0B6567C69901571DE8DD475A6
:101E1000DBDD936B6CC0526FB5E6116202FBD066DE
:101E2000BF469F5E085B5E5AD17D1D576660DC53DE
:101E300063309B4DD42D5A490D0B1944BA16D84026
:101E400097C6A5AC20DB64A8F9FD27A54EE0E6A166
:101E50004BB0A1BFFCAD60BB258B23B69296E2B21E
:101E60002F2BAD8A98366C8E41102F83F60DEE879E
:101E7000F35DA9994440689D9D662B902A7BEA9466
:101E8000E71DB4E0500075E4892636E93E3BF7EDE6
:101E90003B6BB0F38C7671F7555032FAE24DF3FE9E
:101EA0005FF0BCC6E8ED7DC231CB3ECF86D6FFCB1E
:101EB0008386B8D5349B79D1EDBD3ADC5AA0FBD8E6
:101EC000EEE00C6959FDCD6D80DB8E6037C64F6446
:101ED0003296087A858BC97E5CAD8A73EBB04B77FE
:101EE000560D044FE110C54B383686468F2B4742BE
:101EF0008A7B005C3D66C158E4408255535D435186
:101F00009E3B1D252926DC21F0009F2C471D5E28C5
:101F1000424D1936F550D8322C769B3F9B6B5A3B7D
:101F200026D6150391CBD40748ED970AFFF0560E3D
:101F3000FAA011104DBDD014949B93192386521D05
:101F40000E562FF1B94BEEF5606DADF8D7706CFC05
:101F5000D2202BE2653DEAE6BC1BA9EB0B0668EF3D
:101F6000B6BB27D701A6E6D3D880A5DE6F9D64DA7D
:101F70006ACD23C4DDD0E2C004F6A1CDB3EB60C9C5
:101F80007E8D3EBDC990FFB910B6BCB4A7AB7DB085
:101F9000A2FB3AAE15E6FBAACCC0B8A77BDD79A3BD
:101FA000C660369B717DF79FA85BB4921F467596FD
:101FB0001A163288AD0BF38C742DB081C330718545
:101FC00099908A5D2E8D4B59F7AB085440B6C95095
:101FD00045E68E4EF2FB4F4A2BDD0C479CC0CD43AD
:101FE000217D827B9660437F4F460072F85BC1760D
:101FF000FD0B86684A16476C93300461242DC56535
:10200000E94B9B115E565A1587701918306DD81C14
:10201000353D9F0282205E065B061D0BEC1BDC0F2C
:1020200051A69337E6BB52333F9D113E8880D03A8C
:102030008DD097243ACD5620E3EB152D54F6D429B4
:102040007926A9C5CE3B68C1171D2BCCA000EAC8D4
:10205000A550ADD6124D6CD2CB6B2FDF7C76EEDB6C
:10206000C1CBA1E376D660E7AFF023EA18EDE2EE4C
:102070001DBDA5F0AAA064F4738627F9C49BE6FDF4
:1020800009FDB889BEE0798D67C63A80D0DBFB8454
:10209000D58BBC9A62967D9EBBB03E930CADFF97EC
:1020A000B110B0AF060D71ABDF2B32A66836F3A2CC
:1020B0006D66B4BCDA7B75B8035D36B5B440F7B174
:1020C00000000000963007772C610EEEBA51099996
:1020D00019C46D078FF46A7035A563E9A395649EF2
:1020E0003288DB0EA4B8DC791EE9D5E088D9D29716
:1020F0002B4CB609BD7CB17E072DB8E7911DBF9072
:102100006410B71DF220B06A4871B9F3DE41BE8495
:102110007DD4DA1AEBE4DD6D51B5D4F4C785D383F1
:1021200056986C13C0A86B647AF962FDECC9658A95
:102130004F5C0114D96C0663633D0FFAF50D088DF1
:10214000C8206E3B5E10694CE44160D5727167A295
:10215000D1E4033C47D4044BFD850DD26BB50AA5F1
:10216000FAA8B5356C98B242D6C9BBDB40F9BCAC15
:10217000E36CD832755CDF45CF0DD6DC593DD1AB71
:10218000AC30D9263A00DE518051D7C81661D0BF95
:10219000B5F4B42123C4B3569995BACF0FA5BDB8F1
:1021A0009EB802280888055FB2D90CC624E90BB195
:1021B000877C6F2F114C6858AB1D61C13D2D66B6F1
:1021C0009041DC760671DB01BC20D2982A10D5EF55
:1021D0008985B1711FB5B606A5E4BF9F33D4B8E8B1
:1021E000A2C9077834F9000F8EA8099618980EE155
:1021F000BB0D6A7F2D3D6D08976C6491015C63E6B1
:10220000F4516B6B62616C1CD83065854E0062F2D4
:10221000ED95066C7BA5011BC1F4088257C40FF530
:10222000C6D9B06550E9B712EAB8BE8B7C88B9FC54
:10223000DF1DDD62492DDA15F37CD38C654CD4FBB0
:102240005861B24DCE51B53A7400BCA3E230BBD454
:1022500041A5DF4AD795D83D6DC4D1A4FBF4D6D3B0
:102260006AE96943FCD96E34468867ADD0B860DA54
:10227000732D0444E51D03335F4C0AAAC97C0DDDB0
:102280003C710550AA41022710100BBE86200CC9D4
:1022900025B56857B3856F2009D466B99FE461CE30
:1022A0000EF9DE5E98C9D9292298D0B0B4A8D7C754
:1022B000173DB359810DB42E3B5CBDB7AD6CBAC0B0
:1022C0002083B8EDB6B3BF9A0CE2B6039AD2B174CC
:1022D0003947D5EAAF77D29D1526DB048316DC7328
:1022E000120B63E3843B64943E6A6D0DA85A6A7ACC
:1022F0000BCF0EE49DFF099327AE000AB19E077D28
:1023000044930FF0D2A3088768F2011EFEC206694B
:102310005D5762F7CB67658071366C19E7066B6EA7
:10232000761BD4FEE02BD3895A7ADA10CC4ADD67CB
:102330006FDFB9F9F9EFBE8E43BEB717D58EB06027
:10234000E8A3D6D67E93D1A1C4C2D83852F2DF4FCB
:10235000F167BBD16757BCA6DD06B53F4B36B24827
:10236000DA2B0DD84C1B0AAFF64A0336607A0441CB
:10237000C3EF60DF55DF67A8EF8E6E3179BE694627
:102380008CB361CB1A8366BCA0D26F2536E268524B
:1023900095770CCC03470BBBB91602222F260555A7
:1023A000BE3BBAC5280BBDB2925AB42B046AB35CCB
:1023B000A7FFD7C231CFD0B58B9ED92C1DAEDE5B27
:1023C000B0C2649B26F263EC9CA36A750A936D020B
:1023D000A906099C3F360EEB856707721357000567
:1023E000824ABF95147AB8E2AE2BB17B381BB60C8B
:1023F0009B8ED2920DBED5E5B7EFDC7C21DFDB0BE7
:10240000D4D2D38642E2D4F1F8B3DD686E83DA1F0A
:10241000CD16BE815B26B9F6E177B06F7747B71866
:10242000E65A0888706A0FFFCA3B06665C0B01110A
:10243000FF9E658F69AE62F8D3FF6B6145CF6C1666
:1024400078E20AA0EED20DD75483044EC2B303390A
:10245000612667A7F71660D04D476949DB776E3E66
:102460004A6AD1AEDC5AD6D9660BDF40F03BD8378A
:1024700053AEBCA9C59EBBDE7FCFB247E9FFB530E6
:102480001CF2BDBD8AC2BACA3093B353A6A3B4240A
:102490000536D0BA9306D7CD2957DE54BF67D92366
:1024A0002E7A66B3B84A61C4021B685D942B6F2A0A
:1024B00037BE0BB4A18E0CC31BDF055A8DEF022D66
:1024C0000000000001020304E824000800000020CE
:1024D000C80000006C1B0008B0250008C8000020E0
:1024E000400500007C1B0008000000000000000008
:1024F00000000000000000000000000000000000DC
:1025000000000000000000000000000000000000CB
:1025100000000000000000000000000000000000BB
:1025200000000000000000000000000000000000AB
:10253000000000000000000000000000000000009B
:10254000000000000000000000000000000000008B
:10255000000000000000000000000000000000007B
:10256000000000000000000000000000000000006B
:10257000000000000000000000000000000000005B
:10258000000000000000000000000000000000004B
:10259000000000000000000000000000000000003B
:1025A00000000000000000000000000000127A009F
:04000005080000B13E
:00000001FF
