:020000040800F2
:1000000048080020C5000008691B00088F18000878
:1000100000000000000000000000000000000000E0
:10002000000000000000000000000000AF1B0008FE
:100030000000000000000000AD1B0008F11B0008DC
:10004000D7000008D7000008D700000833020008D6
:10005000D7000008D7000008D7000008D700000824
:1000600000000000D7000008D7000008D7000008F3
:10007000D7000008991C0008D7000008D700000826
:10008000D70000080000000000000000D7000008B2
:1000900000000000D7000008D7000008D7000008C3
:1000A00000000000D70000080000000051210008F7
:1000B0000348854600F03CF8004800475D210008F1
:1000C000480800200448804704480047FEE7FEE750
:1000D000FEE7FEE7FEE7FEE7411C0008B10000086E
:1000E00030B50B46014600202022012409E00D46D0
:1000F000D5409D4205D31D469540491B2546954058
:1001000040191546521E002DF1DC30BDD2B201E07F
:100110000270401C491EFBD270470022F6E710B562
:1001200013460A4604461946FFF7F0FF204610BD65
:10013000064C0125064E05E0E36807CC2B430C3C3A
:1001400098471034B442F7D3FFF7B6FF682500088C
:100150008825000870B553080C4607E06588268896
:1001600036042E4305682E60241D5B1E002BF5D13E
:10017000D30701D1006805E0034B1A405200895AA9
:1001800000680180006870BDFEFFFF7F70B59308B6
:100190000C460DE025782D06667836042E43A578AA
:1001A0002D023543E6782E4305682E60241D5B1E24
:1001B000002BEFD1032314461C40002C1DD09A4382
:1001C000022C05D0012C0CD1895C0268117014E05E
:1001D00001231343CB5C895C090219430268118037
:1001E0000BE001231343CB5C8C5C24021C430368AB
:1001F0001C8002241443095D19700068006870BDFA
:1002000010B50121081A09494B1C0A78FF210C4638
:1002100002E0401C1C785B1C62400028F9D1D0B27F
:10022000411A0020401A484110BDC046000200207B
:10023000704780B500F056F980BD0000F1480021FC
:10024000C161F548016804220A4302600168402246
:100250000A4302607047C046EA490022CA61EE497B
:100260000A68022313430B60486008684022024377
:100270000A607047B0B521480268002110231A4275
:1002800005D0E049CA6902231343CB6110210368FA
:100290000422134205D0DB4BDC6901252543DD61D7
:1002A00011430160B0BDC046F8B50446134E00F0DE
:1002B00007FB05463068012108420AD00327601C6D
:1002C000F8D0002C17D000F0FBFA401BA042F1D967
:1002D00011E030682021084201D0202030603068D1
:1002E0001021084204D1306800270421084202D0BE
:1002F000FFF7C0FF0127F8B201B0F0BD0C200240AB
:1003000000207047B0B50446237F0220012B20D087
:100310000220607701202077206A002501280ED076
:10032000022810D00328284604D00FE0206808C90E
:100330000360521E002AF9D12068006806E02046BA
:10034000FFF724FF02E02046FFF704FF2577012195
:100350006177B0BDB0B504460125002C25D0607F83
:10036000002804D100202077204600F021F8022048
:1003700060772046FFF7C4FF002816D10020C14354
:100380006079002800D021692068016181686022BD
:10039000914362690A438260816880229143A26925
:1003A0000A4382600120607700252846B0BD000026
:1003B00081B000680649884208D106480168402299
:1003C00011430160006810400090009801B0704730
:1003D000003002401410024010B501680A680E2374
:1003E0009A430A600A6801239A430A60C16B026C4F
:1003F0001C4694404C6020220021815421228354C9
:10040000084610BDB0B52121425C01462131022AC7
:1004100017D1026813680E24A343136013680124E4
:10042000A3431360C26B036C25469D4055600C705E
:10043000202200218154426B002A05D090470021E0
:1004400002E00421816301210846B0BDF8B50F46E2
:1004500006469849087E022401283ED001240C76E5
:1004600035689548FFF720FF012D0DD1002831D1C7
:10047000FFF7E4FE9048FFF717FF04468F48016836
:1004800004229143016025E00097002822D100203A
:10049000C0430099086070680124884F054611E048
:1004A0002846FFF7D9FE8448FFF7FEFE0446386869
:1004B000022188433860002C0AD1012080022D18C7
:1004C00070680024B168890208188542E8D301E009
:1004D00000980560002077490876E0B201B0F0BDD1
:1004E00070470000F8B50320C643744DA859102189
:1004F000084203D1A859042108420BD06D4FBC68B3
:100500000025E843B860FFF7B5FE204600F086F806
:100510003D706A4DA9592020014261D0A851654E15
:10052000307800285CD03078012814D17068401EE3
:100530007060706800283AD0B068FFF7D1FF0120E2
:100540008002B1680818B0602968022291432960CE
:10055000FFF782FE44E03078022809D128680421A0
:100560008843286000242046FFF7BAFF347037E044
:100570007068401E7060706800281FD0B068801CD2
:10058000B060B06831697269130C73611204090CB0
:1005900011433161296801229143296071693169F0
:1005A0000023F3612B6813432B60018018E00021C6
:1005B000C843B0603170FFF793FF11E03078032833
:1005C00001D1B06806E03178B068042901D1801EFD
:1005D00000E0801FFFF784FF0020C143B16030704E
:1005E00034480178002900D0F8BD296807229143DA
:1005F0002960052189022A688A432A600021017640
:10060000F8BDC046E00100202C48016880220A4362
:10061000026000207047C046102002407047000072
:10062000F0B587B004AC0EC40546224C217E0220F2
:1006300001293CD0012626761F48FFF735FE002809
:1006400033D104200390022D00D10395012D00D158
:1006500003950025194F01950296E8B2039981424E
:1006600022D90021E1613968314339600301059ADB
:10067000DA402021CC1A069E3146A1401143203B8E
:10068000DE40002B00DA0E464000049946520A482C
:10069000FFF70AFE3968029A914339606D1C002801
:1006A000044C1646D9D000E001980021217607B00D
:1006B000F0BDC046E001002050C300001020024001
:1006C0000748C1688022114201D1002070470549C6
:1006D000016005490160C068C109012008407047F8
:1006E0000420024023016745AB89EFCDF0B589B006
:1006F0000746674A022000900520974200D00090EC
:100700000020C44303460790024604970394B8E0D0
:100710000125069595402E40002E00D1ACE00592B3
:1007200002934B6810201843122808463C4612D109
:100730001C21029A11400F228A40039B5A40059BBC
:100740005B08554F3B40E3181F6A174002698A4017
:100750003A431A624368014603221F46174007982E
:1007600087400192824003984240206810403843FD
:100770002060122B27461AD806989840474C2042F2
:1007800015D0B8681040CF68079CA740074304986D
:1007900087601809069C2040059CA040039C65408A
:1007A000049C67682F40074304984760049FF868DB
:1007B00010408A68079CA2400243FA60D800039C5C
:1007C000029B059A58D56248024610682546069C49
:1007D000204310601068204008900C221A400F201F
:1007E00090406840059B019CA343089D3C462C4DCE
:1007F0005F5907405B190920C0060025844205D0D7
:100800000498284CA042009D00D1012595403D430D
:100810001D603246039C62401E4805682B4613400B
:100820003543069800044F68074200D02B4619480C
:10083000036045682B461340354306984004074241
:1008400000D02B461348436085682B461340354340
:1008500006980005074200D02B460E488360C0680A
:100860000240064306984005074200D03246094838
:10087000C260049F029B059A0798801C07901B1D6D
:10088000521C0E683046D04000D041E709B0F0BDA0
:100890000008004800040140FCFFFF7F060006003E
:1008A000080001400004004842694A404261704724
:1008B000034628331830002A00D0034619607047D9
:1008C000044800687047C04602480168491C01603E
:1008D0007047C0464002002010B5B8480168102299
:1008E0000A4302600024204600F004F800F014F8E7
:1008F000204610BDB0B5044600F066F97D21C90060
:10090000FFF7EEFB00F090FB0025E84321462A4666
:1009100000F02AF82846B0BD1CB50D480168012238
:10092000114301600168114001910199110742686A
:100930000A43426040680840009000980324002168
:1009400020460A4600F010F8204600F003F81CBDCF
:10095000181002401F210140012088400149086011
:100960007047C04600E100E080B501F0FFF880BDAF
:10097000F0B587B0074601210A04B878C0073E4B9E
:1009800061D0019204970A0718680024104207D129
:1009900018681043186018681040069006980124E3
:1009A0000394029205910C02344F386820420FD113
:1009B000386820433860FFF783FF054638682042D7
:1009C00006D1FFF77DFF401B03266428F6D94FE0D0
:1009D000032630022849496801400029049F23D09A
:1009E0007A68024091421FD02348024650685168FD
:1009F000019B194351605168994351600146204B56
:100A000019405160059908420ED0FFF759FF05467D
:100A10006B4C194840680221084205D1FFF750FF8E
:100A2000401BA042F5D923E0134B586814490840F5
:100A300079680143596003980028059903D0186824
:100A4000029A904318603868084205D05969032219
:100A50009143BA680A435A610026800608D50648C1
:100A60000246506910218843F9680143516100260C
:100A7000F0B207B0F0BDC0461C100240007000404C
:100A8000FFFCFFFFF8B50D464C4A116801242140D8
:100A9000A94209D211680126B143294311601168A6
:100AA0003140A94200D085E001680222114207D0FE
:100AB000604A16463268F0239A43836813433360D2
:100AC0000090C9072BD13D49086801263040A84253
:100AD000009A07D90868B043284308600868304086
:100AE000A84267D11078400708D507200002514975
:100AF0000B4619688143D0680843186000F078F805
:100B00004C49096809090F220A402E49895CC840EE
:100B10003549086000263046FFF7ECFE4AE0009BAE
:100B20005968012908D10320C043424A10580126C0
:100B3000720410420BD13DE00322D2433D4882585B
:100B4000022901D1920100E09207264632D53948A8
:100B5000024610680326B043084310601C46FFF7A6
:100B6000AFFE07466068164C01280DD0022817D149
:100B7000304800680C2101400829A4D0FFF7A0FEEE
:100B8000C01BA042F4D915E02A4800680C2101409E
:100B9000042998D0FFF794FEC01BA042F4D909E0C5
:100BA000244800680C2108428DD0FFF789FEC01B45
:100BB000A042F5D9F0B201B0F0BDC046002002401D
:100BC000881300004E250008074800687047C0469B
:100BD0000548006817490968090A07220A400349BD
:100BE000895CC8407047C046C00000205E250008F0
:100BF000B0B5104A11680C230B400F48042B0DD0E0
:100C0000082B0DD18C0C0F231C400CA52C5D926A77
:100C100001252D04294205D1104808E0044607E0CB
:100C20000F4C05E01A4009A1895CFFF759FA4443CB
:100C30002046B0BD041002400024F4000203040565
:100C4000060708090A0B0C0D0E0F10100102030411
:100C500005060708090A0B0C0D0E0F1000093D00D0
:100C600000127A00F0B585B003900078C007EB4E13
:100C700059D071680C200140042908D071680140E6
:100C800008290ED1012000047168014209D0012019
:100C9000410432680A4246D003994968002942D18A
:100CA000B9E103984168002904D0012919D1012034
:100CB00001041EE00120010432688A43326081048D
:100CC00032688A4332604404FFF7FAFD0546306813
:100CD000204228D0FFF7F4FD411B03206429F6D9F8
:100CE00099E13068052907D101218A041043306059
:100CF00009043068084306E001210A04904330608B
:100D0000890430688843306001204404FFF7D8FD2F
:100D100005463068204206D1FFF7D2FD411B032073
:100D20006429F6D977E103980078800735D5716892
:100D30000C2001421FD071680140082904D1012014
:100D400000047168014216D00398C1683068002918
:100D500000D1D8E0012108433060FFF7B1FD05461E
:100D600030680221084210D1FFF7AAFD411B032081
:100D70000229F5D94FE130680221084205D00398D5
:100D8000C1680120012900D045E13068F82188437D
:100D900003990969C900014331600398007800078D
:100DA00026D50398C169706A002910D00121084333
:100DB0007062FFF785FD0546706A0221084217D16F
:100DC000FFF77EFD411B03200229F5D923E1012114
:100DD00088437062FFF774FD0546706A022108427D
:100DE00006D0FFF76DFD411B03200229F5D912E162
:100DF0000398007840071DD403980078C0065ED59C
:100E00000398416901294CD1706B0421014371633E
:100E1000706B012101437163FFF752FD0546706B52
:100E20000221084243D1FFF74BFD411B0320022959
:100E3000F5D9F0E001231907F0690022084207D133
:100E4000F0690843F061F0690840049004980122B9
:100E500000A80EC01F02724C206838420FD12068D3
:100E600038432060FFF72CFD05462068384206D144
:100E7000FFF726FD411B03206429F6D9CBE0039838
:100E80008168684F002950D0012906D0306A0529B1
:100E900000D080E0042108433062306A02990843A0
:100EA0007FE0706B491D56D1042188437063706BDD
:100EB000F821884303998969C90001437163039844
:100EC000046A0020002C00D1A5E0029070680C217B
:100ED00001400120082900D19DE001273906306832
:100EE000019188433060FFF7EBFC0546022C47D1A7
:100EF0007F06306838426CD0FFF7E2FC411B0320CC
:100F00000229F6D987E0012188433060FFF7D8FC39
:100F1000054630680221084200D13EE7FFF7D0FCC9
:100F2000411B03200229F4D975E0306A02998843F5
:100F30003062306A042188433062FFF7C1FC054605
:100F4000306A022108423BD0FFF7BAFC411B032064
:100F5000B942F5D95FE0042108437063706B012149
:100F600088437063FFF7ACFC0546706B02210842B2
:100F7000A5D0FFF7A5FC411B03200229F5D94AE0C3
:100F80007C063068204245D0FFF79AFC411B0320C5
:100F90000329F6D33FE0029988433062306A042186
:100FA00088433062FFF78CFC0546306A0221084214
:100FB00006D1FFF785FC411B0320B942F5D92AE091
:100FC0000198002800D117E7F06900998843F06183
:100FD00012E7F06A0F218843039AD16A0143F16254
:100FE0003D20000471688143906A0843516A0143BF
:100FF00071603068019908433060FFF761FC044676
:101000003068384206D1FFF75BFC011B0320022940
:10101000F6D900E00298C0B205B0F0BD0010024061
:101020000070004088130000411E01200A0E0DD1FF
:101030000748084A516008490B68034003208007AD
:101040001843086000209060072111607047C04677
:10105000FFFFFF0010E000E020ED00E07047704768
:1010600070B53C22845C02463C320223012C17D02E
:101070003D230224C454046865687026B543656046
:101080000D6866682E436660A5688026B543A56036
:101090004968A5680D43A5600121C1540023137060
:1010A000D8B270BDB0B504460120002C14D03D204C
:1010B000205C25463D35002805D13C2000212154E7
:1010C000204600F00BF80220287001CC214600F0E9
:1010D000EBFD012028700020B0BD00001CB50068A9
:1010E0000B49884200D01CBD0120C00209490A6892
:1010F00002430A6009680140019101980D24002112
:1011000020460A46FFF730FC2046FFF723FC1CBDB3
:10111000002C0140181002400068C16801221143F0
:10112000C160016811430160002070473D21022227
:10113000425401683D300A6A074B1A4207D10A6AD5
:10114000064B1A4203D10A6801239A430A6001211F
:10115000017000207047C0461111000044040000D7
:10116000F8B504463C20225C25463C350220012A85
:101170007DD001262E703D200222225420688368F3
:101180003C4A1340836027463D370B68002B18D03C
:10119000102B1BD0202B1ED0302B21D0402B24D045
:1011A000502B2CD0602B34D0702B3CD07403A34236
:1011B00049D031038B4257D1816807229143816026
:1011C00052E081687722914307224BE081687722C1
:1011D0009143172246E0816877229143272241E01C
:1011E00081687722914337223CE0CA68496800F061
:1011F000ABFD2068816877229143472232E0CA68BC
:10120000496800F0A1FD2068816877229143572248
:1012100028E0CA68496800F0A8FD20688168772244
:10122000914367221EE04B6800938C68CB6877324D
:1012300081681140009A14431A0222430A438260D3
:10124000816877220EE04B6800938C68CB68773218
:1012500081681140009A14431A0222430A438260B3
:10126000B10382680A4382603E7000202870C0B2D9
:1012700001B0F0BD8800FFFF7047F8B5044680203C
:101280000090C643206801690227394218D0C1681E
:10129000394215D031467E310161012121778069C3
:1012A0000321084203D02046FFF7E6FF05E0204671
:1012B00000F092F8204600F090F800202077206897
:1012C00001690425294218D0C168294215D0314648
:1012D0007C3101612777032109028069084203D02C
:1012E0002046FFF7C9FF05E0204600F075F82046CC
:1012F00000F073F800202077206801690827394240
:1013000017D0C168394214D0314678310161257750
:10131000C0690321084203D02046FFF7ADFF05E076
:10132000204600F059F8204600F057F800202077BA
:1013300020683546009E026910210A4218D0C26812
:101340000A4215D02946703101612777032109022D
:10135000C069084203D02046FFF78EFF05E0204613
:1013600000F03AF8204600F038F800202077206896
:10137000026901210A4209D0C2680A4206D0294600
:101380007F310161204600F029F82068016931426F
:1013900007D0C168314204D005612046FFF75EFEE8
:1013A0002068026940210A4209D0C2680A4206D078
:1013B000294640310161204600F01EF8206802698C
:1013C00020210A4207D0C2680A4204D06035056174
:1013D0002046FFF744FEF8BD7047704780B50549C9
:1013E000884200D080BD0920C0068021FFF75CFA4A
:1013F00080BDC0462C01002070477047B0B5044640
:101400000F25680121680A6882430A608868012202
:10141000904388608A68802002420AD08A688243AA
:101420008A60206E002804D000214163FEF7D4FFBB
:1014300021688A68402002420AD08A6882438A6012
:10144000606E002804D000214163FEF7C5FF2168CB
:1014500052220020A0525A22A0520D62692120225D
:1014600062546A216254E066B0BD7047FEB504461E
:101470002168C8690F680F23184252D001918E6805
:10148000012533462B40290222463C460F46203791
:101490000294274014461F43002F65D0029F394015
:1014A000C607019A05D0002903D01562E16E2943D1
:1014B000E166810707D5002B05D002211162E16E9C
:1014C00004250D43E566410707D5002B05D004210F
:1014D0001162E16E02250D43E566010709D5202161
:1014E00039400B43002B04D008211162E26E0A43FD
:1014F000E266E16E00295BD03840800602D52046C6
:1015000000F000FDE06E0821084212D120688068DA
:10151000402108420DD12046FFF7A7FF0020E066DA
:10152000FEBD03463B409B061BD5204600F0EAFC6F
:10153000FEBD204600F0CAFC2068826840210A42B5
:101540002DD082688A438260606E002827D01949B6
:101550004163FEF757FF00282AD0606E416B884731
:10156000FEBD029701918E6801218D0535400B0566
:10157000C1020CD5002D0AD00198036269202021F8
:1015800021546A2021542046FFF737FFFEBD0299FF
:101590000840010607D5204600F074FDFEBD204638
:1015A000FFF763FFFEBD400602D5204600F09CFC1D
:1015B000FEBDC046B91E0008B0B504460125002C8A
:1015C0002FD06920205C25466935002805D1682088
:1015D00000212154204600F027F82420287020689C
:1015E00001680125A9430160204600F0C7FC0128DD
:1015F00017D0606A002802D0204600F0C9FB0920FD
:10160000C00221684A6882434A6088682A2290435F
:1016100088600868012202430A60204600F00EFC40
:1016200005462846B0BD000010B586B0044601A8A6
:101630001421FEF772FD20681649884227D1012047
:101640008103154A53680B43536053680B40009362
:101650000099410413680B43136012680A4000921A
:10166000009902210291039005900320049040020A
:1016700001900920C00601A9FFF738F81B240021BA
:1016800020460A46FFF770F92046FFF763F906B0D7
:1016900010BDC0460038014014100240F0B587B0BC
:1016A00017460D4606466A20315C32466A320220F1
:1016B000202935D10121002D33D003920693002F2C
:1016C0002FD001221303B1680593994204D13169E7
:1016D000002901D1E9075ED16821715C3346683386
:1016E0000293012901461CD0029802700020F06686
:1016F000222003990870FFF7E3F80490582037522E
:101700005A20375237465A37B06800280CD005990E
:10171000884212D13069FF2400280BD15A4C09E0CD
:101720000146C8B207B0F0BD3169FF247F2000290F
:1017300000D004465C20345223E05C20345A20E080
:101740003888401E388068460699016020210022B2
:101750003046049B00F0CCFC03210028E1D1B068A6
:101760000599884202D13069002805D03068808C04
:10177000204028706D1C04E03068808C2040288058
:10178000AD1C38880028DBD1202003990870002187
:1017900002980170C5E71146C3E7C04670470000D4
:1017A000F0B585B0049315460E4604466920215CC9
:1017B000224669320220202960D10121002E5ED00C
:1017C0000292002D5BD001221303A168039399427A
:1017D00004D12169002901D1F10753D16821615C4D
:1017E0002346683301930129014648D001980270CD
:1017F0000020E066212002990870FFF761F8074693
:1018000050202552522025522546523520E0288866
:10181000401E2880684604990160802100222046ED
:101820003B4600F065FC0321002828D1A0680399FD
:10183000884202D12069002804D0206831780185CF
:10184000761C05E030881049084021680885B61CE0
:1018500028880028DBD168460499016040210022D5
:1018600020463B4600F044FC0321002807D12020FD
:101870000299087000210198017000E00146C8B289
:1018800005B0F0BD1146FAE7FF0100007047FEE722
:10189000F8B5484C2168484FF96062683A61A06821
:1018A0000B0C3B80786179803A71110A7971110CC7
:1018B000B971110EF9713872010A7972010CB9729D
:1018C000000EF872208C3D49B962796240BA3886C0
:1018D0003B4CA069F862401C40D1504800688168C8
:1018E000012211438160D443414FFF200090354DC8
:1018F00024E0012249483946FEF704FD06463878BF
:1019000000281AD1385D122817D1381940787A2862
:1019100013D17878009988420FD1B878009988421D
:101920000BD1F8780099884207D13879009988421C
:1019300003D178790099884202D07F1CAF42D8D970
:101940001D4FFE62FEF7BCFE1D4C214618310220E1
:1019500000233246FEF764FEFEF756FE26686068F6
:1019600000902546A468FEF7ABFEF868B042114E21
:1019700005D03268022000232946FEF751FE38695F
:101980000099884205D07268291D02200023FEF7C5
:1019900047FE7869A04206D0B26829460831022085
:1019A0000023FEF73DFEFEF72FFEE868B8612869C8
:1019B000F861F8BDACF7FF1FD4000020E20400007E
:1019C000003C0008FF7F000880B5B648FFF7AEFB7B
:1019D00007480168074A0A40012149078A4205D1A0
:1019E00072B64168006880F30888884780BDC046A9
:1019F000004000080000FE2F80B50848084901603B
:101A0000002181804161816101210162FEF7A2FC18
:101A1000002801D0FEF70CFC80BDC0460801002064
:101A200000300240F0B589B00024089407940125E5
:101A3000A905224802680A43026002680A4003922C
:101A40000399690402680A43026002680A4003922B
:101A50000399A90402680A430260006808400390E1
:101A600003980920C7068621019138462246FEF7D1
:101A70001FFF1348022102912A46FEF719FF032097
:101A8000059079200490069404AE384631460D4AFC
:101A9000904705950198049006940794384631467E
:101AA000084FB8473A460595029804900694079463
:101AB00003483146904709B0F0BDC04614100240BB
:101AC00000040048ED06000810B586B00024059417
:101AD00004940394029473484021984A124B1CC00A
:101AE000016044608460C460019400940C38FFF786
:101AF000D9FA002801D0FEF79BFB012000030290D9
:101B0000684802A9FFF72CFB002801D0FEF790FBE4
:101B10000194009463486946FFF7A2FA002801D0B7
:101B2000FEF786FB06B010BD7F3E000010B52E48C4
:101B3000DF4900220C233024026244624B24E4017A
:101B400012C0026042608260C36002614261012192
:101B50000A034903026341630838FFF72DFD00289B
:101B600001D0FEF765FB10BD70470000002805DBC3
:101B70000322034693430B4A9A1806E00F220240C1
:101B8000083A03239A43084BD218C0001823034095
:101B90008801C0B29840FF21994013688B430343EA
:101BA0001360704700E400E01CED00E070477047F0
:101BB000E0B501A904208870034808800A48032280
:101BC0000A4BFFF7EDFD8CBD02060000E0B501A950
:101BD000142088700348088003480322034BFFF752
:101BE000DFFD8CBD021600006C010020B80B000068
:101BF00080B5FEF769FE80BD70B594B008AD28468B
:101C000008302821FEF789FA0024039402940194F5
:101C100001260896099610942846FFF723F8072016
:101C2000049005960694079404A82146FEF72AFF1F
:101C3000009602946846FEF79BFE14B070BD00004B
:101C40001248026801210A4302604268104B1340A7
:101C5000436002680F4B134003608A040368934398
:101C600003603F221204436893434360C26A0F2318
:101C70009A43C262FF221432036B93430363426BA5
:101C80008A434263002181607047C04600100240D1
:101C90000CB8FF08FFFFF6FE80B50248FFF7EDFA2B
:101CA00080BDC0462C010020F0B5026801239B07CF
:101CB000204D214E984205D0204B984202D0204B17
:101CC000984224D1831B0026F41A5C41451B731BE8
:101CD0006B417025AA434D681543032212029543B8
:101CE000CA682A438025AA434D69154305608A685E
:101CF000C2620A688262002C04D1104A904201D06C
:101D0000002B01D00969016301214161F0BD831BF2
:101D10000027FC1A5C41451B7B1B6B41094DA84207
:101D200006D0B04204D0034DA8421546D5D0D9E71D
:101D30001546D2E70044014000480140002C014014
:101D40000004004000200040B0B5036A046A012589
:101D5000AC4304628469F025AC43120122438261E2
:101D60000A2293430B430362B0BD10B5036A1024EB
:101D7000A34303620F231B0384699C431203224382
:101D8000036A8261A022934309011943016210BDD5
:101D900070B5426A01210A4206D04B0404686568A6
:101DA0009D43836A2B436360930706D50B04046845
:101DB00065689D43C36A2B436360530706D58B0454
:101DC000046865689D43036B2B436360130706D566
:101DD000CB03046865689D43436B2B436360D30664
:101DE00006D50B030468A5689D43836B2B43A36052
:101DF000930606D54B030468A5689D43C36B2B432C
:101E0000A36053060FD50C0503685D68A543066CF7
:101E100035435D60A64206D1032464055D68A54391
:101E2000446C2C435C60120606D5C90402685368F2
:101E30008B43806C1843506070BD00007CB5044635
:101E40000026E666FEF73CFD0546216818488142FB
:101E50000AD0692020212154682026546A20215468
:101E60003146C8B202B070BD0168082211420DD0DF
:101E700010486946086001204105002220462B4693
:101E800000F036F903210028EBD120680068042116
:101E90000842DED00748694608600120810500221B
:101EA00020462B4600F024F903210028D9D1D0E7A1
:101EB00000380140FFFFFF0180B5406A5A2100222F
:101EC000425252214252FFF7D0FA80BD0921490106
:101ED000026813688B4313609168012399439160F2
:101EE0006A2120224254704780B501680A68402365
:101EF0009A430A60692120224254FFF7C7FC002060
:101F000080BD000070B55C21435A6A21445C0268C0
:101F100001466A31222C0ED1948C01221503866869
:101F2000AE4202D10569002D0BD0456D6E1C466591
:101F30001C402C700AE09069082101439161022342
:101F40001AE01C40436D1C809B1C43655A23C45AF5
:101F5000641EC4520023494D2C420DD109235B015C
:101F6000046825689D432560A3689343A3602022ED
:101F70000A70FFF713FC0023D8B270BDF8B5044611
:101F8000E16962692369A56820680668374F3740B0
:101F90001D4315430D433D4305600322130345686C
:101FA0009D43E3682B434360A369256A1D430B23CC
:101FB0001B0286689E432E4386602D4800680223DC
:101FC0004340134053432B4ADA400120C303994254
:101FD00010D107252A4001200021284E042A29D8A3
:101FE0007A44127952009744021317251D00FEF718
:101FF000EFFD13E007210A40042A35D87A4412790C
:1020000052009744021D22312800FEF7E1FD1EE038
:10201000616848081A4A08E0FEF7EAFD4000616876
:102020004A0802E0721C616848088018FEF758F8F8
:10203000014600200F3E0E4049082940314311E07F
:10204000616848080C4A801808E0FEF7D1FD616815
:102050004A08101802E061684808C018FEF740F806
:1020600081B200202268D16001B0F0BDF369FFFFAA
:10207000301002400C04000000127A00FFFF000044
:102080000024F40010B56921425C0221212A21D1EB
:102090005221425A01465231002A11D00122120324
:1020A0008368934202D10269002A15D0C26C531C86
:1020B000C3640068127802850888401E088008E022
:1020C00000680168802291430160016840220A4350
:1020D00002600021C8B210BDC26C1388034C1C40C2
:1020E00003681C85921CC264E6E7C046FF0100003D
:1020F000F8B5009316460F460446069D2068C16950
:102100003940CA1B00218B1A5341B3421CD1691CB0
:10211000F4D0002D06D0FEF7D3FB0099401AA84258
:10212000ECD920680D21490102688A430260816868
:1021300001229143816069202021215468200022DE
:1021400022546A2021540321C8B201B0F0BD00001E
:1021500080B5E148FFF78AF980BDC046F0B58DB083
:1021600000F0C8F9FEF7B8FBFFF792FB0020D54955
:1021700002E000220A54401C4028FAD1FFF73CFD3F
:10218000FFF750FCFFF7A0FCFFF7D0FCFFF734FC93
:10219000CD4802240127CD4E21463A46B0470920BA
:1021A000C5060421284606973A46B047002228462D
:1021B0002146B047C648FEF7AFFF1920C101C54C04
:1021C0002068FDF78DFF0346C348BE4E16223146F8
:1021D000FFF764FA002801D0FFF7F6FBFFF7E8FCF1
:1021E000BD4FD4E0F12837D051283ED0A12837D0B8
:1021F000432800D0C4E0FFF7DBFC002002E0002110
:102200003154401C4028FAD120686421FDF768FF52
:102210000346042238463146FFF740FA0028F3D13E
:102220000420FDF7EDFF012800D0A9E07078FF2819
:1022300000D1A5E00021AD4D2960AD4A6A60A860DB
:102240000A91FEF73DFA0AA92846FEF7FFF8FEF7C5
:10225000DBF9FFF7ADFC9AE002219B48FEF724FB77
:10226000FFF7A6FCFFF7B0FB91E0FFF7A1FC002011
:1022700002E000213154401C4028FAD1206864213A
:10228000FDF72EFF03460E2238463146FFF706FAC9
:102290000028F3D10E20FDF7B3FF012870D1FFF71E
:1022A00087FC307B0990F07A0890B07A0590707ABC
:1022B000079030790490F0780390B07802907078AD
:1022C0000190347AF579304686794779834B1868DE
:1022D0008168069A11438160380631041E46014325
:1022E0002F020F4327430198000602990904014376
:1022F000039804020C430498044309E00122304689
:102300002146FDF7FFFF05462B0E280C2A0A641C08
:10231000BC42F3D30BA94D700646042008708A70A6
:10232000CE700B71049205226B4F384603936C4BB1
:10233000FFF736FA0598000207990843089909043F
:102340000143099804060C4303980006F1B20904FE
:1023500001430498C0B200020843E9B20143A1421C
:1023600011D16048C462FEF7ABF9022000235E4938
:102370002246FEF755F9FEF747F9FFF719FC04E08E
:10238000FFF724FC03E0FFF721FC524C4D4E206880
:102390006421FDF7A5FE0346032238463146FFF7C8
:1023A0007DF90028F3D10320FDF72AFF0128E7D1AA
:1023B0007078312800D015E7FFF7FAFB002002E023
:1023C00000213154401C4028FAD120686421FDF7D7
:1023D00087FE0346072238463146FFF75FF900289B
:1023E000F3D10720FDF70CFF012802D1FFF7E0FB36
:1023F00001E0FFF7EBFB747930790890F578B0785D
:102400007178002202E00023B354521C402AFAD112
:1024100009060004084307952D020543A01C0990F6
:1024200000260CE02B4800686421FDF759FE0346A6
:102430002448C11901222848FFF730F9761CF7B269
:102440000998B842EED12448FEF7D8FF0027069835
:102450001C4B03E0595CFAB28F18401CC1B2A14278
:10246000F8D90898054307994018001909901819D8
:1024700040780890FEF724F9012010E0C6B2114818
:102480000146885D891949780A0202430120002328
:102490002946FEF7C5F8AD1CE4B2FE34B01C210697
:1024A000ECD10998C019089940180406FEF7ACF859
:1024B000002C02D0FFF78AFB01E0FFF779FB054C07
:1024C000004E8DE60002002000040048B10800081C
:1024D0002C010020C00000206C0100200801002019
:1024E000B80B0000D4000020183C0008C8000020F1
:1024F00000400008B0B572B6BF20C04309490A4A7F
:1025000004E043581418C0256351001D0028F8D179
:10251000064801680322914301600168114301608C
:1025200062B6B0BDC00000080000002000000140FD
:1025300002E008C8121F08C1002AFAD1704770478C
:10254000002001E001C1121F002AFBD170470000EA
:102550000000000000000102030406070809000053
:10256000000001020304000088250008000000208C
:10257000C80000003025000850260008C8000020D0
:102580008007000040250008000000000000000057
:10259000000000000000000000000000000000003B
:1025A000000000000000000000000000000000002B
:1025B000000000000000000000000000000000001B
:1025C000000000000000000000000000000000000B
:1025D00000000000000000000000000000000000FB
:1025E00000000000000000000000000000000000EB
:1025F00000000000000000000000000000000000DB
:1026000000000000000000000000000000000000CA
:1026100000000000000000000000000000000000BA
:1026200000000000000000000000000000000000AA
:10263000000000000000000000000000000000009A
:10264000000000000000000000127A0000000000FE
:04000005080000B13E
:00000001FF
