:020000040800F2
:10400000F0060020C5400008F9440008CD43000830
:1040100000000000000000000000000000000000A0
:104020000000000000000000000000003F45000804
:1040300000000000000000003D4500084145000868
:10404000D7400008D7400008D74000083141000899
:10405000D7400008D7400008D7400008D7400008E4
:1040600000000000D7400008D7400008D7400008F3
:10407000D7400008D7400008D7400008D7400008C4
:10408000D74000080000000000000000D7400008F2
:1040900000000000D7400008D7400008D7400008C3
:1040A00000000000D740000800000000D7400008D2
:1040B0000348854600F02AF800480047FD450008FF
:1040C000F00600200448804704480047FEE7FEE76A
:1040D000FEE7FEE7FEE7FEE7A5450008B140000861
:1040E00030B50B46014600202022012409E00D4690
:1040F000D5409D4205D31D469540491B2546954018
:1041000040191546521E002DF1DC30BD064C01252C
:10411000064E05E0E36807CC2B430C3C984710346F
:10412000B442F7D3FFF7C8FF7C4600089C4600085E
:1041300080B500F03BF880BD65490022CA61634943
:104140000A68022313430B60486008684022024358
:104150000A607047B0B50C480268002110231A426B
:1041600005D05B49CA6902231343CB611021036860
:104170000422134205D0564BDC6901252543DD613D
:1041800011430160B0BDC0460C200240BCB5019097
:1041900000F0A6F804460198451C00D1054600F041
:1041A0009FF8001BA842FAD3BCBD7047F8B50320A6
:1041B000C643464DA8591021084203D1A8590421ED
:1041C00008420BD0424FBC680025E843B860FFF7B7
:1041D000C1FF204600F07EF83D703C4DA9592020DB
:1041E000014261D0A8513A4E307800285CD0307836
:1041F000012814D17068401E7060706800283AD0A1
:10420000B068FFF7D2FF01208002B1680818B060E3
:104210002968022291432960FFF78EFF44E030783D
:10422000022809D1286804218843286000242046F8
:10423000FFF7BBFF347037E07068401E7060706835
:1042400000281FD0B068801CB060B0683169726906
:10425000130C73611204090C1143316129680122A6
:1042600091432960716931690023F3612B6813431D
:104270002B60018018E00021C843B0603170FFF767
:1042800094FF11E03078032801D1B06806E031785E
:10429000B068042901D1801E00E0801FFFF785FF70
:1042A0000020C143B160307009480178002900D076
:1042B000F8BD2968072291432960052189022A68EF
:1042C0008A432A6000210176F8BDC04610200240D2
:1042D000C8000020704742694A40426170470000B0
:1042E000044800687047C04602480168491C0160E4
:1042F0007047C046E800002010B5A84801681022A9
:104300000A4302600024204600F004F800F014F88C
:10431000204610BDB0B5044600F03AF87D21C90032
:10432000FFF7DEFE00F038F80025E84321462A4674
:1043300000F02AF82846B0BD1CB50D4801680122DE
:104340001143016001681140019101991107426810
:104350000A4342604068084000900098032400210E
:1043600020460A4600F010F8204600F003F81CBD75
:10437000181002401F2101400120884001490860B7
:104380007047C04600E100E080B500F0B7F880BD9E
:10439000444800687047C046411E01200A0E0DD1F6
:1043A0000748084A516008490B680340032080070A
:1043B0001843086000209060072111607047C046D4
:1043C000FFFFFF0010E000E020ED00E0FEE700004E
:1043D00081B005490A6802430A60096801400091FA
:1043E000009801B07047C04614100240FCB5002789
:1043F000FA4300923FE00125BD402C40002C39D00B
:104400000197224652434E6815467543032757438A
:10441000009B5F4003683B402B430360731E012BEE
:1044200005D88B68534385683D401D4385600B6903
:104430005343C5683D401D43C560022E019F19D1FD
:104440004E69FF2C0AD8524356430F235343009A18
:104450005340026A1A40324302620BE0220A52437E
:10446000524356430F235343009A5340426A1A4023
:10447000324342627F1C0C682546FD40BBD14A682E
:10448000521E012A07D8C9686143009B63404268F5
:104490001A400A434260012002B0F0BD01490860A1
:1044A0007047C046C0000020F0B587B000260696D1
:1044B00001277804FFF78CFFB804FFF789FF092074
:1044C000C006802181620B4A022494610297019107
:1044D00003960496059601AD2946FFF787FF0194E0
:1044E000029703960496059602482946FFF77EFF39
:1044F00007B0F0BD0004004870470000002805DB4D
:104500000322034693430B4A9A1806E00F22024007
:10451000083A03239A43084BD218C00018230340DB
:104520008801C0B29840FF21994013688B43034330
:104530001360704700E400E01CED00E07047704736
:1045400080B5FFF7D1FE80BD80B514480168012217
:1045500091430160006826480168114301600168C9
:1045600002221142FBD00168F822914380220A43C3
:1045700002604168F02291434160072109024268CC
:104580008A434260416803229143416041680C22A2
:104590001142FBD10248FFF781FF80BD002002409D
:1045A00000127A001248026801210A430260426840
:1045B000104B1340436002680F4B134003608A04A2
:1045C0000368934303603F221204436893434360AC
:1045D000C26A0F239A43C262FF221432036B9343D1
:1045E0000363426B8A434263002181607047C04687
:1045F000001002400CB8FF08FFFFF6FE80B500F087
:104600000FF8FFF779FEFFF79FFFFFF74DFF092037
:10461000C0068021FFF75FFE6420FFF7B7FDF6E7D5
:10462000B0B572B6BF20C04309490A4A04E04358F6
:104630001418C0256351001D0028F8D106480168F0
:1046400003229143016001681143016062B6B0BD6D
:10465000C0400008000000200000014002E008C83F
:10466000121F08C1002AFAD170477047002001E0EC
:1046700001C1121F002AFBD170470000A0460008AC
:1046800000000020C80000005C46000868470008E1
:10469000C8000020280600006C460008000000004A
:1046A000000000000000000000000000000000000A
:1046B00000000000000000000000000000000000FA
:1046C00000000000000000000000000000000000EA
:1046D00000000000000000000000000000000000DA
:1046E00000000000000000000000000000000000CA
:1046F00000000000000000000000000000000000BA
:1047000000000000000000000000000000000000A9
:104710000000000000000000000000000000000099
:104720000000000000000000000000000000000089
:104730000000000000000000000000000000000079
:104740000000000000000000000000000000000069
:104750000000000000000000000000000000000059
:0847600000127A0000000000C5
:04000005080040B1FE
:00000001FF
